{
	"compilerInput": "{\"language\":\"Solidity\",\"sources\":{\"persnalportfolio.sol\":{\"content\":\"// SPDX-License-Identifier: MIT\\r\\npragma solidity ^0.8.0;\\r\\n\\r\\ncontract CryptoLock {\\r\\n    struct Deposit {\\r\\n        uint amount;       // Amount of Ether deposited\\r\\n        uint unlockTime;   // When user can withdraw\\r\\n    }\\r\\n\\r\\n    mapping(address => Deposit) public deposits;\\r\\n\\r\\n    // ✅ Deposit function with lock-in time\\r\\n    function deposit(uint _lockTimeInSeconds) external payable {\\r\\n        require(msg.value > 0, \\\"Must deposit some Ether\\\");\\r\\n\\r\\n        // Save deposit info\\r\\n        deposits[msg.sender] = Deposit({\\r\\n            amount: msg.value,\\r\\n            unlockTime: block.timestamp + _lockTimeInSeconds\\r\\n        });\\r\\n    }\\r\\n\\r\\n    // ✅ Withdraw function after lock time\\r\\n    function withdraw() external {\\r\\n        Deposit storage userDeposit = deposits[msg.sender];\\r\\n\\r\\n        require(userDeposit.amount > 0, \\\"No funds to withdraw\\\");\\r\\n        require(block.timestamp >= userDeposit.unlockTime, \\\"Funds are still locked\\\");\\r\\n\\r\\n        uint amount = userDeposit.amount;\\r\\n\\r\\n        // Reset deposit record before sending (to prevent re-entrancy attack)\\r\\n        userDeposit.amount = 0;\\r\\n\\r\\n        // Transfer Ether to user\\r\\n        payable(msg.sender).transfer(amount);\\r\\n    }\\r\\n\\r\\n    // ✅ Check user deposit details\\r\\n    function getDepositDetails(address _user) external view returns (uint amount, uint unlockTime) {\\r\\n        Deposit memory d = deposits[_user];\\r\\n        return (d.amount, d.unlockTime);\\r\\n    }\\r\\n}\\r\\n\"}},\"settings\":{\"optimizer\":{\"enabled\":false,\"runs\":200},\"outputSelection\":{\"*\":{\"\":[\"ast\"],\"*\":[\"abi\",\"metadata\",\"devdoc\",\"userdoc\",\"storageLayout\",\"evm.legacyAssembly\",\"evm.bytecode\",\"evm.deployedBytecode\",\"evm.methodIdentifiers\",\"evm.gasEstimates\",\"evm.assembly\"]}},\"remappings\":[]}}",
	"name": "CryptoLock",
	"bytecode": {
		"linkReferences": {},
		"object": "6080604052348015600e575f5ffd5b506106528061001c5f395ff3fe60806040526004361061003e575f3560e01c80633ccfd60b1461004257806352608f7f14610058578063b6b55f2514610095578063fc7e286d146100b1575b5f5ffd5b34801561004d575f5ffd5b506100566100ee565b005b348015610063575f5ffd5b5061007e600480360381019061007991906103b5565b610210565b60405161008c9291906103f8565b60405180910390f35b6100af60048036038101906100aa9190610449565b610282565b005b3480156100bc575f5ffd5b506100d760048036038101906100d291906103b5565b610338565b6040516100e59291906103f8565b60405180910390f35b5f5f5f3373ffffffffffffffffffffffffffffffffffffffff1673ffffffffffffffffffffffffffffffffffffffff1681526020019081526020015f2090505f815f015411610172576040517f08c379a0000000000000000000000000000000000000000000000000000000008152600401610169906104ce565b60405180910390fd5b80600101544210156101b9576040517f08c379a00000000000000000000000000000000000000000000000000000000081526004016101b090610536565b60405180910390fd5b5f815f015490505f825f01819055503373ffffffffffffffffffffffffffffffffffffffff166108fc8290811502906040515f60405180830381858888f1935050505015801561020b573d5f5f3e3d5ffd5b505050565b5f5f5f5f5f8573ffffffffffffffffffffffffffffffffffffffff1673ffffffffffffffffffffffffffffffffffffffff1681526020019081526020015f206040518060400160405290815f82015481526020016001820154815250509050805f015181602001519250925050915091565b5f34116102c4576040517f08c379a00000000000000000000000000000000000000000000000000000000081526004016102bb9061059e565b60405180910390fd5b604051806040016040528034815260200182426102e191906105e9565b8152505f5f3373ffffffffffffffffffffffffffffffffffffffff1673ffffffffffffffffffffffffffffffffffffffff1681526020019081526020015f205f820151815f01556020820151816001015590505050565b5f602052805f5260405f205f91509050805f0154908060010154905082565b5f5ffd5b5f73ffffffffffffffffffffffffffffffffffffffff82169050919050565b5f6103848261035b565b9050919050565b6103948161037a565b811461039e575f5ffd5b50565b5f813590506103af8161038b565b92915050565b5f602082840312156103ca576103c9610357565b5b5f6103d7848285016103a1565b91505092915050565b5f819050919050565b6103f2816103e0565b82525050565b5f60408201905061040b5f8301856103e9565b61041860208301846103e9565b9392505050565b610428816103e0565b8114610432575f5ffd5b50565b5f813590506104438161041f565b92915050565b5f6020828403121561045e5761045d610357565b5b5f61046b84828501610435565b91505092915050565b5f82825260208201905092915050565b7f4e6f2066756e647320746f2077697468647261770000000000000000000000005f82015250565b5f6104b8601483610474565b91506104c382610484565b602082019050919050565b5f6020820190508181035f8301526104e5816104ac565b9050919050565b7f46756e647320617265207374696c6c206c6f636b6564000000000000000000005f82015250565b5f610520601683610474565b915061052b826104ec565b602082019050919050565b5f6020820190508181035f83015261054d81610514565b9050919050565b7f4d757374206465706f73697420736f6d652045746865720000000000000000005f82015250565b5f610588601783610474565b915061059382610554565b602082019050919050565b5f6020820190508181035f8301526105b58161057c565b9050919050565b7f4e487b71000000000000000000000000000000000000000000000000000000005f52601160045260245ffd5b5f6105f3826103e0565b91506105fe836103e0565b9250828201905080821115610616576106156105bc565b5b9291505056fea2646970667358221220e6141b0d8a41f9eb271d8da451237e2c48f56cd1d3cea99b7cb61557ebbcbe7364736f6c634300081e0033",
		"opcodes": "PUSH1 0x80 PUSH1 0x40 MSTORE CALLVALUE DUP1 ISZERO PUSH1 0xE JUMPI PUSH0 PUSH0 REVERT JUMPDEST POP PUSH2 0x652 DUP1 PUSH2 0x1C PUSH0 CODECOPY PUSH0 RETURN INVALID PUSH1 0x80 PUSH1 0x40 MSTORE PUSH1 0x4 CALLDATASIZE LT PUSH2 0x3E JUMPI PUSH0 CALLDATALOAD PUSH1 0xE0 SHR DUP1 PUSH4 0x3CCFD60B EQ PUSH2 0x42 JUMPI DUP1 PUSH4 0x52608F7F EQ PUSH2 0x58 JUMPI DUP1 PUSH4 0xB6B55F25 EQ PUSH2 0x95 JUMPI DUP1 PUSH4 0xFC7E286D EQ PUSH2 0xB1 JUMPI JUMPDEST PUSH0 PUSH0 REVERT JUMPDEST CALLVALUE DUP1 ISZERO PUSH2 0x4D JUMPI PUSH0 PUSH0 REVERT JUMPDEST POP PUSH2 0x56 PUSH2 0xEE JUMP JUMPDEST STOP JUMPDEST CALLVALUE DUP1 ISZERO PUSH2 0x63 JUMPI PUSH0 PUSH0 REVERT JUMPDEST POP PUSH2 0x7E PUSH1 0x4 DUP1 CALLDATASIZE SUB DUP2 ADD SWAP1 PUSH2 0x79 SWAP2 SWAP1 PUSH2 0x3B5 JUMP JUMPDEST PUSH2 0x210 JUMP JUMPDEST PUSH1 0x40 MLOAD PUSH2 0x8C SWAP3 SWAP2 SWAP1 PUSH2 0x3F8 JUMP JUMPDEST PUSH1 0x40 MLOAD DUP1 SWAP2 SUB SWAP1 RETURN JUMPDEST PUSH2 0xAF PUSH1 0x4 DUP1 CALLDATASIZE SUB DUP2 ADD SWAP1 PUSH2 0xAA SWAP2 SWAP1 PUSH2 0x449 JUMP JUMPDEST PUSH2 0x282 JUMP JUMPDEST STOP JUMPDEST CALLVALUE DUP1 ISZERO PUSH2 0xBC JUMPI PUSH0 PUSH0 REVERT JUMPDEST POP PUSH2 0xD7 PUSH1 0x4 DUP1 CALLDATASIZE SUB DUP2 ADD SWAP1 PUSH2 0xD2 SWAP2 SWAP1 PUSH2 0x3B5 JUMP JUMPDEST PUSH2 0x338 JUMP JUMPDEST PUSH1 0x40 MLOAD PUSH2 0xE5 SWAP3 SWAP2 SWAP1 PUSH2 0x3F8 JUMP JUMPDEST PUSH1 0x40 MLOAD DUP1 SWAP2 SUB SWAP1 RETURN JUMPDEST PUSH0 PUSH0 PUSH0 CALLER PUSH20 0xFFFFFFFFFFFFFFFFFFFFFFFFFFFFFFFFFFFFFFFF AND PUSH20 0xFFFFFFFFFFFFFFFFFFFFFFFFFFFFFFFFFFFFFFFF AND DUP2 MSTORE PUSH1 0x20 ADD SWAP1 DUP2 MSTORE PUSH1 0x20 ADD PUSH0 KECCAK256 SWAP1 POP PUSH0 DUP2 PUSH0 ADD SLOAD GT PUSH2 0x172 JUMPI PUSH1 0x40 MLOAD PUSH32 0x8C379A000000000000000000000000000000000000000000000000000000000 DUP2 MSTORE PUSH1 0x4 ADD PUSH2 0x169 SWAP1 PUSH2 0x4CE JUMP JUMPDEST PUSH1 0x40 MLOAD DUP1 SWAP2 SUB SWAP1 REVERT JUMPDEST DUP1 PUSH1 0x1 ADD SLOAD TIMESTAMP LT ISZERO PUSH2 0x1B9 JUMPI PUSH1 0x40 MLOAD PUSH32 0x8C379A000000000000000000000000000000000000000000000000000000000 DUP2 MSTORE PUSH1 0x4 ADD PUSH2 0x1B0 SWAP1 PUSH2 0x536 JUMP JUMPDEST PUSH1 0x40 MLOAD DUP1 SWAP2 SUB SWAP1 REVERT JUMPDEST PUSH0 DUP2 PUSH0 ADD SLOAD SWAP1 POP PUSH0 DUP3 PUSH0 ADD DUP2 SWAP1 SSTORE POP CALLER PUSH20 0xFFFFFFFFFFFFFFFFFFFFFFFFFFFFFFFFFFFFFFFF AND PUSH2 0x8FC DUP3 SWAP1 DUP2 ISZERO MUL SWAP1 PUSH1 0x40 MLOAD PUSH0 PUSH1 0x40 MLOAD DUP1 DUP4 SUB DUP2 DUP6 DUP9 DUP9 CALL SWAP4 POP POP POP POP ISZERO DUP1 ISZERO PUSH2 0x20B JUMPI RETURNDATASIZE PUSH0 PUSH0 RETURNDATACOPY RETURNDATASIZE PUSH0 REVERT JUMPDEST POP POP POP JUMP JUMPDEST PUSH0 PUSH0 PUSH0 PUSH0 PUSH0 DUP6 PUSH20 0xFFFFFFFFFFFFFFFFFFFFFFFFFFFFFFFFFFFFFFFF AND PUSH20 0xFFFFFFFFFFFFFFFFFFFFFFFFFFFFFFFFFFFFFFFF AND DUP2 MSTORE PUSH1 0x20 ADD SWAP1 DUP2 MSTORE PUSH1 0x20 ADD PUSH0 KECCAK256 PUSH1 0x40 MLOAD DUP1 PUSH1 0x40 ADD PUSH1 0x40 MSTORE SWAP1 DUP2 PUSH0 DUP3 ADD SLOAD DUP2 MSTORE PUSH1 0x20 ADD PUSH1 0x1 DUP3 ADD SLOAD DUP2 MSTORE POP POP SWAP1 POP DUP1 PUSH0 ADD MLOAD DUP2 PUSH1 0x20 ADD MLOAD SWAP3 POP SWAP3 POP POP SWAP2 POP SWAP2 JUMP JUMPDEST PUSH0 CALLVALUE GT PUSH2 0x2C4 JUMPI PUSH1 0x40 MLOAD PUSH32 0x8C379A000000000000000000000000000000000000000000000000000000000 DUP2 MSTORE PUSH1 0x4 ADD PUSH2 0x2BB SWAP1 PUSH2 0x59E JUMP JUMPDEST PUSH1 0x40 MLOAD DUP1 SWAP2 SUB SWAP1 REVERT JUMPDEST PUSH1 0x40 MLOAD DUP1 PUSH1 0x40 ADD PUSH1 0x40 MSTORE DUP1 CALLVALUE DUP2 MSTORE PUSH1 0x20 ADD DUP3 TIMESTAMP PUSH2 0x2E1 SWAP2 SWAP1 PUSH2 0x5E9 JUMP JUMPDEST DUP2 MSTORE POP PUSH0 PUSH0 CALLER PUSH20 0xFFFFFFFFFFFFFFFFFFFFFFFFFFFFFFFFFFFFFFFF AND PUSH20 0xFFFFFFFFFFFFFFFFFFFFFFFFFFFFFFFFFFFFFFFF AND DUP2 MSTORE PUSH1 0x20 ADD SWAP1 DUP2 MSTORE PUSH1 0x20 ADD PUSH0 KECCAK256 PUSH0 DUP3 ADD MLOAD DUP2 PUSH0 ADD SSTORE PUSH1 0x20 DUP3 ADD MLOAD DUP2 PUSH1 0x1 ADD SSTORE SWAP1 POP POP POP JUMP JUMPDEST PUSH0 PUSH1 0x20 MSTORE DUP1 PUSH0 MSTORE PUSH1 0x40 PUSH0 KECCAK256 PUSH0 SWAP2 POP SWAP1 POP DUP1 PUSH0 ADD SLOAD SWAP1 DUP1 PUSH1 0x1 ADD SLOAD SWAP1 POP DUP3 JUMP JUMPDEST PUSH0 PUSH0 REVERT JUMPDEST PUSH0 PUSH20 0xFFFFFFFFFFFFFFFFFFFFFFFFFFFFFFFFFFFFFFFF DUP3 AND SWAP1 POP SWAP2 SWAP1 POP JUMP JUMPDEST PUSH0 PUSH2 0x384 DUP3 PUSH2 0x35B JUMP JUMPDEST SWAP1 POP SWAP2 SWAP1 POP JUMP JUMPDEST PUSH2 0x394 DUP2 PUSH2 0x37A JUMP JUMPDEST DUP2 EQ PUSH2 0x39E JUMPI PUSH0 PUSH0 REVERT JUMPDEST POP JUMP JUMPDEST PUSH0 DUP2 CALLDATALOAD SWAP1 POP PUSH2 0x3AF DUP2 PUSH2 0x38B JUMP JUMPDEST SWAP3 SWAP2 POP POP JUMP JUMPDEST PUSH0 PUSH1 0x20 DUP3 DUP5 SUB SLT ISZERO PUSH2 0x3CA JUMPI PUSH2 0x3C9 PUSH2 0x357 JUMP JUMPDEST JUMPDEST PUSH0 PUSH2 0x3D7 DUP5 DUP3 DUP6 ADD PUSH2 0x3A1 JUMP JUMPDEST SWAP2 POP POP SWAP3 SWAP2 POP POP JUMP JUMPDEST PUSH0 DUP2 SWAP1 POP SWAP2 SWAP1 POP JUMP JUMPDEST PUSH2 0x3F2 DUP2 PUSH2 0x3E0 JUMP JUMPDEST DUP3 MSTORE POP POP JUMP JUMPDEST PUSH0 PUSH1 0x40 DUP3 ADD SWAP1 POP PUSH2 0x40B PUSH0 DUP4 ADD DUP6 PUSH2 0x3E9 JUMP JUMPDEST PUSH2 0x418 PUSH1 0x20 DUP4 ADD DUP5 PUSH2 0x3E9 JUMP JUMPDEST SWAP4 SWAP3 POP POP POP JUMP JUMPDEST PUSH2 0x428 DUP2 PUSH2 0x3E0 JUMP JUMPDEST DUP2 EQ PUSH2 0x432 JUMPI PUSH0 PUSH0 REVERT JUMPDEST POP JUMP JUMPDEST PUSH0 DUP2 CALLDATALOAD SWAP1 POP PUSH2 0x443 DUP2 PUSH2 0x41F JUMP JUMPDEST SWAP3 SWAP2 POP POP JUMP JUMPDEST PUSH0 PUSH1 0x20 DUP3 DUP5 SUB SLT ISZERO PUSH2 0x45E JUMPI PUSH2 0x45D PUSH2 0x357 JUMP JUMPDEST JUMPDEST PUSH0 PUSH2 0x46B DUP5 DUP3 DUP6 ADD PUSH2 0x435 JUMP JUMPDEST SWAP2 POP POP SWAP3 SWAP2 POP POP JUMP JUMPDEST PUSH0 DUP3 DUP3 MSTORE PUSH1 0x20 DUP3 ADD SWAP1 POP SWAP3 SWAP2 POP POP JUMP JUMPDEST PUSH32 0x4E6F2066756E647320746F207769746864726177000000000000000000000000 PUSH0 DUP3 ADD MSTORE POP JUMP JUMPDEST PUSH0 PUSH2 0x4B8 PUSH1 0x14 DUP4 PUSH2 0x474 JUMP JUMPDEST SWAP2 POP PUSH2 0x4C3 DUP3 PUSH2 0x484 JUMP JUMPDEST PUSH1 0x20 DUP3 ADD SWAP1 POP SWAP2 SWAP1 POP JUMP JUMPDEST PUSH0 PUSH1 0x20 DUP3 ADD SWAP1 POP DUP2 DUP2 SUB PUSH0 DUP4 ADD MSTORE PUSH2 0x4E5 DUP2 PUSH2 0x4AC JUMP JUMPDEST SWAP1 POP SWAP2 SWAP1 POP JUMP JUMPDEST PUSH32 0x46756E647320617265207374696C6C206C6F636B656400000000000000000000 PUSH0 DUP3 ADD MSTORE POP JUMP JUMPDEST PUSH0 PUSH2 0x520 PUSH1 0x16 DUP4 PUSH2 0x474 JUMP JUMPDEST SWAP2 POP PUSH2 0x52B DUP3 PUSH2 0x4EC JUMP JUMPDEST PUSH1 0x20 DUP3 ADD SWAP1 POP SWAP2 SWAP1 POP JUMP JUMPDEST PUSH0 PUSH1 0x20 DUP3 ADD SWAP1 POP DUP2 DUP2 SUB PUSH0 DUP4 ADD MSTORE PUSH2 0x54D DUP2 PUSH2 0x514 JUMP JUMPDEST SWAP1 POP SWAP2 SWAP1 POP JUMP JUMPDEST PUSH32 0x4D757374206465706F73697420736F6D65204574686572000000000000000000 PUSH0 DUP3 ADD MSTORE POP JUMP JUMPDEST PUSH0 PUSH2 0x588 PUSH1 0x17 DUP4 PUSH2 0x474 JUMP JUMPDEST SWAP2 POP PUSH2 0x593 DUP3 PUSH2 0x554 JUMP JUMPDEST PUSH1 0x20 DUP3 ADD SWAP1 POP SWAP2 SWAP1 POP JUMP JUMPDEST PUSH0 PUSH1 0x20 DUP3 ADD SWAP1 POP DUP2 DUP2 SUB PUSH0 DUP4 ADD MSTORE PUSH2 0x5B5 DUP2 PUSH2 0x57C JUMP JUMPDEST SWAP1 POP SWAP2 SWAP1 POP JUMP JUMPDEST PUSH32 0x4E487B7100000000000000000000000000000000000000000000000000000000 PUSH0 MSTORE PUSH1 0x11 PUSH1 0x4 MSTORE PUSH1 0x24 PUSH0 REVERT JUMPDEST PUSH0 PUSH2 0x5F3 DUP3 PUSH2 0x3E0 JUMP JUMPDEST SWAP2 POP PUSH2 0x5FE DUP4 PUSH2 0x3E0 JUMP JUMPDEST SWAP3 POP DUP3 DUP3 ADD SWAP1 POP DUP1 DUP3 GT ISZERO PUSH2 0x616 JUMPI PUSH2 0x615 PUSH2 0x5BC JUMP JUMPDEST JUMPDEST SWAP3 SWAP2 POP POP JUMP INVALID LOG2 PUSH5 0x6970667358 0x22 SLT KECCAK256 DUPN 0x14 SHL 0xD DUP11 COINBASE EXTDELEGATECALL 0xEB 0x27 SAR DUP14 LOG4 MLOAD 0x23 PUSH31 0x2C48F56CD1D3CEA99B7CB61557EBBCBE7364736F6C634300081E0033000000 "
	},
	"abi": [
		{
			"inputs": [
				{
					"internalType": "uint256",
					"name": "_lockTimeInSeconds",
					"type": "uint256"
				}
			],
			"name": "deposit",
			"outputs": [],
			"stateMutability": "payable",
			"type": "function"
		},
		{
			"inputs": [],
			"name": "withdraw",
			"outputs": [],
			"stateMutability": "nonpayable",
			"type": "function"
		},
		{
			"inputs": [
				{
					"internalType": "address",
					"name": "",
					"type": "address"
				}
			],
			"name": "deposits",
			"outputs": [
				{
					"internalType": "uint256",
					"name": "amount",
					"type": "uint256"
				},
				{
					"internalType": "uint256",
					"name": "unlockTime",
					"type": "uint256"
				}
			],
			"stateMutability": "view",
			"type": "function"
		},
		{
			"inputs": [
				{
					"internalType": "address",
					"name": "_user",
					"type": "address"
				}
			],
			"name": "getDepositDetails",
			"outputs": [
				{
					"internalType": "uint256",
					"name": "amount",
					"type": "uint256"
				},
				{
					"internalType": "uint256",
					"name": "unlockTime",
					"type": "uint256"
				}
			],
			"stateMutability": "view",
			"type": "function"
		}
	],
	"storageLayout": {
		"storage": [
			{
				"astId": 11,
				"contract": "persnalportfolio.sol:CryptoLock",
				"label": "deposits",
				"offset": 0,
				"slot": "0",
				"type": "t_mapping(t_address,t_struct(Deposit)6_storage)"
			}
		],
		"types": {
			"t_address": {
				"encoding": "inplace",
				"label": "address",
				"numberOfBytes": "20"
			},
			"t_mapping(t_address,t_struct(Deposit)6_storage)": {
				"encoding": "mapping",
				"key": "t_address",
				"label": "mapping(address => struct CryptoLock.Deposit)",
				"numberOfBytes": "32",
				"value": "t_struct(Deposit)6_storage"
			},
			"t_struct(Deposit)6_storage": {
				"encoding": "inplace",
				"label": "struct CryptoLock.Deposit",
				"members": [
					{
						"astId": 3,
						"contract": "persnalportfolio.sol:CryptoLock",
						"label": "amount",
						"offset": 0,
						"slot": "0",
						"type": "t_uint256"
					},
					{
						"astId": 5,
						"contract": "persnalportfolio.sol:CryptoLock",
						"label": "unlockTime",
						"offset": 0,
						"slot": "1",
						"type": "t_uint256"
					}
				],
				"numberOfBytes": "64"
			},
			"t_uint256": {
				"encoding": "inplace",
				"label": "uint256",
				"numberOfBytes": "32"
			}
		}
	},
	"web3Deploy": "var cryptolockContract = new web3.eth.Contract([{\"inputs\":[{\"internalType\":\"uint256\",\"name\":\"_lockTimeInSeconds\",\"type\":\"uint256\"}],\"name\":\"deposit\",\"outputs\":[],\"stateMutability\":\"payable\",\"type\":\"function\"},{\"inputs\":[{\"internalType\":\"address\",\"name\":\"\",\"type\":\"address\"}],\"name\":\"deposits\",\"outputs\":[{\"internalType\":\"uint256\",\"name\":\"amount\",\"type\":\"uint256\"},{\"internalType\":\"uint256\",\"name\":\"unlockTime\",\"type\":\"uint256\"}],\"stateMutability\":\"view\",\"type\":\"function\"},{\"inputs\":[{\"internalType\":\"address\",\"name\":\"_user\",\"type\":\"address\"}],\"name\":\"getDepositDetails\",\"outputs\":[{\"internalType\":\"uint256\",\"name\":\"amount\",\"type\":\"uint256\"},{\"internalType\":\"uint256\",\"name\":\"unlockTime\",\"type\":\"uint256\"}],\"stateMutability\":\"view\",\"type\":\"function\"},{\"inputs\":[],\"name\":\"withdraw\",\"outputs\":[],\"stateMutability\":\"nonpayable\",\"type\":\"function\"}]);\nvar cryptolock = cryptolockContract.deploy({\n     data: '0x6080604052348015600e575f5ffd5b506106528061001c5f395ff3fe60806040526004361061003e575f3560e01c80633ccfd60b1461004257806352608f7f14610058578063b6b55f2514610095578063fc7e286d146100b1575b5f5ffd5b34801561004d575f5ffd5b506100566100ee565b005b348015610063575f5ffd5b5061007e600480360381019061007991906103b5565b610210565b60405161008c9291906103f8565b60405180910390f35b6100af60048036038101906100aa9190610449565b610282565b005b3480156100bc575f5ffd5b506100d760048036038101906100d291906103b5565b610338565b6040516100e59291906103f8565b60405180910390f35b5f5f5f3373ffffffffffffffffffffffffffffffffffffffff1673ffffffffffffffffffffffffffffffffffffffff1681526020019081526020015f2090505f815f015411610172576040517f08c379a0000000000000000000000000000000000000000000000000000000008152600401610169906104ce565b60405180910390fd5b80600101544210156101b9576040517f08c379a00000000000000000000000000000000000000000000000000000000081526004016101b090610536565b60405180910390fd5b5f815f015490505f825f01819055503373ffffffffffffffffffffffffffffffffffffffff166108fc8290811502906040515f60405180830381858888f1935050505015801561020b573d5f5f3e3d5ffd5b505050565b5f5f5f5f5f8573ffffffffffffffffffffffffffffffffffffffff1673ffffffffffffffffffffffffffffffffffffffff1681526020019081526020015f206040518060400160405290815f82015481526020016001820154815250509050805f015181602001519250925050915091565b5f34116102c4576040517f08c379a00000000000000000000000000000000000000000000000000000000081526004016102bb9061059e565b60405180910390fd5b604051806040016040528034815260200182426102e191906105e9565b8152505f5f3373ffffffffffffffffffffffffffffffffffffffff1673ffffffffffffffffffffffffffffffffffffffff1681526020019081526020015f205f820151815f01556020820151816001015590505050565b5f602052805f5260405f205f91509050805f0154908060010154905082565b5f5ffd5b5f73ffffffffffffffffffffffffffffffffffffffff82169050919050565b5f6103848261035b565b9050919050565b6103948161037a565b811461039e575f5ffd5b50565b5f813590506103af8161038b565b92915050565b5f602082840312156103ca576103c9610357565b5b5f6103d7848285016103a1565b91505092915050565b5f819050919050565b6103f2816103e0565b82525050565b5f60408201905061040b5f8301856103e9565b61041860208301846103e9565b9392505050565b610428816103e0565b8114610432575f5ffd5b50565b5f813590506104438161041f565b92915050565b5f6020828403121561045e5761045d610357565b5b5f61046b84828501610435565b91505092915050565b5f82825260208201905092915050565b7f4e6f2066756e647320746f2077697468647261770000000000000000000000005f82015250565b5f6104b8601483610474565b91506104c382610484565b602082019050919050565b5f6020820190508181035f8301526104e5816104ac565b9050919050565b7f46756e647320617265207374696c6c206c6f636b6564000000000000000000005f82015250565b5f610520601683610474565b915061052b826104ec565b602082019050919050565b5f6020820190508181035f83015261054d81610514565b9050919050565b7f4d757374206465706f73697420736f6d652045746865720000000000000000005f82015250565b5f610588601783610474565b915061059382610554565b602082019050919050565b5f6020820190508181035f8301526105b58161057c565b9050919050565b7f4e487b71000000000000000000000000000000000000000000000000000000005f52601160045260245ffd5b5f6105f3826103e0565b91506105fe836103e0565b9250828201905080821115610616576106156105bc565b5b9291505056fea2646970667358221220e6141b0d8a41f9eb271d8da451237e2c48f56cd1d3cea99b7cb61557ebbcbe7364736f6c634300081e0033', \n     arguments: [\n     ]\n}).send({\n     from: web3.eth.accounts[0], \n     gas: '4700000'\n   }, function (e, contract){\n    console.log(e, contract);\n    if (typeof contract.address !== 'undefined') {\n         console.log('Contract mined! address: ' + contract.address + ' transactionHash: ' + contract.transactionHash);\n    }\n })",
	"functionHashes": {
		"b6b55f25": "deposit(uint256)",
		"fc7e286d": "deposits(address)",
		"52608f7f": "getDepositDetails(address)",
		"3ccfd60b": "withdraw()"
	},
	"gasEstimates": {
		"Creation": {
			"codeDepositCost": "323600",
			"executionCost": "360",
			"totalCost": "323960"
		},
		"External": {
			"deposit(uint256)": "infinite",
			"deposits(address)": "infinite",
			"getDepositDetails(address)": "infinite",
			"withdraw()": "infinite"
		}
	},
	"devdoc": {
		"kind": "dev",
		"methods": {},
		"version": 1
	},
	"userdoc": {
		"kind": "user",
		"methods": {},
		"version": 1
	},
	"Runtime Bytecode": {
		"immutableReferences": {},
		"linkReferences": {},
		"object": "60806040526004361061003e575f3560e01c80633ccfd60b1461004257806352608f7f14610058578063b6b55f2514610095578063fc7e286d146100b1575b5f5ffd5b34801561004d575f5ffd5b506100566100ee565b005b348015610063575f5ffd5b5061007e600480360381019061007991906103b5565b610210565b60405161008c9291906103f8565b60405180910390f35b6100af60048036038101906100aa9190610449565b610282565b005b3480156100bc575f5ffd5b506100d760048036038101906100d291906103b5565b610338565b6040516100e59291906103f8565b60405180910390f35b5f5f5f3373ffffffffffffffffffffffffffffffffffffffff1673ffffffffffffffffffffffffffffffffffffffff1681526020019081526020015f2090505f815f015411610172576040517f08c379a0000000000000000000000000000000000000000000000000000000008152600401610169906104ce565b60405180910390fd5b80600101544210156101b9576040517f08c379a00000000000000000000000000000000000000000000000000000000081526004016101b090610536565b60405180910390fd5b5f815f015490505f825f01819055503373ffffffffffffffffffffffffffffffffffffffff166108fc8290811502906040515f60405180830381858888f1935050505015801561020b573d5f5f3e3d5ffd5b505050565b5f5f5f5f5f8573ffffffffffffffffffffffffffffffffffffffff1673ffffffffffffffffffffffffffffffffffffffff1681526020019081526020015f206040518060400160405290815f82015481526020016001820154815250509050805f015181602001519250925050915091565b5f34116102c4576040517f08c379a00000000000000000000000000000000000000000000000000000000081526004016102bb9061059e565b60405180910390fd5b604051806040016040528034815260200182426102e191906105e9565b8152505f5f3373ffffffffffffffffffffffffffffffffffffffff1673ffffffffffffffffffffffffffffffffffffffff1681526020019081526020015f205f820151815f01556020820151816001015590505050565b5f602052805f5260405f205f91509050805f0154908060010154905082565b5f5ffd5b5f73ffffffffffffffffffffffffffffffffffffffff82169050919050565b5f6103848261035b565b9050919050565b6103948161037a565b811461039e575f5ffd5b50565b5f813590506103af8161038b565b92915050565b5f602082840312156103ca576103c9610357565b5b5f6103d7848285016103a1565b91505092915050565b5f819050919050565b6103f2816103e0565b82525050565b5f60408201905061040b5f8301856103e9565b61041860208301846103e9565b9392505050565b610428816103e0565b8114610432575f5ffd5b50565b5f813590506104438161041f565b92915050565b5f6020828403121561045e5761045d610357565b5b5f61046b84828501610435565b91505092915050565b5f82825260208201905092915050565b7f4e6f2066756e647320746f2077697468647261770000000000000000000000005f82015250565b5f6104b8601483610474565b91506104c382610484565b602082019050919050565b5f6020820190508181035f8301526104e5816104ac565b9050919050565b7f46756e647320617265207374696c6c206c6f636b6564000000000000000000005f82015250565b5f610520601683610474565b915061052b826104ec565b602082019050919050565b5f6020820190508181035f83015261054d81610514565b9050919050565b7f4d757374206465706f73697420736f6d652045746865720000000000000000005f82015250565b5f610588601783610474565b915061059382610554565b602082019050919050565b5f6020820190508181035f8301526105b58161057c565b9050919050565b7f4e487b71000000000000000000000000000000000000000000000000000000005f52601160045260245ffd5b5f6105f3826103e0565b91506105fe836103e0565b9250828201905080821115610616576106156105bc565b5b9291505056fea2646970667358221220e6141b0d8a41f9eb271d8da451237e2c48f56cd1d3cea99b7cb61557ebbcbe7364736f6c634300081e0033",
		"opcodes": "PUSH1 0x80 PUSH1 0x40 MSTORE PUSH1 0x4 CALLDATASIZE LT PUSH2 0x3E JUMPI PUSH0 CALLDATALOAD PUSH1 0xE0 SHR DUP1 PUSH4 0x3CCFD60B EQ PUSH2 0x42 JUMPI DUP1 PUSH4 0x52608F7F EQ PUSH2 0x58 JUMPI DUP1 PUSH4 0xB6B55F25 EQ PUSH2 0x95 JUMPI DUP1 PUSH4 0xFC7E286D EQ PUSH2 0xB1 JUMPI JUMPDEST PUSH0 PUSH0 REVERT JUMPDEST CALLVALUE DUP1 ISZERO PUSH2 0x4D JUMPI PUSH0 PUSH0 REVERT JUMPDEST POP PUSH2 0x56 PUSH2 0xEE JUMP JUMPDEST STOP JUMPDEST CALLVALUE DUP1 ISZERO PUSH2 0x63 JUMPI PUSH0 PUSH0 REVERT JUMPDEST POP PUSH2 0x7E PUSH1 0x4 DUP1 CALLDATASIZE SUB DUP2 ADD SWAP1 PUSH2 0x79 SWAP2 SWAP1 PUSH2 0x3B5 JUMP JUMPDEST PUSH2 0x210 JUMP JUMPDEST PUSH1 0x40 MLOAD PUSH2 0x8C SWAP3 SWAP2 SWAP1 PUSH2 0x3F8 JUMP JUMPDEST PUSH1 0x40 MLOAD DUP1 SWAP2 SUB SWAP1 RETURN JUMPDEST PUSH2 0xAF PUSH1 0x4 DUP1 CALLDATASIZE SUB DUP2 ADD SWAP1 PUSH2 0xAA SWAP2 SWAP1 PUSH2 0x449 JUMP JUMPDEST PUSH2 0x282 JUMP JUMPDEST STOP JUMPDEST CALLVALUE DUP1 ISZERO PUSH2 0xBC JUMPI PUSH0 PUSH0 REVERT JUMPDEST POP PUSH2 0xD7 PUSH1 0x4 DUP1 CALLDATASIZE SUB DUP2 ADD SWAP1 PUSH2 0xD2 SWAP2 SWAP1 PUSH2 0x3B5 JUMP JUMPDEST PUSH2 0x338 JUMP JUMPDEST PUSH1 0x40 MLOAD PUSH2 0xE5 SWAP3 SWAP2 SWAP1 PUSH2 0x3F8 JUMP JUMPDEST PUSH1 0x40 MLOAD DUP1 SWAP2 SUB SWAP1 RETURN JUMPDEST PUSH0 PUSH0 PUSH0 CALLER PUSH20 0xFFFFFFFFFFFFFFFFFFFFFFFFFFFFFFFFFFFFFFFF AND PUSH20 0xFFFFFFFFFFFFFFFFFFFFFFFFFFFFFFFFFFFFFFFF AND DUP2 MSTORE PUSH1 0x20 ADD SWAP1 DUP2 MSTORE PUSH1 0x20 ADD PUSH0 KECCAK256 SWAP1 POP PUSH0 DUP2 PUSH0 ADD SLOAD GT PUSH2 0x172 JUMPI PUSH1 0x40 MLOAD PUSH32 0x8C379A000000000000000000000000000000000000000000000000000000000 DUP2 MSTORE PUSH1 0x4 ADD PUSH2 0x169 SWAP1 PUSH2 0x4CE JUMP JUMPDEST PUSH1 0x40 MLOAD DUP1 SWAP2 SUB SWAP1 REVERT JUMPDEST DUP1 PUSH1 0x1 ADD SLOAD TIMESTAMP LT ISZERO PUSH2 0x1B9 JUMPI PUSH1 0x40 MLOAD PUSH32 0x8C379A000000000000000000000000000000000000000000000000000000000 DUP2 MSTORE PUSH1 0x4 ADD PUSH2 0x1B0 SWAP1 PUSH2 0x536 JUMP JUMPDEST PUSH1 0x40 MLOAD DUP1 SWAP2 SUB SWAP1 REVERT JUMPDEST PUSH0 DUP2 PUSH0 ADD SLOAD SWAP1 POP PUSH0 DUP3 PUSH0 ADD DUP2 SWAP1 SSTORE POP CALLER PUSH20 0xFFFFFFFFFFFFFFFFFFFFFFFFFFFFFFFFFFFFFFFF AND PUSH2 0x8FC DUP3 SWAP1 DUP2 ISZERO MUL SWAP1 PUSH1 0x40 MLOAD PUSH0 PUSH1 0x40 MLOAD DUP1 DUP4 SUB DUP2 DUP6 DUP9 DUP9 CALL SWAP4 POP POP POP POP ISZERO DUP1 ISZERO PUSH2 0x20B JUMPI RETURNDATASIZE PUSH0 PUSH0 RETURNDATACOPY RETURNDATASIZE PUSH0 REVERT JUMPDEST POP POP POP JUMP JUMPDEST PUSH0 PUSH0 PUSH0 PUSH0 PUSH0 DUP6 PUSH20 0xFFFFFFFFFFFFFFFFFFFFFFFFFFFFFFFFFFFFFFFF AND PUSH20 0xFFFFFFFFFFFFFFFFFFFFFFFFFFFFFFFFFFFFFFFF AND DUP2 MSTORE PUSH1 0x20 ADD SWAP1 DUP2 MSTORE PUSH1 0x20 ADD PUSH0 KECCAK256 PUSH1 0x40 MLOAD DUP1 PUSH1 0x40 ADD PUSH1 0x40 MSTORE SWAP1 DUP2 PUSH0 DUP3 ADD SLOAD DUP2 MSTORE PUSH1 0x20 ADD PUSH1 0x1 DUP3 ADD SLOAD DUP2 MSTORE POP POP SWAP1 POP DUP1 PUSH0 ADD MLOAD DUP2 PUSH1 0x20 ADD MLOAD SWAP3 POP SWAP3 POP POP SWAP2 POP SWAP2 JUMP JUMPDEST PUSH0 CALLVALUE GT PUSH2 0x2C4 JUMPI PUSH1 0x40 MLOAD PUSH32 0x8C379A000000000000000000000000000000000000000000000000000000000 DUP2 MSTORE PUSH1 0x4 ADD PUSH2 0x2BB SWAP1 PUSH2 0x59E JUMP JUMPDEST PUSH1 0x40 MLOAD DUP1 SWAP2 SUB SWAP1 REVERT JUMPDEST PUSH1 0x40 MLOAD DUP1 PUSH1 0x40 ADD PUSH1 0x40 MSTORE DUP1 CALLVALUE DUP2 MSTORE PUSH1 0x20 ADD DUP3 TIMESTAMP PUSH2 0x2E1 SWAP2 SWAP1 PUSH2 0x5E9 JUMP JUMPDEST DUP2 MSTORE POP PUSH0 PUSH0 CALLER PUSH20 0xFFFFFFFFFFFFFFFFFFFFFFFFFFFFFFFFFFFFFFFF AND PUSH20 0xFFFFFFFFFFFFFFFFFFFFFFFFFFFFFFFFFFFFFFFF AND DUP2 MSTORE PUSH1 0x20 ADD SWAP1 DUP2 MSTORE PUSH1 0x20 ADD PUSH0 KECCAK256 PUSH0 DUP3 ADD MLOAD DUP2 PUSH0 ADD SSTORE PUSH1 0x20 DUP3 ADD MLOAD DUP2 PUSH1 0x1 ADD SSTORE SWAP1 POP POP POP JUMP JUMPDEST PUSH0 PUSH1 0x20 MSTORE DUP1 PUSH0 MSTORE PUSH1 0x40 PUSH0 KECCAK256 PUSH0 SWAP2 POP SWAP1 POP DUP1 PUSH0 ADD SLOAD SWAP1 DUP1 PUSH1 0x1 ADD SLOAD SWAP1 POP DUP3 JUMP JUMPDEST PUSH0 PUSH0 REVERT JUMPDEST PUSH0 PUSH20 0xFFFFFFFFFFFFFFFFFFFFFFFFFFFFFFFFFFFFFFFF DUP3 AND SWAP1 POP SWAP2 SWAP1 POP JUMP JUMPDEST PUSH0 PUSH2 0x384 DUP3 PUSH2 0x35B JUMP JUMPDEST SWAP1 POP SWAP2 SWAP1 POP JUMP JUMPDEST PUSH2 0x394 DUP2 PUSH2 0x37A JUMP JUMPDEST DUP2 EQ PUSH2 0x39E JUMPI PUSH0 PUSH0 REVERT JUMPDEST POP JUMP JUMPDEST PUSH0 DUP2 CALLDATALOAD SWAP1 POP PUSH2 0x3AF DUP2 PUSH2 0x38B JUMP JUMPDEST SWAP3 SWAP2 POP POP JUMP JUMPDEST PUSH0 PUSH1 0x20 DUP3 DUP5 SUB SLT ISZERO PUSH2 0x3CA JUMPI PUSH2 0x3C9 PUSH2 0x357 JUMP JUMPDEST JUMPDEST PUSH0 PUSH2 0x3D7 DUP5 DUP3 DUP6 ADD PUSH2 0x3A1 JUMP JUMPDEST SWAP2 POP POP SWAP3 SWAP2 POP POP JUMP JUMPDEST PUSH0 DUP2 SWAP1 POP SWAP2 SWAP1 POP JUMP JUMPDEST PUSH2 0x3F2 DUP2 PUSH2 0x3E0 JUMP JUMPDEST DUP3 MSTORE POP POP JUMP JUMPDEST PUSH0 PUSH1 0x40 DUP3 ADD SWAP1 POP PUSH2 0x40B PUSH0 DUP4 ADD DUP6 PUSH2 0x3E9 JUMP JUMPDEST PUSH2 0x418 PUSH1 0x20 DUP4 ADD DUP5 PUSH2 0x3E9 JUMP JUMPDEST SWAP4 SWAP3 POP POP POP JUMP JUMPDEST PUSH2 0x428 DUP2 PUSH2 0x3E0 JUMP JUMPDEST DUP2 EQ PUSH2 0x432 JUMPI PUSH0 PUSH0 REVERT JUMPDEST POP JUMP JUMPDEST PUSH0 DUP2 CALLDATALOAD SWAP1 POP PUSH2 0x443 DUP2 PUSH2 0x41F JUMP JUMPDEST SWAP3 SWAP2 POP POP JUMP JUMPDEST PUSH0 PUSH1 0x20 DUP3 DUP5 SUB SLT ISZERO PUSH2 0x45E JUMPI PUSH2 0x45D PUSH2 0x357 JUMP JUMPDEST JUMPDEST PUSH0 PUSH2 0x46B DUP5 DUP3 DUP6 ADD PUSH2 0x435 JUMP JUMPDEST SWAP2 POP POP SWAP3 SWAP2 POP POP JUMP JUMPDEST PUSH0 DUP3 DUP3 MSTORE PUSH1 0x20 DUP3 ADD SWAP1 POP SWAP3 SWAP2 POP POP JUMP JUMPDEST PUSH32 0x4E6F2066756E647320746F207769746864726177000000000000000000000000 PUSH0 DUP3 ADD MSTORE POP JUMP JUMPDEST PUSH0 PUSH2 0x4B8 PUSH1 0x14 DUP4 PUSH2 0x474 JUMP JUMPDEST SWAP2 POP PUSH2 0x4C3 DUP3 PUSH2 0x484 JUMP JUMPDEST PUSH1 0x20 DUP3 ADD SWAP1 POP SWAP2 SWAP1 POP JUMP JUMPDEST PUSH0 PUSH1 0x20 DUP3 ADD SWAP1 POP DUP2 DUP2 SUB PUSH0 DUP4 ADD MSTORE PUSH2 0x4E5 DUP2 PUSH2 0x4AC JUMP JUMPDEST SWAP1 POP SWAP2 SWAP1 POP JUMP JUMPDEST PUSH32 0x46756E647320617265207374696C6C206C6F636B656400000000000000000000 PUSH0 DUP3 ADD MSTORE POP JUMP JUMPDEST PUSH0 PUSH2 0x520 PUSH1 0x16 DUP4 PUSH2 0x474 JUMP JUMPDEST SWAP2 POP PUSH2 0x52B DUP3 PUSH2 0x4EC JUMP JUMPDEST PUSH1 0x20 DUP3 ADD SWAP1 POP SWAP2 SWAP1 POP JUMP JUMPDEST PUSH0 PUSH1 0x20 DUP3 ADD SWAP1 POP DUP2 DUP2 SUB PUSH0 DUP4 ADD MSTORE PUSH2 0x54D DUP2 PUSH2 0x514 JUMP JUMPDEST SWAP1 POP SWAP2 SWAP1 POP JUMP JUMPDEST PUSH32 0x4D757374206465706F73697420736F6D65204574686572000000000000000000 PUSH0 DUP3 ADD MSTORE POP JUMP JUMPDEST PUSH0 PUSH2 0x588 PUSH1 0x17 DUP4 PUSH2 0x474 JUMP JUMPDEST SWAP2 POP PUSH2 0x593 DUP3 PUSH2 0x554 JUMP JUMPDEST PUSH1 0x20 DUP3 ADD SWAP1 POP SWAP2 SWAP1 POP JUMP JUMPDEST PUSH0 PUSH1 0x20 DUP3 ADD SWAP1 POP DUP2 DUP2 SUB PUSH0 DUP4 ADD MSTORE PUSH2 0x5B5 DUP2 PUSH2 0x57C JUMP JUMPDEST SWAP1 POP SWAP2 SWAP1 POP JUMP JUMPDEST PUSH32 0x4E487B7100000000000000000000000000000000000000000000000000000000 PUSH0 MSTORE PUSH1 0x11 PUSH1 0x4 MSTORE PUSH1 0x24 PUSH0 REVERT JUMPDEST PUSH0 PUSH2 0x5F3 DUP3 PUSH2 0x3E0 JUMP JUMPDEST SWAP2 POP PUSH2 0x5FE DUP4 PUSH2 0x3E0 JUMP JUMPDEST SWAP3 POP DUP3 DUP3 ADD SWAP1 POP DUP1 DUP3 GT ISZERO PUSH2 0x616 JUMPI PUSH2 0x615 PUSH2 0x5BC JUMP JUMPDEST JUMPDEST SWAP3 SWAP2 POP POP JUMP INVALID LOG2 PUSH5 0x6970667358 0x22 SLT KECCAK256 DUPN 0x14 SHL 0xD DUP11 COINBASE EXTDELEGATECALL 0xEB 0x27 SAR DUP14 LOG4 MLOAD 0x23 PUSH31 0x2C48F56CD1D3CEA99B7CB61557EBBCBE7364736F6C634300081E0033000000 "
	},
	"Assembly": ".code\n  PUSH 80\t\t\tcontract CryptoLock {\\r\\n    s...\n  PUSH 40\t\t\tcontract CryptoLock {\\r\\n    s...\n  MSTORE \t\t\tcontract CryptoLock {\\r\\n    s...\n  CALLVALUE \t\t\tcontract CryptoLock {\\r\\n    s...\n  DUP1 \t\t\tcontract CryptoLock {\\r\\n    s...\n  ISZERO \t\t\tcontract CryptoLock {\\r\\n    s...\n  PUSH [tag] 1\t\t\tcontract CryptoLock {\\r\\n    s...\n  JUMPI \t\t\tcontract CryptoLock {\\r\\n    s...\n  PUSH 0\t\t\tcontract CryptoLock {\\r\\n    s...\n  PUSH 0\t\t\tcontract CryptoLock {\\r\\n    s...\n  REVERT \t\t\tcontract CryptoLock {\\r\\n    s...\ntag 1\t\t\tcontract CryptoLock {\\r\\n    s...\n  JUMPDEST \t\t\tcontract CryptoLock {\\r\\n    s...\n  POP \t\t\tcontract CryptoLock {\\r\\n    s...\n  PUSH #[$] 0000000000000000000000000000000000000000000000000000000000000000\t\t\tcontract CryptoLock {\\r\\n    s...\n  DUP1 \t\t\tcontract CryptoLock {\\r\\n    s...\n  PUSH [$] 0000000000000000000000000000000000000000000000000000000000000000\t\t\tcontract CryptoLock {\\r\\n    s...\n  PUSH 0\t\t\tcontract CryptoLock {\\r\\n    s...\n  CODECOPY \t\t\tcontract CryptoLock {\\r\\n    s...\n  PUSH 0\t\t\tcontract CryptoLock {\\r\\n    s...\n  RETURN \t\t\tcontract CryptoLock {\\r\\n    s...\n.data\n  0:\n    .code\n      PUSH 80\t\t\tcontract CryptoLock {\\r\\n    s...\n      PUSH 40\t\t\tcontract CryptoLock {\\r\\n    s...\n      MSTORE \t\t\tcontract CryptoLock {\\r\\n    s...\n      PUSH 4\t\t\tcontract CryptoLock {\\r\\n    s...\n      CALLDATASIZE \t\t\tcontract CryptoLock {\\r\\n    s...\n      LT \t\t\tcontract CryptoLock {\\r\\n    s...\n      PUSH [tag] 1\t\t\tcontract CryptoLock {\\r\\n    s...\n      JUMPI \t\t\tcontract CryptoLock {\\r\\n    s...\n      PUSH 0\t\t\tcontract CryptoLock {\\r\\n    s...\n      CALLDATALOAD \t\t\tcontract CryptoLock {\\r\\n    s...\n      PUSH E0\t\t\tcontract CryptoLock {\\r\\n    s...\n      SHR \t\t\tcontract CryptoLock {\\r\\n    s...\n      DUP1 \t\t\tcontract CryptoLock {\\r\\n    s...\n      PUSH 3CCFD60B\t\t\tcontract CryptoLock {\\r\\n    s...\n      EQ \t\t\tcontract CryptoLock {\\r\\n    s...\n      PUSH [tag] 2\t\t\tcontract CryptoLock {\\r\\n    s...\n      JUMPI \t\t\tcontract CryptoLock {\\r\\n    s...\n      DUP1 \t\t\tcontract CryptoLock {\\r\\n    s...\n      PUSH 52608F7F\t\t\tcontract CryptoLock {\\r\\n    s...\n      EQ \t\t\tcontract CryptoLock {\\r\\n    s...\n      PUSH [tag] 3\t\t\tcontract CryptoLock {\\r\\n    s...\n      JUMPI \t\t\tcontract CryptoLock {\\r\\n    s...\n      DUP1 \t\t\tcontract CryptoLock {\\r\\n    s...\n      PUSH B6B55F25\t\t\tcontract CryptoLock {\\r\\n    s...\n      EQ \t\t\tcontract CryptoLock {\\r\\n    s...\n      PUSH [tag] 4\t\t\tcontract CryptoLock {\\r\\n    s...\n      JUMPI \t\t\tcontract CryptoLock {\\r\\n    s...\n      DUP1 \t\t\tcontract CryptoLock {\\r\\n    s...\n      PUSH FC7E286D\t\t\tcontract CryptoLock {\\r\\n    s...\n      EQ \t\t\tcontract CryptoLock {\\r\\n    s...\n      PUSH [tag] 5\t\t\tcontract CryptoLock {\\r\\n    s...\n      JUMPI \t\t\tcontract CryptoLock {\\r\\n    s...\n    tag 1\t\t\tcontract CryptoLock {\\r\\n    s...\n      JUMPDEST \t\t\tcontract CryptoLock {\\r\\n    s...\n      PUSH 0\t\t\tcontract CryptoLock {\\r\\n    s...\n      PUSH 0\t\t\tcontract CryptoLock {\\r\\n    s...\n      REVERT \t\t\tcontract CryptoLock {\\r\\n    s...\n    tag 2\t\t\ttion withdraw() external {\\r\\n...\n      JUMPDEST \t\t\ttion withdraw() external {\\r\\n...\n      CALLVALUE \t\t\ttion withdraw() external {\\r\\n...\n      DUP1 \t\t\ttion withdraw() external {\\r\\n...\n      ISZERO \t\t\ttion withdraw() external {\\r\\n...\n      PUSH [tag] 6\t\t\ttion withdraw() external {\\r\\n...\n      JUMPI \t\t\ttion withdraw() external {\\r\\n...\n      PUSH 0\t\t\ttion withdraw() external {\\r\\n...\n      PUSH 0\t\t\ttion withdraw() external {\\r\\n...\n      REVERT \t\t\ttion withdraw() external {\\r\\n...\n    tag 6\t\t\ttion withdraw() external {\\r\\n...\n      JUMPDEST \t\t\ttion withdraw() external {\\r\\n...\n      POP \t\t\ttion withdraw() external {\\r\\n...\n      PUSH [tag] 7\t\t\ttion withdraw() external {\\r\\n...\n      PUSH [tag] 8\t\t\ttion withdraw() external {\\r\\n...\n      JUMP \t\t\ttion withdraw() external {\\r\\n...\n    tag 7\t\t\ttion withdraw() external {\\r\\n...\n      JUMPDEST \t\t\ttion withdraw() external {\\r\\n...\n      STOP \t\t\ttion withdraw() external {\\r\\n...\n    tag 3\t\t\ton getDepositDetails(address _...\n      JUMPDEST \t\t\ton getDepositDetails(address _...\n      CALLVALUE \t\t\ton getDepositDetails(address _...\n      DUP1 \t\t\ton getDepositDetails(address _...\n      ISZERO \t\t\ton getDepositDetails(address _...\n      PUSH [tag] 9\t\t\ton getDepositDetails(address _...\n      JUMPI \t\t\ton getDepositDetails(address _...\n      PUSH 0\t\t\ton getDepositDetails(address _...\n      PUSH 0\t\t\ton getDepositDetails(address _...\n      REVERT \t\t\ton getDepositDetails(address _...\n    tag 9\t\t\ton getDepositDetails(address _...\n      JUMPDEST \t\t\ton getDepositDetails(address _...\n      POP \t\t\ton getDepositDetails(address _...\n      PUSH [tag] 10\t\t\ton getDepositDetails(address _...\n      PUSH 4\t\t\ton getDepositDetails(address _...\n      DUP1 \t\t\ton getDepositDetails(address _...\n      CALLDATASIZE \t\t\ton getDepositDetails(address _...\n      SUB \t\t\ton getDepositDetails(address _...\n      DUP2 \t\t\ton getDepositDetails(address _...\n      ADD \t\t\ton getDepositDetails(address _...\n      SWAP1 \t\t\ton getDepositDetails(address _...\n      PUSH [tag] 11\t\t\ton getDepositDetails(address _...\n      SWAP2 \t\t\ton getDepositDetails(address _...\n      SWAP1 \t\t\ton getDepositDetails(address _...\n      PUSH [tag] 12\t\t\ton getDepositDetails(address _...\n      JUMP \t\t\ton getDepositDetails(address _...\n    tag 11\t\t\ton getDepositDetails(address _...\n      JUMPDEST \t\t\ton getDepositDetails(address _...\n      PUSH [tag] 13\t\t\ton getDepositDetails(address _...\n      JUMP \t\t\ton getDepositDetails(address _...\n    tag 10\t\t\ton getDepositDetails(address _...\n      JUMPDEST \t\t\ton getDepositDetails(address _...\n      PUSH 40\t\t\ton getDepositDetails(address _...\n      MLOAD \t\t\ton getDepositDetails(address _...\n      PUSH [tag] 14\t\t\ton getDepositDetails(address _...\n      SWAP3 \t\t\ton getDepositDetails(address _...\n      SWAP2 \t\t\ton getDepositDetails(address _...\n      SWAP1 \t\t\ton getDepositDetails(address _...\n      PUSH [tag] 15\t\t\ton getDepositDetails(address _...\n      JUMP \t\t\ton getDepositDetails(address _...\n    tag 14\t\t\ton getDepositDetails(address _...\n      JUMPDEST \t\t\ton getDepositDetails(address _...\n      PUSH 40\t\t\ton getDepositDetails(address _...\n      MLOAD \t\t\ton getDepositDetails(address _...\n      DUP1 \t\t\ton getDepositDetails(address _...\n      SWAP2 \t\t\ton getDepositDetails(address _...\n      SUB \t\t\ton getDepositDetails(address _...\n      SWAP1 \t\t\ton getDepositDetails(address _...\n      RETURN \t\t\ton getDepositDetails(address _...\n    tag 4\t\t\tnction deposit(uint _lockTimeI...\n      JUMPDEST \t\t\tnction deposit(uint _lockTimeI...\n      PUSH [tag] 16\t\t\tnction deposit(uint _lockTimeI...\n      PUSH 4\t\t\tnction deposit(uint _lockTimeI...\n      DUP1 \t\t\tnction deposit(uint _lockTimeI...\n      CALLDATASIZE \t\t\tnction deposit(uint _lockTimeI...\n      SUB \t\t\tnction deposit(uint _lockTimeI...\n      DUP2 \t\t\tnction deposit(uint _lockTimeI...\n      ADD \t\t\tnction deposit(uint _lockTimeI...\n      SWAP1 \t\t\tnction deposit(uint _lockTimeI...\n      PUSH [tag] 17\t\t\tnction deposit(uint _lockTimeI...\n      SWAP2 \t\t\tnction deposit(uint _lockTimeI...\n      SWAP1 \t\t\tnction deposit(uint _lockTimeI...\n      PUSH [tag] 18\t\t\tnction deposit(uint _lockTimeI...\n      JUMP \t\t\tnction deposit(uint _lockTimeI...\n    tag 17\t\t\tnction deposit(uint _lockTimeI...\n      JUMPDEST \t\t\tnction deposit(uint _lockTimeI...\n      PUSH [tag] 19\t\t\tnction deposit(uint _lockTimeI...\n      JUMP \t\t\tnction deposit(uint _lockTimeI...\n    tag 16\t\t\tnction deposit(uint _lockTimeI...\n      JUMPDEST \t\t\tnction deposit(uint _lockTimeI...\n      STOP \t\t\tnction deposit(uint _lockTimeI...\n    tag 5\t\t\tmapping(address => Deposit) pu...\n      JUMPDEST \t\t\tmapping(address => Deposit) pu...\n      CALLVALUE \t\t\tmapping(address => Deposit) pu...\n      DUP1 \t\t\tmapping(address => Deposit) pu...\n      ISZERO \t\t\tmapping(address => Deposit) pu...\n      PUSH [tag] 20\t\t\tmapping(address => Deposit) pu...\n      JUMPI \t\t\tmapping(address => Deposit) pu...\n      PUSH 0\t\t\tmapping(address => Deposit) pu...\n      PUSH 0\t\t\tmapping(address => Deposit) pu...\n      REVERT \t\t\tmapping(address => Deposit) pu...\n    tag 20\t\t\tmapping(address => Deposit) pu...\n      JUMPDEST \t\t\tmapping(address => Deposit) pu...\n      POP \t\t\tmapping(address => Deposit) pu...\n      PUSH [tag] 21\t\t\tmapping(address => Deposit) pu...\n      PUSH 4\t\t\tmapping(address => Deposit) pu...\n      DUP1 \t\t\tmapping(address => Deposit) pu...\n      CALLDATASIZE \t\t\tmapping(address => Deposit) pu...\n      SUB \t\t\tmapping(address => Deposit) pu...\n      DUP2 \t\t\tmapping(address => Deposit) pu...\n      ADD \t\t\tmapping(address => Deposit) pu...\n      SWAP1 \t\t\tmapping(address => Deposit) pu...\n      PUSH [tag] 22\t\t\tmapping(address => Deposit) pu...\n      SWAP2 \t\t\tmapping(address => Deposit) pu...\n      SWAP1 \t\t\tmapping(address => Deposit) pu...\n      PUSH [tag] 12\t\t\tmapping(address => Deposit) pu...\n      JUMP \t\t\tmapping(address => Deposit) pu...\n    tag 22\t\t\tmapping(address => Deposit) pu...\n      JUMPDEST \t\t\tmapping(address => Deposit) pu...\n      PUSH [tag] 23\t\t\tmapping(address => Deposit) pu...\n      JUMP \t\t\tmapping(address => Deposit) pu...\n    tag 21\t\t\tmapping(address => Deposit) pu...\n      JUMPDEST \t\t\tmapping(address => Deposit) pu...\n      PUSH 40\t\t\tmapping(address => Deposit) pu...\n      MLOAD \t\t\tmapping(address => Deposit) pu...\n      PUSH [tag] 24\t\t\tmapping(address => Deposit) pu...\n      SWAP3 \t\t\tmapping(address => Deposit) pu...\n      SWAP2 \t\t\tmapping(address => Deposit) pu...\n      SWAP1 \t\t\tmapping(address => Deposit) pu...\n      PUSH [tag] 15\t\t\tmapping(address => Deposit) pu...\n      JUMP \t\t\tmapping(address => Deposit) pu...\n    tag 24\t\t\tmapping(address => Deposit) pu...\n      JUMPDEST \t\t\tmapping(address => Deposit) pu...\n      PUSH 40\t\t\tmapping(address => Deposit) pu...\n      MLOAD \t\t\tmapping(address => Deposit) pu...\n      DUP1 \t\t\tmapping(address => Deposit) pu...\n      SWAP2 \t\t\tmapping(address => Deposit) pu...\n      SUB \t\t\tmapping(address => Deposit) pu...\n      SWAP1 \t\t\tmapping(address => Deposit) pu...\n      RETURN \t\t\tmapping(address => Deposit) pu...\n    tag 8\t\t\ttion withdraw() external {\\r\\n...\n      JUMPDEST \t\t\ttion withdraw() external {\\r\\n...\n      PUSH 0\t\t\tsit storage userDeposit = d\n      PUSH 0\t\t\tsits[msg\n      PUSH 0\t\t\tsits[msg.sender];\\r\\n\\r\n      CALLER \t\t\tsender];\\r\\n\n      PUSH FFFFFFFFFFFFFFFFFFFFFFFFFFFFFFFFFFFFFFFF\t\t\tsits[msg.sender];\\r\\n\\r\n      AND \t\t\tsits[msg.sender];\\r\\n\\r\n      PUSH FFFFFFFFFFFFFFFFFFFFFFFFFFFFFFFFFFFFFFFF\t\t\tsits[msg.sender];\\r\\n\\r\n      AND \t\t\tsits[msg.sender];\\r\\n\\r\n      DUP2 \t\t\tsits[msg.sender];\\r\\n\\r\n      MSTORE \t\t\tsits[msg.sender];\\r\\n\\r\n      PUSH 20\t\t\tsits[msg.sender];\\r\\n\\r\n      ADD \t\t\tsits[msg.sender];\\r\\n\\r\n      SWAP1 \t\t\tsits[msg.sender];\\r\\n\\r\n      DUP2 \t\t\tsits[msg.sender];\\r\\n\\r\n      MSTORE \t\t\tsits[msg.sender];\\r\\n\\r\n      PUSH 20\t\t\tsits[msg.sender];\\r\\n\\r\n      ADD \t\t\tsits[msg.sender];\\r\\n\\r\n      PUSH 0\t\t\tsits[msg.sender];\\r\\n\\r\n      KECCAK256 \t\t\tsits[msg.sender];\\r\\n\\r\n      SWAP1 \t\t\tsit storage userDeposit = depo...\n      POP \t\t\tsit storage userDeposit = depo...\n      PUSH 0\t\t\tN\n      DUP2 \t\t\tDeposit.amo\n      PUSH 0\t\t\tDeposit.amount > 0\n      ADD \t\t\tDeposit.amount > 0\n      SLOAD \t\t\tDeposit.amount > 0\n      GT \t\t\tDeposit.amount > 0, \"N\n      PUSH [tag] 26\t\t\tire(userDeposit.amount > 0, \"N...\n      JUMPI \t\t\tire(userDeposit.amount > 0, \"N...\n      PUSH 40\t\t\tire(userDeposit.amount > 0, \"N...\n      MLOAD \t\t\tire(userDeposit.amount > 0, \"N...\n      PUSH 8C379A000000000000000000000000000000000000000000000000000000000\t\t\tire(userDeposit.amount > 0, \"N...\n      DUP2 \t\t\tire(userDeposit.amount > 0, \"N...\n      MSTORE \t\t\tire(userDeposit.amount > 0, \"N...\n      PUSH 4\t\t\tire(userDeposit.amount > 0, \"N...\n      ADD \t\t\tire(userDeposit.amount > 0, \"N...\n      PUSH [tag] 27\t\t\tire(userDeposit.amount > 0, \"N...\n      SWAP1 \t\t\tire(userDeposit.amount > 0, \"N...\n      PUSH [tag] 28\t\t\tire(userDeposit.amount > 0, \"N...\n      JUMP \t\t\tire(userDeposit.amount > 0, \"N...\n    tag 27\t\t\tire(userDeposit.amount > 0, \"N...\n      JUMPDEST \t\t\tire(userDeposit.amount > 0, \"N...\n      PUSH 40\t\t\tire(userDeposit.amount > 0, \"N...\n      MLOAD \t\t\tire(userDeposit.amount > 0, \"N...\n      DUP1 \t\t\tire(userDeposit.amount > 0, \"N...\n      SWAP2 \t\t\tire(userDeposit.amount > 0, \"N...\n      SUB \t\t\tire(userDeposit.amount > 0, \"N...\n      SWAP1 \t\t\tire(userDeposit.amount > 0, \"N...\n      REVERT \t\t\tire(userDeposit.amount > 0, \"N...\n    tag 26\t\t\tire(userDeposit.amount > 0, \"N...\n      JUMPDEST \t\t\tire(userDeposit.amount > 0, \"N...\n      DUP1 \t\t\tDeposit.unl\n      PUSH 1\t\t\tDeposit.unlockTime, \"F\n      ADD \t\t\tDeposit.unlockTime, \"F\n      SLOAD \t\t\tDeposit.unlockTime, \"F\n      TIMESTAMP \t\t\tk.timestamp >= \n      LT \t\t\tk.timestamp >= userDeposit.unl...\n      ISZERO \t\t\tk.timestamp >= userDeposit.unl...\n      PUSH [tag] 29\t\t\tire(block.timestamp >= userDep...\n      JUMPI \t\t\tire(block.timestamp >= userDep...\n      PUSH 40\t\t\tire(block.timestamp >= userDep...\n      MLOAD \t\t\tire(block.timestamp >= userDep...\n      PUSH 8C379A000000000000000000000000000000000000000000000000000000000\t\t\tire(block.timestamp >= userDep...\n      DUP2 \t\t\tire(block.timestamp >= userDep...\n      MSTORE \t\t\tire(block.timestamp >= userDep...\n      PUSH 4\t\t\tire(block.timestamp >= userDep...\n      ADD \t\t\tire(block.timestamp >= userDep...\n      PUSH [tag] 30\t\t\tire(block.timestamp >= userDep...\n      SWAP1 \t\t\tire(block.timestamp >= userDep...\n      PUSH [tag] 31\t\t\tire(block.timestamp >= userDep...\n      JUMP \t\t\tire(block.timestamp >= userDep...\n    tag 30\t\t\tire(block.timestamp >= userDep...\n      JUMPDEST \t\t\tire(block.timestamp >= userDep...\n      PUSH 40\t\t\tire(block.timestamp >= userDep...\n      MLOAD \t\t\tire(block.timestamp >= userDep...\n      DUP1 \t\t\tire(block.timestamp >= userDep...\n      SWAP2 \t\t\tire(block.timestamp >= userDep...\n      SUB \t\t\tire(block.timestamp >= userDep...\n      SWAP1 \t\t\tire(block.timestamp >= userDep...\n      REVERT \t\t\tire(block.timestamp >= userDep...\n    tag 29\t\t\tire(block.timestamp >= userDep...\n      JUMPDEST \t\t\tire(block.timestamp >= userDep...\n      PUSH 0\t\t\t amount = u\n      DUP2 \t\t\tDeposit.amo\n      PUSH 0\t\t\tDeposit.amount;\\r\\n\\r\n      ADD \t\t\tDeposit.amount;\\r\\n\\r\n      SLOAD \t\t\tDeposit.amount;\\r\\n\\r\n      SWAP1 \t\t\t amount = userDeposit.amount;\\...\n      POP \t\t\t amount = userDeposit.amount;\\...\n      PUSH 0\t\t\t\\r\n      DUP3 \t\t\tDeposit.amo\n      PUSH 0\t\t\tDeposit.amount = 0\n      ADD \t\t\tDeposit.amount = 0\n      DUP2 \t\t\tDeposit.amount = 0;\\r\\n\\r\n      SWAP1 \t\t\tDeposit.amount = 0;\\r\\n\\r\n      SSTORE \t\t\tDeposit.amount = 0;\\r\\n\\r\n      POP \t\t\tDeposit.amount = 0;\\r\\n\\r\n      CALLER \t\t\tsender).tr\n      PUSH FFFFFFFFFFFFFFFFFFFFFFFFFFFFFFFFFFFFFFFF\t\t\tble(msg.sender).transfer(amo\n      AND \t\t\tble(msg.sender).transfer(amo\n      PUSH 8FC\t\t\tble(msg.sender).transfer(amoun...\n      DUP3 \t\t\tnt);\\r\\n\n      SWAP1 \t\t\tble(msg.sender).transfer(amoun...\n      DUP2 \t\t\tble(msg.sender).transfer(amoun...\n      ISZERO \t\t\tble(msg.sender).transfer(amoun...\n      MUL \t\t\tble(msg.sender).transfer(amoun...\n      SWAP1 \t\t\tble(msg.sender).transfer(amoun...\n      PUSH 40\t\t\tble(msg.sender).transfer(amoun...\n      MLOAD \t\t\tble(msg.sender).transfer(amoun...\n      PUSH 0\t\t\tble(msg.sender).transfer(amoun...\n      PUSH 40\t\t\tble(msg.sender).transfer(amoun...\n      MLOAD \t\t\tble(msg.sender).transfer(amoun...\n      DUP1 \t\t\tble(msg.sender).transfer(amoun...\n      DUP4 \t\t\tble(msg.sender).transfer(amoun...\n      SUB \t\t\tble(msg.sender).transfer(amoun...\n      DUP2 \t\t\tble(msg.sender).transfer(amoun...\n      DUP6 \t\t\tble(msg.sender).transfer(amoun...\n      DUP9 \t\t\tble(msg.sender).transfer(amoun...\n      DUP9 \t\t\tble(msg.sender).transfer(amoun...\n      CALL \t\t\tble(msg.sender).transfer(amoun...\n      SWAP4 \t\t\tble(msg.sender).transfer(amoun...\n      POP \t\t\tble(msg.sender).transfer(amoun...\n      POP \t\t\tble(msg.sender).transfer(amoun...\n      POP \t\t\tble(msg.sender).transfer(amoun...\n      POP \t\t\tble(msg.sender).transfer(amoun...\n      ISZERO \t\t\tble(msg.sender).transfer(amoun...\n      DUP1 \t\t\tble(msg.sender).transfer(amoun...\n      ISZERO \t\t\tble(msg.sender).transfer(amoun...\n      PUSH [tag] 33\t\t\tble(msg.sender).transfer(amoun...\n      JUMPI \t\t\tble(msg.sender).transfer(amoun...\n      RETURNDATASIZE \t\t\tble(msg.sender).transfer(amoun...\n      PUSH 0\t\t\tble(msg.sender).transfer(amoun...\n      PUSH 0\t\t\tble(msg.sender).transfer(amoun...\n      RETURNDATACOPY \t\t\tble(msg.sender).transfer(amoun...\n      RETURNDATASIZE \t\t\tble(msg.sender).transfer(amoun...\n      PUSH 0\t\t\tble(msg.sender).transfer(amoun...\n      REVERT \t\t\tble(msg.sender).transfer(amoun...\n    tag 33\t\t\tble(msg.sender).transfer(amoun...\n      JUMPDEST \t\t\tble(msg.sender).transfer(amoun...\n      POP \t\t\tble(msg.sender).transfer(amoun...\n      POP \t\t\t       Deposit storage userDep...\n      POP \t\t\t       Deposit storage userDep...\n      JUMP \t\t\ttion withdraw() external {\\r\\n...\n    tag 13\t\t\ton getDepositDetails(address _...\n      JUMPDEST \t\t\ton getDepositDetails(address _...\n      PUSH 0\t\t\tmount, uint\n      PUSH 0\t\t\tnlockTime) {\\r\\n \n      PUSH 0\t\t\tt memory d = dep\n      PUSH 0\t\t\tts[_user\n      PUSH 0\t\t\tts[_user];\\r\\n   \n      DUP6 \t\t\t;\\r\\n  \n      PUSH FFFFFFFFFFFFFFFFFFFFFFFFFFFFFFFFFFFFFFFF\t\t\tts[_user];\\r\\n   \n      AND \t\t\tts[_user];\\r\\n   \n      PUSH FFFFFFFFFFFFFFFFFFFFFFFFFFFFFFFFFFFFFFFF\t\t\tts[_user];\\r\\n   \n      AND \t\t\tts[_user];\\r\\n   \n      DUP2 \t\t\tts[_user];\\r\\n   \n      MSTORE \t\t\tts[_user];\\r\\n   \n      PUSH 20\t\t\tts[_user];\\r\\n   \n      ADD \t\t\tts[_user];\\r\\n   \n      SWAP1 \t\t\tts[_user];\\r\\n   \n      DUP2 \t\t\tts[_user];\\r\\n   \n      MSTORE \t\t\tts[_user];\\r\\n   \n      PUSH 20\t\t\tts[_user];\\r\\n   \n      ADD \t\t\tts[_user];\\r\\n   \n      PUSH 0\t\t\tts[_user];\\r\\n   \n      KECCAK256 \t\t\tts[_user];\\r\\n   \n      PUSH 40\t\t\tt memory d = deposits[_user];\\...\n      MLOAD \t\t\tt memory d = deposits[_user];\\...\n      DUP1 \t\t\tt memory d = deposits[_user];\\...\n      PUSH 40\t\t\tt memory d = deposits[_user];\\...\n      ADD \t\t\tt memory d = deposits[_user];\\...\n      PUSH 40\t\t\tt memory d = deposits[_user];\\...\n      MSTORE \t\t\tt memory d = deposits[_user];\\...\n      SWAP1 \t\t\tt memory d = deposits[_user];\\...\n      DUP2 \t\t\tt memory d = deposits[_user];\\...\n      PUSH 0\t\t\tt memory d = deposits[_user];\\...\n      DUP3 \t\t\tt memory d = deposits[_user];\\...\n      ADD \t\t\tt memory d = deposits[_user];\\...\n      SLOAD \t\t\tt memory d = deposits[_user];\\...\n      DUP2 \t\t\tt memory d = deposits[_user];\\...\n      MSTORE \t\t\tt memory d = deposits[_user];\\...\n      PUSH 20\t\t\tt memory d = deposits[_user];\\...\n      ADD \t\t\tt memory d = deposits[_user];\\...\n      PUSH 1\t\t\tt memory d = deposits[_user];\\...\n      DUP3 \t\t\tt memory d = deposits[_user];\\...\n      ADD \t\t\tt memory d = deposits[_user];\\...\n      SLOAD \t\t\tt memory d = deposits[_user];\\...\n      DUP2 \t\t\tt memory d = deposits[_user];\\...\n      MSTORE \t\t\tt memory d = deposits[_user];\\...\n      POP \t\t\tt memory d = deposits[_user];\\...\n      POP \t\t\tt memory d = deposits[_user];\\...\n      SWAP1 \t\t\tt memory d = deposits[_user];\\...\n      POP \t\t\tt memory d = deposits[_user];\\...\n      DUP1 \t\t\tn\n      PUSH 0\t\t\tnt, d.un\n      ADD \t\t\tnt, d.un\n      MLOAD \t\t\tnt, d.un\n      DUP2 \t\t\tc\n      PUSH 20\t\t\tckTime);\\r\\n  \n      ADD \t\t\tckTime);\\r\\n  \n      MLOAD \t\t\tckTime);\\r\\n  \n      SWAP3 \t\t\t (d.amount, d.unlockTime);\\r\\n...\n      POP \t\t\t (d.amount, d.unlockTime);\\r\\n...\n      SWAP3 \t\t\t (d.amount, d.unlockTime);\\r\\n...\n      POP \t\t\t (d.amount, d.unlockTime);\\r\\n...\n      POP \t\t\t (d.amount, d.unlockTime);\\r\\n...\n      SWAP2 \t\t\ton getDepositDetails(address _...\n      POP \t\t\ton getDepositDetails(address _...\n      SWAP2 \t\t\ton getDepositDetails(address _...\n      JUMP \t\t\ton getDepositDetails(address _...\n    tag 19\t\t\tnction deposit(uint _lockTimeI...\n      JUMPDEST \t\t\tnction deposit(uint _lockTimeI...\n      PUSH 0\t\t\t \n      CALLVALUE \t\t\tg.value >\n      GT \t\t\tg.value > 0, \n      PUSH [tag] 36\t\t\tquire(msg.value > 0, \"Must dep...\n      JUMPI \t\t\tquire(msg.value > 0, \"Must dep...\n      PUSH 40\t\t\tquire(msg.value > 0, \"Must dep...\n      MLOAD \t\t\tquire(msg.value > 0, \"Must dep...\n      PUSH 8C379A000000000000000000000000000000000000000000000000000000000\t\t\tquire(msg.value > 0, \"Must dep...\n      DUP2 \t\t\tquire(msg.value > 0, \"Must dep...\n      MSTORE \t\t\tquire(msg.value > 0, \"Must dep...\n      PUSH 4\t\t\tquire(msg.value > 0, \"Must dep...\n      ADD \t\t\tquire(msg.value > 0, \"Must dep...\n      PUSH [tag] 37\t\t\tquire(msg.value > 0, \"Must dep...\n      SWAP1 \t\t\tquire(msg.value > 0, \"Must dep...\n      PUSH [tag] 38\t\t\tquire(msg.value > 0, \"Must dep...\n      JUMP \t\t\tquire(msg.value > 0, \"Must dep...\n    tag 37\t\t\tquire(msg.value > 0, \"Must dep...\n      JUMPDEST \t\t\tquire(msg.value > 0, \"Must dep...\n      PUSH 40\t\t\tquire(msg.value > 0, \"Must dep...\n      MLOAD \t\t\tquire(msg.value > 0, \"Must dep...\n      DUP1 \t\t\tquire(msg.value > 0, \"Must dep...\n      SWAP2 \t\t\tquire(msg.value > 0, \"Must dep...\n      SUB \t\t\tquire(msg.value > 0, \"Must dep...\n      SWAP1 \t\t\tquire(msg.value > 0, \"Must dep...\n      REVERT \t\t\tquire(msg.value > 0, \"Must dep...\n    tag 36\t\t\tquire(msg.value > 0, \"Must dep...\n      JUMPDEST \t\t\tquire(msg.value > 0, \"Must dep...\n      PUSH 40\t\t\tposit({\\r\\n            amount:...\n      MLOAD \t\t\tposit({\\r\\n            amount:...\n      DUP1 \t\t\tposit({\\r\\n            amount:...\n      PUSH 40\t\t\tposit({\\r\\n            amount:...\n      ADD \t\t\tposit({\\r\\n            amount:...\n      PUSH 40\t\t\tposit({\\r\\n            amount:...\n      MSTORE \t\t\tposit({\\r\\n            amount:...\n      DUP1 \t\t\tposit({\\r\\n            amount:...\n      CALLVALUE \t\t\tg.value,\\r\n      DUP2 \t\t\tposit({\\r\\n            amount:...\n      MSTORE \t\t\tposit({\\r\\n            amount:...\n      PUSH 20\t\t\tposit({\\r\\n            amount:...\n      ADD \t\t\tposit({\\r\\n            amount:...\n      DUP3 \t\t\tockTimeInSeconds\\r\\n\n      TIMESTAMP \t\t\tock.timestamp +\n      PUSH [tag] 39\t\t\tock.timestamp + _lockTimeInSec...\n      SWAP2 \t\t\tock.timestamp + _lockTimeInSec...\n      SWAP1 \t\t\tock.timestamp + _lockTimeInSec...\n      PUSH [tag] 40\t\t\tock.timestamp + _lockTimeInSec...\n      JUMP \t\t\tock.timestamp + _lockTimeInSec...\n    tag 39\t\t\tock.timestamp + _lockTimeInSec...\n      JUMPDEST \t\t\tock.timestamp + _lockTimeInSec...\n      DUP2 \t\t\tposit({\\r\\n            amount:...\n      MSTORE \t\t\tposit({\\r\\n            amount:...\n      POP \t\t\tposit({\\r\\n            amount:...\n      PUSH 0\t\t\tposits[m\n      PUSH 0\t\t\tposits[msg.sender] =\n      CALLER \t\t\tg.sender] \n      PUSH FFFFFFFFFFFFFFFFFFFFFFFFFFFFFFFFFFFFFFFF\t\t\tposits[msg.sender] =\n      AND \t\t\tposits[msg.sender] =\n      PUSH FFFFFFFFFFFFFFFFFFFFFFFFFFFFFFFFFFFFFFFF\t\t\tposits[msg.sender] =\n      AND \t\t\tposits[msg.sender] =\n      DUP2 \t\t\tposits[msg.sender] =\n      MSTORE \t\t\tposits[msg.sender] =\n      PUSH 20\t\t\tposits[msg.sender] =\n      ADD \t\t\tposits[msg.sender] =\n      SWAP1 \t\t\tposits[msg.sender] =\n      DUP2 \t\t\tposits[msg.sender] =\n      MSTORE \t\t\tposits[msg.sender] =\n      PUSH 20\t\t\tposits[msg.sender] =\n      ADD \t\t\tposits[msg.sender] =\n      PUSH 0\t\t\tposits[msg.sender] =\n      KECCAK256 \t\t\tposits[msg.sender] =\n      PUSH 0\t\t\tposits[msg.sender] = Deposit({...\n      DUP3 \t\t\tposits[msg.sender] = Deposit({...\n      ADD \t\t\tposits[msg.sender] = Deposit({...\n      MLOAD \t\t\tposits[msg.sender] = Deposit({...\n      DUP2 \t\t\tposits[msg.sender] = Deposit({...\n      PUSH 0\t\t\tposits[msg.sender] = Deposit({...\n      ADD \t\t\tposits[msg.sender] = Deposit({...\n      SSTORE \t\t\tposits[msg.sender] = Deposit({...\n      PUSH 20\t\t\tposits[msg.sender] = Deposit({...\n      DUP3 \t\t\tposits[msg.sender] = Deposit({...\n      ADD \t\t\tposits[msg.sender] = Deposit({...\n      MLOAD \t\t\tposits[msg.sender] = Deposit({...\n      DUP2 \t\t\tposits[msg.sender] = Deposit({...\n      PUSH 1\t\t\tposits[msg.sender] = Deposit({...\n      ADD \t\t\tposits[msg.sender] = Deposit({...\n      SSTORE \t\t\tposits[msg.sender] = Deposit({...\n      SWAP1 \t\t\tposits[msg.sender] = Deposit({...\n      POP \t\t\tposits[msg.sender] = Deposit({...\n      POP \t\t\tposits[msg.sender] = Deposit({...\n      POP \t\t\tnction deposit(uint _lockTimeI...\n      JUMP \t\t\tnction deposit(uint _lockTimeI...\n    tag 23\t\t\tmapping(address => Deposit) pu...\n      JUMPDEST \t\t\tmapping(address => Deposit) pu...\n      PUSH 0\t\t\tmapping(address => Deposit) pu...\n      PUSH 20\t\t\tmapping(address => Deposit) pu...\n      MSTORE \t\t\tmapping(address => Deposit) pu...\n      DUP1 \t\t\tmapping(address => Deposit) pu...\n      PUSH 0\t\t\tmapping(address => Deposit) pu...\n      MSTORE \t\t\tmapping(address => Deposit) pu...\n      PUSH 40\t\t\tmapping(address => Deposit) pu...\n      PUSH 0\t\t\tmapping(address => Deposit) pu...\n      KECCAK256 \t\t\tmapping(address => Deposit) pu...\n      PUSH 0\t\t\tmapping(address => Deposit) pu...\n      SWAP2 \t\t\tmapping(address => Deposit) pu...\n      POP \t\t\tmapping(address => Deposit) pu...\n      SWAP1 \t\t\tmapping(address => Deposit) pu...\n      POP \t\t\tmapping(address => Deposit) pu...\n      DUP1 \t\t\tmapping(address => Deposit) pu...\n      PUSH 0\t\t\tmapping(address => Deposit) pu...\n      ADD \t\t\tmapping(address => Deposit) pu...\n      SLOAD \t\t\tmapping(address => Deposit) pu...\n      SWAP1 \t\t\tmapping(address => Deposit) pu...\n      DUP1 \t\t\tmapping(address => Deposit) pu...\n      PUSH 1\t\t\tmapping(address => Deposit) pu...\n      ADD \t\t\tmapping(address => Deposit) pu...\n      SLOAD \t\t\tmapping(address => Deposit) pu...\n      SWAP1 \t\t\tmapping(address => Deposit) pu...\n      POP \t\t\tmapping(address => Deposit) pu...\n      DUP3 \t\t\tmapping(address => Deposit) pu...\n      JUMP \t\t\tmapping(address => Deposit) pu...\n    tag 42\t\t\ttruct Deposit {\\r\\n        uin...\n      JUMPDEST \t\t\ttruct Deposit {\\r\\n        uin...\n      PUSH 0\t\t\tu\n      PUSH 0\t\t\te\n      REVERT \t\t\t  // When us\n    tag 44\t\t\t deposit(uint _lockTimeInSecon...\n      JUMPDEST \t\t\t deposit(uint _lockTimeInSecon...\n      PUSH 0\t\t\ternal p\n      PUSH FFFFFFFFFFFFFFFFFFFFFFFFFFFFFFFFFFFFFFFF\t\t\tue > 0, \"Must deposit some Eth...\n      DUP3 \t\t\tmsg.v\n      AND \t\t\tire(msg.value > 0, \"Must depos...\n      SWAP1 \t\t\t       require(msg.value > 0, ...\n      POP \t\t\t       require(msg.value > 0, ...\n      SWAP2 \t\t\t deposit(uint _lockTimeInSecon...\n      SWAP1 \t\t\t deposit(uint _lockTimeInSecon...\n      POP \t\t\t deposit(uint _lockTimeInSecon...\n      JUMP \t\t\t deposit(uint _lockTimeInSecon...\n    tag 45\t\t\tdeposit info\\r\\n        deposi...\n      JUMPDEST \t\t\tdeposit info\\r\\n        deposi...\n      PUSH 0\t\t\tnder] =\n      PUSH [tag] 66\t\t\t  amount: msg.value,\\r\\n  \n      DUP3 \t\t\te,\\r\\n \n      PUSH [tag] 44\t\t\t  amount: msg.value,\\r\\n  \n      JUMP \t\t\t  amount: msg.value,\\r\\n  \n    tag 66\t\t\t  amount: msg.value,\\r\\n  \n      JUMPDEST \t\t\t  amount: msg.value,\\r\\n  \n      SWAP1 \t\t\t\\n            amount: msg.valu...\n      POP \t\t\t\\n            amount: msg.valu...\n      SWAP2 \t\t\tdeposit info\\r\\n        deposi...\n      SWAP1 \t\t\tdeposit info\\r\\n        deposi...\n      POP \t\t\tdeposit info\\r\\n        deposi...\n      JUMP \t\t\tdeposit info\\r\\n        deposi...\n    tag 46\t\t\tlockTime: block.timestamp + _l...\n      JUMPDEST \t\t\tlockTime: block.timestamp + _l...\n      PUSH [tag] 68\t\t\t // ✅ Withdraw function \n      DUP2 \t\t\tction\n      PUSH [tag] 45\t\t\t // ✅ Withdraw function \n      JUMP \t\t\t // ✅ Withdraw function \n    tag 68\t\t\t // ✅ Withdraw function \n      JUMPDEST \t\t\t // ✅ Withdraw function \n      DUP2 \t\t\t\\r\\n\\r\\n \n      EQ \t\t\t  }\\r\\n\\r\\n    // ✅ Withdraw f...\n      PUSH [tag] 69\t\t\t   });\\r\\n    }\\r\\n\\r\\n    // ...\n      JUMPI \t\t\t   });\\r\\n    }\\r\\n\\r\\n    // ...\n      PUSH 0\t\t\t\\r\n      PUSH 0\t\t\ti\n      REVERT \t\t\t lock time\\r\\n\n    tag 69\t\t\t   });\\r\\n    }\\r\\n\\r\\n    // ...\n      JUMPDEST \t\t\t   });\\r\\n    }\\r\\n\\r\\n    // ...\n      POP \t\t\tlockTime: block.timestamp + _l...\n      JUMP \t\t\tlockTime: block.timestamp + _l...\n    tag 47\t\t\tithdraw() external {\\r\\n      ...\n      JUMPDEST \t\t\tithdraw() external {\\r\\n      ...\n      PUSH 0\t\t\tuserD\n      DUP2 \t\t\t\\n     \n      CALLDATALOAD \t\t\tg.sender];\\r\\n\\r\\n      \n      SWAP1 \t\t\tposits[msg.sender];\\r\\n\\r\\n   ...\n      POP \t\t\tposits[msg.sender];\\r\\n\\r\\n   ...\n      PUSH [tag] 71\t\t\t(userDeposit.amount > 0, \"No f...\n      DUP2 \t\t\to fun\n      PUSH [tag] 46\t\t\t(userDeposit.amount > 0, \"No f...\n      JUMP \t\t\t(userDeposit.amount > 0, \"No f...\n    tag 71\t\t\t(userDeposit.amount > 0, \"No f...\n      JUMPDEST \t\t\t(userDeposit.amount > 0, \"No f...\n      SWAP3 \t\t\tithdraw() external {\\r\\n      ...\n      SWAP2 \t\t\tithdraw() external {\\r\\n      ...\n      POP \t\t\tithdraw() external {\\r\\n      ...\n      POP \t\t\tithdraw() external {\\r\\n      ...\n      JUMP \t\t\tithdraw() external {\\r\\n      ...\n    tag 12\t\t\tw\");\\r\\n        require(block....\n      JUMPDEST \t\t\tw\");\\r\\n        require(block....\n      PUSH 0\t\t\tTime, \n      PUSH 20\t\t\tam\n      DUP3 \t\t\t       ui\n      DUP5 \t\t\td\");\\r\\n\\r\n      SUB \t\t\tocked\");\\r\\n\\r\\n        uin\n      SLT \t\t\tll locked\");\\r\\n\\r\\n        ui...\n      ISZERO \t\t\tstill locked\");\\r\\n\\r\\n       ...\n      PUSH [tag] 73\t\t\tstill locked\");\\r\\n\\r\\n       ...\n      JUMPI \t\t\tstill locked\");\\r\\n\\r\\n       ...\n      PUSH [tag] 74\t\t\t = userDeposit.amount;\\r\\n\\r\\n...\n      PUSH [tag] 42\t\t\t = userDeposit.amount;\\r\\n\\r\\n...\n      JUMP \t\t\t = userDeposit.amount;\\r\\n\\r\\n...\n    tag 74\t\t\t = userDeposit.amount;\\r\\n\\r\\n...\n      JUMPDEST \t\t\t = userDeposit.amount;\\r\\n\\r\\n...\n    tag 73\t\t\tstill locked\");\\r\\n\\r\\n       ...\n      JUMPDEST \t\t\tstill locked\");\\r\\n\\r\\n       ...\n      PUSH 0\t\t\tp\n      PUSH [tag] 75\t\t\t    // Transfer Ether to user\\...\n      DUP5 \t\t\te(msg.s\n      DUP3 \t\t\t   pay\n      DUP6 \t\t\tuser\\r\\n   \n      ADD \t\t\t to user\\r\\n        paya\n      PUSH [tag] 47\t\t\t    // Transfer Ether to user\\...\n      JUMP \t\t\t    // Transfer Ether to user\\...\n    tag 75\t\t\t    // Transfer Ether to user\\...\n      JUMPDEST \t\t\t    // Transfer Ether to user\\...\n      SWAP2 \t\t\t0;\\r\\n\\r\\n        // Transfer ...\n      POP \t\t\t0;\\r\\n\\r\\n        // Transfer ...\n      POP \t\t\trancy attack)\\r\\n        userD...\n      SWAP3 \t\t\tw\");\\r\\n        require(block....\n      SWAP2 \t\t\tw\");\\r\\n        require(block....\n      POP \t\t\tw\");\\r\\n        require(block....\n      POP \t\t\tw\");\\r\\n        require(block....\n      JUMP \t\t\tw\");\\r\\n        require(block....\n    tag 48\t\t\t\\r\\n    }\\r\\n\\r\\n    // ✅ Chec...\n      JUMPDEST \t\t\t\\r\\n    }\\r\\n\\r\\n    // ✅ Chec...\n      PUSH 0\t\t\tt detai\n      DUP2 \t\t\tposit\n      SWAP1 \t\t\tction getDeposit\n      POP \t\t\tction getDeposit\n      SWAP2 \t\t\t\\r\\n    }\\r\\n\\r\\n    // ✅ Chec...\n      SWAP1 \t\t\t\\r\\n    }\\r\\n\\r\\n    // ✅ Chec...\n      POP \t\t\t\\r\\n    }\\r\\n\\r\\n    // ✅ Chec...\n      JUMP \t\t\t\\r\\n    }\\r\\n\\r\\n    // ✅ Chec...\n    tag 49\t\t\tess _user) external view retur...\n      JUMPDEST \t\t\tess _user) external view retur...\n      PUSH [tag] 78\t\t\try d = deposits[_user];\\r\n      DUP2 \t\t\tser];\n      PUSH [tag] 48\t\t\try d = deposits[_user];\\r\n      JUMP \t\t\try d = deposits[_user];\\r\n    tag 78\t\t\try d = deposits[_user];\\r\n      JUMPDEST \t\t\try d = deposits[_user];\\r\n      DUP3 \t\t\t me\n      MSTORE \t\t\tDeposit memory d = deposits[_u...\n      POP \t\t\tess _user) external view retur...\n      POP \t\t\tess _user) external view retur...\n      JUMP \t\t\tess _user) external view retur...\n    tag 15\t\t\trn (d.amount, d.unlockTime);\\r...\n      JUMPDEST \t\t\trn (d.amount, d.unlockTime);\\r...\n      PUSH 0\t\t\t\n      PUSH 40\t\t\t\n      DUP3 \t\t\t\n      ADD \t\t\t\n      SWAP1 \t\t\t\n      POP \t\t\t\n      PUSH [tag] 80\t\t\t\n      PUSH 0\t\t\t\n      DUP4 \t\t\t\n      ADD \t\t\t\n      DUP6 \t\t\t\n      PUSH [tag] 49\t\t\t\n      JUMP \t\t\t\n    tag 80\t\t\t\n      JUMPDEST \t\t\t\n      PUSH [tag] 81\t\t\t\n      PUSH 20\t\t\t\n      DUP4 \t\t\t\n      ADD \t\t\t\n      DUP5 \t\t\t\n      PUSH [tag] 49\t\t\t\n      JUMP \t\t\t\n    tag 81\t\t\t\n      JUMPDEST \t\t\t\n      SWAP4 \t\t\trn (d.amount, d.unlockTime);\\r...\n      SWAP3 \t\t\trn (d.amount, d.unlockTime);\\r...\n      POP \t\t\trn (d.amount, d.unlockTime);\\r...\n      POP \t\t\trn (d.amount, d.unlockTime);\\r...\n      POP \t\t\trn (d.amount, d.unlockTime);\\r...\n      JUMP \t\t\trn (d.amount, d.unlockTime);\\r...\n    tag 50\t\t\t\n      JUMPDEST \t\t\t\n      PUSH [tag] 83\t\t\t\n      DUP2 \t\t\t\n      PUSH [tag] 48\t\t\t\n      JUMP \t\t\t\n    tag 83\t\t\t\n      JUMPDEST \t\t\t\n      DUP2 \t\t\t\n      EQ \t\t\t\n      PUSH [tag] 84\t\t\t\n      JUMPI \t\t\t\n      PUSH 0\t\t\t\n      PUSH 0\t\t\t\n      REVERT \t\t\t\n    tag 84\t\t\t\n      JUMPDEST \t\t\t\n      POP \t\t\t\n      JUMP \t\t\t\n    tag 51\t\t\t\n      JUMPDEST \t\t\t\n      PUSH 0\t\t\t\n      DUP2 \t\t\t\n      CALLDATALOAD \t\t\t\n      SWAP1 \t\t\t\n      POP \t\t\t\n      PUSH [tag] 86\t\t\t\n      DUP2 \t\t\t\n      PUSH [tag] 50\t\t\t\n      JUMP \t\t\t\n    tag 86\t\t\t\n      JUMPDEST \t\t\t\n      SWAP3 \t\t\t\n      SWAP2 \t\t\t\n      POP \t\t\t\n      POP \t\t\t\n      JUMP \t\t\t\n    tag 18\t\t\t\n      JUMPDEST \t\t\t\n      PUSH 0\t\t\t\n      PUSH 20\t\t\t\n      DUP3 \t\t\t\n      DUP5 \t\t\t\n      SUB \t\t\t\n      SLT \t\t\t\n      ISZERO \t\t\t\n      PUSH [tag] 88\t\t\t\n      JUMPI \t\t\t\n      PUSH [tag] 89\t\t\t\n      PUSH [tag] 42\t\t\t\n      JUMP \t\t\t\n    tag 89\t\t\t\n      JUMPDEST \t\t\t\n    tag 88\t\t\t\n      JUMPDEST \t\t\t\n      PUSH 0\t\t\t\n      PUSH [tag] 90\t\t\t\n      DUP5 \t\t\t\n      DUP3 \t\t\t\n      DUP6 \t\t\t\n      ADD \t\t\t\n      PUSH [tag] 51\t\t\t\n      JUMP \t\t\t\n    tag 90\t\t\t\n      JUMPDEST \t\t\t\n      SWAP2 \t\t\t\n      POP \t\t\t\n      POP \t\t\t\n      SWAP3 \t\t\t\n      SWAP2 \t\t\t\n      POP \t\t\t\n      POP \t\t\t\n      JUMP \t\t\t\n    tag 52\t\t\t\n      JUMPDEST \t\t\t\n      PUSH 0\t\t\t\n      DUP3 \t\t\t\n      DUP3 \t\t\t\n      MSTORE \t\t\t\n      PUSH 20\t\t\t\n      DUP3 \t\t\t\n      ADD \t\t\t\n      SWAP1 \t\t\t\n      POP \t\t\t\n      SWAP3 \t\t\t\n      SWAP2 \t\t\t\n      POP \t\t\t\n      POP \t\t\t\n      JUMP \t\t\t\n    tag 53\t\t\t\n      JUMPDEST \t\t\t\n      PUSH 4E6F2066756E647320746F207769746864726177000000000000000000000000\t\t\t\n      PUSH 0\t\t\t\n      DUP3 \t\t\t\n      ADD \t\t\t\n      MSTORE \t\t\t\n      POP \t\t\t\n      JUMP \t\t\t\n    tag 54\t\t\t\n      JUMPDEST \t\t\t\n      PUSH 0\t\t\t\n      PUSH [tag] 94\t\t\t\n      PUSH 14\t\t\t\n      DUP4 \t\t\t\n      PUSH [tag] 52\t\t\t\n      JUMP \t\t\t\n    tag 94\t\t\t\n      JUMPDEST \t\t\t\n      SWAP2 \t\t\t\n      POP \t\t\t\n      PUSH [tag] 95\t\t\t\n      DUP3 \t\t\t\n      PUSH [tag] 53\t\t\t\n      JUMP \t\t\t\n    tag 95\t\t\t\n      JUMPDEST \t\t\t\n      PUSH 20\t\t\t\n      DUP3 \t\t\t\n      ADD \t\t\t\n      SWAP1 \t\t\t\n      POP \t\t\t\n      SWAP2 \t\t\t\n      SWAP1 \t\t\t\n      POP \t\t\t\n      JUMP \t\t\t\n    tag 28\t\t\t\n      JUMPDEST \t\t\t\n      PUSH 0\t\t\t\n      PUSH 20\t\t\t\n      DUP3 \t\t\t\n      ADD \t\t\t\n      SWAP1 \t\t\t\n      POP \t\t\t\n      DUP2 \t\t\t\n      DUP2 \t\t\t\n      SUB \t\t\t\n      PUSH 0\t\t\t\n      DUP4 \t\t\t\n      ADD \t\t\t\n      MSTORE \t\t\t\n      PUSH [tag] 97\t\t\t\n      DUP2 \t\t\t\n      PUSH [tag] 54\t\t\t\n      JUMP \t\t\t\n    tag 97\t\t\t\n      JUMPDEST \t\t\t\n      SWAP1 \t\t\t\n      POP \t\t\t\n      SWAP2 \t\t\t\n      SWAP1 \t\t\t\n      POP \t\t\t\n      JUMP \t\t\t\n    tag 55\t\t\t\n      JUMPDEST \t\t\t\n      PUSH 46756E647320617265207374696C6C206C6F636B656400000000000000000000\t\t\t\n      PUSH 0\t\t\t\n      DUP3 \t\t\t\n      ADD \t\t\t\n      MSTORE \t\t\t\n      POP \t\t\t\n      JUMP \t\t\t\n    tag 56\t\t\t\n      JUMPDEST \t\t\t\n      PUSH 0\t\t\t\n      PUSH [tag] 100\t\t\t\n      PUSH 16\t\t\t\n      DUP4 \t\t\t\n      PUSH [tag] 52\t\t\t\n      JUMP \t\t\t\n    tag 100\t\t\t\n      JUMPDEST \t\t\t\n      SWAP2 \t\t\t\n      POP \t\t\t\n      PUSH [tag] 101\t\t\t\n      DUP3 \t\t\t\n      PUSH [tag] 55\t\t\t\n      JUMP \t\t\t\n    tag 101\t\t\t\n      JUMPDEST \t\t\t\n      PUSH 20\t\t\t\n      DUP3 \t\t\t\n      ADD \t\t\t\n      SWAP1 \t\t\t\n      POP \t\t\t\n      SWAP2 \t\t\t\n      SWAP1 \t\t\t\n      POP \t\t\t\n      JUMP \t\t\t\n    tag 31\t\t\t\n      JUMPDEST \t\t\t\n      PUSH 0\t\t\t\n      PUSH 20\t\t\t\n      DUP3 \t\t\t\n      ADD \t\t\t\n      SWAP1 \t\t\t\n      POP \t\t\t\n      DUP2 \t\t\t\n      DUP2 \t\t\t\n      SUB \t\t\t\n      PUSH 0\t\t\t\n      DUP4 \t\t\t\n      ADD \t\t\t\n      MSTORE \t\t\t\n      PUSH [tag] 103\t\t\t\n      DUP2 \t\t\t\n      PUSH [tag] 56\t\t\t\n      JUMP \t\t\t\n    tag 103\t\t\t\n      JUMPDEST \t\t\t\n      SWAP1 \t\t\t\n      POP \t\t\t\n      SWAP2 \t\t\t\n      SWAP1 \t\t\t\n      POP \t\t\t\n      JUMP \t\t\t\n    tag 57\t\t\t\n      JUMPDEST \t\t\t\n      PUSH 4D757374206465706F73697420736F6D65204574686572000000000000000000\t\t\t\n      PUSH 0\t\t\t\n      DUP3 \t\t\t\n      ADD \t\t\t\n      MSTORE \t\t\t\n      POP \t\t\t\n      JUMP \t\t\t\n    tag 58\t\t\t\n      JUMPDEST \t\t\t\n      PUSH 0\t\t\t\n      PUSH [tag] 106\t\t\t\n      PUSH 17\t\t\t\n      DUP4 \t\t\t\n      PUSH [tag] 52\t\t\t\n      JUMP \t\t\t\n    tag 106\t\t\t\n      JUMPDEST \t\t\t\n      SWAP2 \t\t\t\n      POP \t\t\t\n      PUSH [tag] 107\t\t\t\n      DUP3 \t\t\t\n      PUSH [tag] 57\t\t\t\n      JUMP \t\t\t\n    tag 107\t\t\t\n      JUMPDEST \t\t\t\n      PUSH 20\t\t\t\n      DUP3 \t\t\t\n      ADD \t\t\t\n      SWAP1 \t\t\t\n      POP \t\t\t\n      SWAP2 \t\t\t\n      SWAP1 \t\t\t\n      POP \t\t\t\n      JUMP \t\t\t\n    tag 38\t\t\t\n      JUMPDEST \t\t\t\n      PUSH 0\t\t\t\n      PUSH 20\t\t\t\n      DUP3 \t\t\t\n      ADD \t\t\t\n      SWAP1 \t\t\t\n      POP \t\t\t\n      DUP2 \t\t\t\n      DUP2 \t\t\t\n      SUB \t\t\t\n      PUSH 0\t\t\t\n      DUP4 \t\t\t\n      ADD \t\t\t\n      MSTORE \t\t\t\n      PUSH [tag] 109\t\t\t\n      DUP2 \t\t\t\n      PUSH [tag] 58\t\t\t\n      JUMP \t\t\t\n    tag 109\t\t\t\n      JUMPDEST \t\t\t\n      SWAP1 \t\t\t\n      POP \t\t\t\n      SWAP2 \t\t\t\n      SWAP1 \t\t\t\n      POP \t\t\t\n      JUMP \t\t\t\n    tag 59\t\t\t\n      JUMPDEST \t\t\t\n      PUSH 4E487B7100000000000000000000000000000000000000000000000000000000\t\t\t\n      PUSH 0\t\t\t\n      MSTORE \t\t\t\n      PUSH 11\t\t\t\n      PUSH 4\t\t\t\n      MSTORE \t\t\t\n      PUSH 24\t\t\t\n      PUSH 0\t\t\t\n      REVERT \t\t\t\n    tag 40\t\t\t\n      JUMPDEST \t\t\t\n      PUSH 0\t\t\t\n      PUSH [tag] 112\t\t\t\n      DUP3 \t\t\t\n      PUSH [tag] 48\t\t\t\n      JUMP \t\t\t\n    tag 112\t\t\t\n      JUMPDEST \t\t\t\n      SWAP2 \t\t\t\n      POP \t\t\t\n      PUSH [tag] 113\t\t\t\n      DUP4 \t\t\t\n      PUSH [tag] 48\t\t\t\n      JUMP \t\t\t\n    tag 113\t\t\t\n      JUMPDEST \t\t\t\n      SWAP3 \t\t\t\n      POP \t\t\t\n      DUP3 \t\t\t\n      DUP3 \t\t\t\n      ADD \t\t\t\n      SWAP1 \t\t\t\n      POP \t\t\t\n      DUP1 \t\t\t\n      DUP3 \t\t\t\n      GT \t\t\t\n      ISZERO \t\t\t\n      PUSH [tag] 114\t\t\t\n      JUMPI \t\t\t\n      PUSH [tag] 115\t\t\t\n      PUSH [tag] 59\t\t\t\n      JUMP \t\t\t\n    tag 115\t\t\t\n      JUMPDEST \t\t\t\n    tag 114\t\t\t\n      JUMPDEST \t\t\t\n      SWAP3 \t\t\t\n      SWAP2 \t\t\t\n      POP \t\t\t\n      POP \t\t\t\n      JUMP \t\t\t\n    .data\n"
}