{
	"compilerInput": "{\"language\":\"Solidity\",\"sources\":{\"mutlisend.sol\":{\"content\":\"// SPDX-License-Identifier: MIT\\r\\npragma solidity ^0.8.0;\\r\\n\\r\\ncontract MultiSend {\\r\\n    // Function to send Ether to multiple addresses\\r\\n    function multiSend(address payable[] memory recipients) public payable {\\r\\n        uint256 amountPerRecipient = msg.value / recipients.length;\\r\\n\\r\\n        require(amountPerRecipient > 0, \\\"Not enough Ether sent\\\");\\r\\n\\r\\n        for (uint256 i = 0; i < recipients.length; i++) {\\r\\n            // Transfer Ether to each recipient\\r\\n            (bool success, ) = recipients[i].call{value: amountPerRecipient}(\\\"\\\");\\r\\n            require(success, \\\"Transfer failed\\\");\\r\\n        }\\r\\n    }\\r\\n}\\r\\n\"}},\"settings\":{\"optimizer\":{\"enabled\":false,\"runs\":200},\"outputSelection\":{\"*\":{\"\":[\"ast\"],\"*\":[\"abi\",\"metadata\",\"devdoc\",\"userdoc\",\"storageLayout\",\"evm.legacyAssembly\",\"evm.bytecode\",\"evm.deployedBytecode\",\"evm.methodIdentifiers\",\"evm.gasEstimates\",\"evm.assembly\"]}},\"remappings\":[]}}",
	"name": "MultiSend",
	"bytecode": {
		"linkReferences": {},
		"object": "6080604052348015600e575f5ffd5b5061055e8061001c5f395ff3fe60806040526004361061001d575f3560e01c806399d136f514610021575b5f5ffd5b61003b6004803603810190610036919061032d565b61003d565b005b5f81513461004b91906103aa565b90505f811161008f576040517f08c379a000000000000000000000000000000000000000000000000000000000815260040161008690610434565b60405180910390fd5b5f5f90505b825181101561016d575f8382815181106100b1576100b0610452565b5b602002602001015173ffffffffffffffffffffffffffffffffffffffff16836040516100dc906104ac565b5f6040518083038185875af1925050503d805f8114610116576040519150601f19603f3d011682016040523d82523d5f602084013e61011b565b606091505b505090508061015f576040517f08c379a00000000000000000000000000000000000000000000000000000000081526004016101569061050a565b60405180910390fd5b508080600101915050610094565b505050565b5f604051905090565b5f5ffd5b5f5ffd5b5f5ffd5b5f601f19601f8301169050919050565b7f4e487b71000000000000000000000000000000000000000000000000000000005f52604160045260245ffd5b6101cd82610187565b810181811067ffffffffffffffff821117156101ec576101eb610197565b5b80604052505050565b5f6101fe610172565b905061020a82826101c4565b919050565b5f67ffffffffffffffff82111561022957610228610197565b5b602082029050602081019050919050565b5f5ffd5b5f73ffffffffffffffffffffffffffffffffffffffff82169050919050565b5f6102678261023e565b9050919050565b6102778161025d565b8114610281575f5ffd5b50565b5f813590506102928161026e565b92915050565b5f6102aa6102a58461020f565b6101f5565b905080838252602082019050602084028301858111156102cd576102cc61023a565b5b835b818110156102f657806102e28882610284565b8452602084019350506020810190506102cf565b5050509392505050565b5f82601f83011261031457610313610183565b5b8135610324848260208601610298565b91505092915050565b5f602082840312156103425761034161017b565b5b5f82013567ffffffffffffffff81111561035f5761035e61017f565b5b61036b84828501610300565b91505092915050565b5f819050919050565b7f4e487b71000000000000000000000000000000000000000000000000000000005f52601260045260245ffd5b5f6103b482610374565b91506103bf83610374565b9250826103cf576103ce61037d565b5b828204905092915050565b5f82825260208201905092915050565b7f4e6f7420656e6f7567682045746865722073656e7400000000000000000000005f82015250565b5f61041e6015836103da565b9150610429826103ea565b602082019050919050565b5f6020820190508181035f83015261044b81610412565b9050919050565b7f4e487b71000000000000000000000000000000000000000000000000000000005f52603260045260245ffd5b5f81905092915050565b50565b5f6104975f8361047f565b91506104a282610489565b5f82019050919050565b5f6104b68261048c565b9150819050919050565b7f5472616e73666572206661696c656400000000000000000000000000000000005f82015250565b5f6104f4600f836103da565b91506104ff826104c0565b602082019050919050565b5f6020820190508181035f830152610521816104e8565b905091905056fea264697066735822122097b5bfb87854dffa9bfd94932dcd01fd14ab78e1b045bdd319ab689aab2fc94b64736f6c634300081e0033",
		"opcodes": "PUSH1 0x80 PUSH1 0x40 MSTORE CALLVALUE DUP1 ISZERO PUSH1 0xE JUMPI PUSH0 PUSH0 REVERT JUMPDEST POP PUSH2 0x55E DUP1 PUSH2 0x1C PUSH0 CODECOPY PUSH0 RETURN INVALID PUSH1 0x80 PUSH1 0x40 MSTORE PUSH1 0x4 CALLDATASIZE LT PUSH2 0x1D JUMPI PUSH0 CALLDATALOAD PUSH1 0xE0 SHR DUP1 PUSH4 0x99D136F5 EQ PUSH2 0x21 JUMPI JUMPDEST PUSH0 PUSH0 REVERT JUMPDEST PUSH2 0x3B PUSH1 0x4 DUP1 CALLDATASIZE SUB DUP2 ADD SWAP1 PUSH2 0x36 SWAP2 SWAP1 PUSH2 0x32D JUMP JUMPDEST PUSH2 0x3D JUMP JUMPDEST STOP JUMPDEST PUSH0 DUP2 MLOAD CALLVALUE PUSH2 0x4B SWAP2 SWAP1 PUSH2 0x3AA JUMP JUMPDEST SWAP1 POP PUSH0 DUP2 GT PUSH2 0x8F JUMPI PUSH1 0x40 MLOAD PUSH32 0x8C379A000000000000000000000000000000000000000000000000000000000 DUP2 MSTORE PUSH1 0x4 ADD PUSH2 0x86 SWAP1 PUSH2 0x434 JUMP JUMPDEST PUSH1 0x40 MLOAD DUP1 SWAP2 SUB SWAP1 REVERT JUMPDEST PUSH0 PUSH0 SWAP1 POP JUMPDEST DUP3 MLOAD DUP2 LT ISZERO PUSH2 0x16D JUMPI PUSH0 DUP4 DUP3 DUP2 MLOAD DUP2 LT PUSH2 0xB1 JUMPI PUSH2 0xB0 PUSH2 0x452 JUMP JUMPDEST JUMPDEST PUSH1 0x20 MUL PUSH1 0x20 ADD ADD MLOAD PUSH20 0xFFFFFFFFFFFFFFFFFFFFFFFFFFFFFFFFFFFFFFFF AND DUP4 PUSH1 0x40 MLOAD PUSH2 0xDC SWAP1 PUSH2 0x4AC JUMP JUMPDEST PUSH0 PUSH1 0x40 MLOAD DUP1 DUP4 SUB DUP2 DUP6 DUP8 GAS CALL SWAP3 POP POP POP RETURNDATASIZE DUP1 PUSH0 DUP2 EQ PUSH2 0x116 JUMPI PUSH1 0x40 MLOAD SWAP2 POP PUSH1 0x1F NOT PUSH1 0x3F RETURNDATASIZE ADD AND DUP3 ADD PUSH1 0x40 MSTORE RETURNDATASIZE DUP3 MSTORE RETURNDATASIZE PUSH0 PUSH1 0x20 DUP5 ADD RETURNDATACOPY PUSH2 0x11B JUMP JUMPDEST PUSH1 0x60 SWAP2 POP JUMPDEST POP POP SWAP1 POP DUP1 PUSH2 0x15F JUMPI PUSH1 0x40 MLOAD PUSH32 0x8C379A000000000000000000000000000000000000000000000000000000000 DUP2 MSTORE PUSH1 0x4 ADD PUSH2 0x156 SWAP1 PUSH2 0x50A JUMP JUMPDEST PUSH1 0x40 MLOAD DUP1 SWAP2 SUB SWAP1 REVERT JUMPDEST POP DUP1 DUP1 PUSH1 0x1 ADD SWAP2 POP POP PUSH2 0x94 JUMP JUMPDEST POP POP POP JUMP JUMPDEST PUSH0 PUSH1 0x40 MLOAD SWAP1 POP SWAP1 JUMP JUMPDEST PUSH0 PUSH0 REVERT JUMPDEST PUSH0 PUSH0 REVERT JUMPDEST PUSH0 PUSH0 REVERT JUMPDEST PUSH0 PUSH1 0x1F NOT PUSH1 0x1F DUP4 ADD AND SWAP1 POP SWAP2 SWAP1 POP JUMP JUMPDEST PUSH32 0x4E487B7100000000000000000000000000000000000000000000000000000000 PUSH0 MSTORE PUSH1 0x41 PUSH1 0x4 MSTORE PUSH1 0x24 PUSH0 REVERT JUMPDEST PUSH2 0x1CD DUP3 PUSH2 0x187 JUMP JUMPDEST DUP2 ADD DUP2 DUP2 LT PUSH8 0xFFFFFFFFFFFFFFFF DUP3 GT OR ISZERO PUSH2 0x1EC JUMPI PUSH2 0x1EB PUSH2 0x197 JUMP JUMPDEST JUMPDEST DUP1 PUSH1 0x40 MSTORE POP POP POP JUMP JUMPDEST PUSH0 PUSH2 0x1FE PUSH2 0x172 JUMP JUMPDEST SWAP1 POP PUSH2 0x20A DUP3 DUP3 PUSH2 0x1C4 JUMP JUMPDEST SWAP2 SWAP1 POP JUMP JUMPDEST PUSH0 PUSH8 0xFFFFFFFFFFFFFFFF DUP3 GT ISZERO PUSH2 0x229 JUMPI PUSH2 0x228 PUSH2 0x197 JUMP JUMPDEST JUMPDEST PUSH1 0x20 DUP3 MUL SWAP1 POP PUSH1 0x20 DUP2 ADD SWAP1 POP SWAP2 SWAP1 POP JUMP JUMPDEST PUSH0 PUSH0 REVERT JUMPDEST PUSH0 PUSH20 0xFFFFFFFFFFFFFFFFFFFFFFFFFFFFFFFFFFFFFFFF DUP3 AND SWAP1 POP SWAP2 SWAP1 POP JUMP JUMPDEST PUSH0 PUSH2 0x267 DUP3 PUSH2 0x23E JUMP JUMPDEST SWAP1 POP SWAP2 SWAP1 POP JUMP JUMPDEST PUSH2 0x277 DUP2 PUSH2 0x25D JUMP JUMPDEST DUP2 EQ PUSH2 0x281 JUMPI PUSH0 PUSH0 REVERT JUMPDEST POP JUMP JUMPDEST PUSH0 DUP2 CALLDATALOAD SWAP1 POP PUSH2 0x292 DUP2 PUSH2 0x26E JUMP JUMPDEST SWAP3 SWAP2 POP POP JUMP JUMPDEST PUSH0 PUSH2 0x2AA PUSH2 0x2A5 DUP5 PUSH2 0x20F JUMP JUMPDEST PUSH2 0x1F5 JUMP JUMPDEST SWAP1 POP DUP1 DUP4 DUP3 MSTORE PUSH1 0x20 DUP3 ADD SWAP1 POP PUSH1 0x20 DUP5 MUL DUP4 ADD DUP6 DUP2 GT ISZERO PUSH2 0x2CD JUMPI PUSH2 0x2CC PUSH2 0x23A JUMP JUMPDEST JUMPDEST DUP4 JUMPDEST DUP2 DUP2 LT ISZERO PUSH2 0x2F6 JUMPI DUP1 PUSH2 0x2E2 DUP9 DUP3 PUSH2 0x284 JUMP JUMPDEST DUP5 MSTORE PUSH1 0x20 DUP5 ADD SWAP4 POP POP PUSH1 0x20 DUP2 ADD SWAP1 POP PUSH2 0x2CF JUMP JUMPDEST POP POP POP SWAP4 SWAP3 POP POP POP JUMP JUMPDEST PUSH0 DUP3 PUSH1 0x1F DUP4 ADD SLT PUSH2 0x314 JUMPI PUSH2 0x313 PUSH2 0x183 JUMP JUMPDEST JUMPDEST DUP2 CALLDATALOAD PUSH2 0x324 DUP5 DUP3 PUSH1 0x20 DUP7 ADD PUSH2 0x298 JUMP JUMPDEST SWAP2 POP POP SWAP3 SWAP2 POP POP JUMP JUMPDEST PUSH0 PUSH1 0x20 DUP3 DUP5 SUB SLT ISZERO PUSH2 0x342 JUMPI PUSH2 0x341 PUSH2 0x17B JUMP JUMPDEST JUMPDEST PUSH0 DUP3 ADD CALLDATALOAD PUSH8 0xFFFFFFFFFFFFFFFF DUP2 GT ISZERO PUSH2 0x35F JUMPI PUSH2 0x35E PUSH2 0x17F JUMP JUMPDEST JUMPDEST PUSH2 0x36B DUP5 DUP3 DUP6 ADD PUSH2 0x300 JUMP JUMPDEST SWAP2 POP POP SWAP3 SWAP2 POP POP JUMP JUMPDEST PUSH0 DUP2 SWAP1 POP SWAP2 SWAP1 POP JUMP JUMPDEST PUSH32 0x4E487B7100000000000000000000000000000000000000000000000000000000 PUSH0 MSTORE PUSH1 0x12 PUSH1 0x4 MSTORE PUSH1 0x24 PUSH0 REVERT JUMPDEST PUSH0 PUSH2 0x3B4 DUP3 PUSH2 0x374 JUMP JUMPDEST SWAP2 POP PUSH2 0x3BF DUP4 PUSH2 0x374 JUMP JUMPDEST SWAP3 POP DUP3 PUSH2 0x3CF JUMPI PUSH2 0x3CE PUSH2 0x37D JUMP JUMPDEST JUMPDEST DUP3 DUP3 DIV SWAP1 POP SWAP3 SWAP2 POP POP JUMP JUMPDEST PUSH0 DUP3 DUP3 MSTORE PUSH1 0x20 DUP3 ADD SWAP1 POP SWAP3 SWAP2 POP POP JUMP JUMPDEST PUSH32 0x4E6F7420656E6F7567682045746865722073656E740000000000000000000000 PUSH0 DUP3 ADD MSTORE POP JUMP JUMPDEST PUSH0 PUSH2 0x41E PUSH1 0x15 DUP4 PUSH2 0x3DA JUMP JUMPDEST SWAP2 POP PUSH2 0x429 DUP3 PUSH2 0x3EA JUMP JUMPDEST PUSH1 0x20 DUP3 ADD SWAP1 POP SWAP2 SWAP1 POP JUMP JUMPDEST PUSH0 PUSH1 0x20 DUP3 ADD SWAP1 POP DUP2 DUP2 SUB PUSH0 DUP4 ADD MSTORE PUSH2 0x44B DUP2 PUSH2 0x412 JUMP JUMPDEST SWAP1 POP SWAP2 SWAP1 POP JUMP JUMPDEST PUSH32 0x4E487B7100000000000000000000000000000000000000000000000000000000 PUSH0 MSTORE PUSH1 0x32 PUSH1 0x4 MSTORE PUSH1 0x24 PUSH0 REVERT JUMPDEST PUSH0 DUP2 SWAP1 POP SWAP3 SWAP2 POP POP JUMP JUMPDEST POP JUMP JUMPDEST PUSH0 PUSH2 0x497 PUSH0 DUP4 PUSH2 0x47F JUMP JUMPDEST SWAP2 POP PUSH2 0x4A2 DUP3 PUSH2 0x489 JUMP JUMPDEST PUSH0 DUP3 ADD SWAP1 POP SWAP2 SWAP1 POP JUMP JUMPDEST PUSH0 PUSH2 0x4B6 DUP3 PUSH2 0x48C JUMP JUMPDEST SWAP2 POP DUP2 SWAP1 POP SWAP2 SWAP1 POP JUMP JUMPDEST PUSH32 0x5472616E73666572206661696C65640000000000000000000000000000000000 PUSH0 DUP3 ADD MSTORE POP JUMP JUMPDEST PUSH0 PUSH2 0x4F4 PUSH1 0xF DUP4 PUSH2 0x3DA JUMP JUMPDEST SWAP2 POP PUSH2 0x4FF DUP3 PUSH2 0x4C0 JUMP JUMPDEST PUSH1 0x20 DUP3 ADD SWAP1 POP SWAP2 SWAP1 POP JUMP JUMPDEST PUSH0 PUSH1 0x20 DUP3 ADD SWAP1 POP DUP2 DUP2 SUB PUSH0 DUP4 ADD MSTORE PUSH2 0x521 DUP2 PUSH2 0x4E8 JUMP JUMPDEST SWAP1 POP SWAP2 SWAP1 POP JUMP INVALID LOG2 PUSH5 0x6970667358 0x22 SLT KECCAK256 SWAP8 0xB5 0xBF 0xB8 PUSH25 0x54DFFA9BFD94932DCD01FD14AB78E1B045BDD319AB689AAB2F 0xC9 0x4B PUSH5 0x736F6C6343 STOP ADDMOD 0x1E STOP CALLER "
	},
	"abi": [
		{
			"inputs": [
				{
					"internalType": "address payable[]",
					"name": "recipients",
					"type": "address[]"
				}
			],
			"name": "multiSend",
			"outputs": [],
			"stateMutability": "payable",
			"type": "function"
		}
	],
	"storageLayout": {
		"storage": [],
		"types": null
	},
	"web3Deploy": "var multisendContract = new web3.eth.Contract([{\"inputs\":[{\"internalType\":\"address payable[]\",\"name\":\"recipients\",\"type\":\"address[]\"}],\"name\":\"multiSend\",\"outputs\":[],\"stateMutability\":\"payable\",\"type\":\"function\"}]);\nvar multisend = multisendContract.deploy({\n     data: '0x6080604052348015600e575f5ffd5b5061055e8061001c5f395ff3fe60806040526004361061001d575f3560e01c806399d136f514610021575b5f5ffd5b61003b6004803603810190610036919061032d565b61003d565b005b5f81513461004b91906103aa565b90505f811161008f576040517f08c379a000000000000000000000000000000000000000000000000000000000815260040161008690610434565b60405180910390fd5b5f5f90505b825181101561016d575f8382815181106100b1576100b0610452565b5b602002602001015173ffffffffffffffffffffffffffffffffffffffff16836040516100dc906104ac565b5f6040518083038185875af1925050503d805f8114610116576040519150601f19603f3d011682016040523d82523d5f602084013e61011b565b606091505b505090508061015f576040517f08c379a00000000000000000000000000000000000000000000000000000000081526004016101569061050a565b60405180910390fd5b508080600101915050610094565b505050565b5f604051905090565b5f5ffd5b5f5ffd5b5f5ffd5b5f601f19601f8301169050919050565b7f4e487b71000000000000000000000000000000000000000000000000000000005f52604160045260245ffd5b6101cd82610187565b810181811067ffffffffffffffff821117156101ec576101eb610197565b5b80604052505050565b5f6101fe610172565b905061020a82826101c4565b919050565b5f67ffffffffffffffff82111561022957610228610197565b5b602082029050602081019050919050565b5f5ffd5b5f73ffffffffffffffffffffffffffffffffffffffff82169050919050565b5f6102678261023e565b9050919050565b6102778161025d565b8114610281575f5ffd5b50565b5f813590506102928161026e565b92915050565b5f6102aa6102a58461020f565b6101f5565b905080838252602082019050602084028301858111156102cd576102cc61023a565b5b835b818110156102f657806102e28882610284565b8452602084019350506020810190506102cf565b5050509392505050565b5f82601f83011261031457610313610183565b5b8135610324848260208601610298565b91505092915050565b5f602082840312156103425761034161017b565b5b5f82013567ffffffffffffffff81111561035f5761035e61017f565b5b61036b84828501610300565b91505092915050565b5f819050919050565b7f4e487b71000000000000000000000000000000000000000000000000000000005f52601260045260245ffd5b5f6103b482610374565b91506103bf83610374565b9250826103cf576103ce61037d565b5b828204905092915050565b5f82825260208201905092915050565b7f4e6f7420656e6f7567682045746865722073656e7400000000000000000000005f82015250565b5f61041e6015836103da565b9150610429826103ea565b602082019050919050565b5f6020820190508181035f83015261044b81610412565b9050919050565b7f4e487b71000000000000000000000000000000000000000000000000000000005f52603260045260245ffd5b5f81905092915050565b50565b5f6104975f8361047f565b91506104a282610489565b5f82019050919050565b5f6104b68261048c565b9150819050919050565b7f5472616e73666572206661696c656400000000000000000000000000000000005f82015250565b5f6104f4600f836103da565b91506104ff826104c0565b602082019050919050565b5f6020820190508181035f830152610521816104e8565b905091905056fea264697066735822122097b5bfb87854dffa9bfd94932dcd01fd14ab78e1b045bdd319ab689aab2fc94b64736f6c634300081e0033', \n     arguments: [\n     ]\n}).send({\n     from: web3.eth.accounts[0], \n     gas: '4700000'\n   }, function (e, contract){\n    console.log(e, contract);\n    if (typeof contract.address !== 'undefined') {\n         console.log('Contract mined! address: ' + contract.address + ' transactionHash: ' + contract.transactionHash);\n    }\n })",
	"functionHashes": {
		"99d136f5": "multiSend(address[])"
	},
	"gasEstimates": {
		"Creation": {
			"codeDepositCost": "274800",
			"executionCost": "310",
			"totalCost": "275110"
		},
		"External": {
			"multiSend(address[])": "infinite"
		}
	},
	"devdoc": {
		"kind": "dev",
		"methods": {},
		"version": 1
	},
	"userdoc": {
		"kind": "user",
		"methods": {},
		"version": 1
	},
	"Runtime Bytecode": {
		"immutableReferences": {},
		"linkReferences": {},
		"object": "60806040526004361061001d575f3560e01c806399d136f514610021575b5f5ffd5b61003b6004803603810190610036919061032d565b61003d565b005b5f81513461004b91906103aa565b90505f811161008f576040517f08c379a000000000000000000000000000000000000000000000000000000000815260040161008690610434565b60405180910390fd5b5f5f90505b825181101561016d575f8382815181106100b1576100b0610452565b5b602002602001015173ffffffffffffffffffffffffffffffffffffffff16836040516100dc906104ac565b5f6040518083038185875af1925050503d805f8114610116576040519150601f19603f3d011682016040523d82523d5f602084013e61011b565b606091505b505090508061015f576040517f08c379a00000000000000000000000000000000000000000000000000000000081526004016101569061050a565b60405180910390fd5b508080600101915050610094565b505050565b5f604051905090565b5f5ffd5b5f5ffd5b5f5ffd5b5f601f19601f8301169050919050565b7f4e487b71000000000000000000000000000000000000000000000000000000005f52604160045260245ffd5b6101cd82610187565b810181811067ffffffffffffffff821117156101ec576101eb610197565b5b80604052505050565b5f6101fe610172565b905061020a82826101c4565b919050565b5f67ffffffffffffffff82111561022957610228610197565b5b602082029050602081019050919050565b5f5ffd5b5f73ffffffffffffffffffffffffffffffffffffffff82169050919050565b5f6102678261023e565b9050919050565b6102778161025d565b8114610281575f5ffd5b50565b5f813590506102928161026e565b92915050565b5f6102aa6102a58461020f565b6101f5565b905080838252602082019050602084028301858111156102cd576102cc61023a565b5b835b818110156102f657806102e28882610284565b8452602084019350506020810190506102cf565b5050509392505050565b5f82601f83011261031457610313610183565b5b8135610324848260208601610298565b91505092915050565b5f602082840312156103425761034161017b565b5b5f82013567ffffffffffffffff81111561035f5761035e61017f565b5b61036b84828501610300565b91505092915050565b5f819050919050565b7f4e487b71000000000000000000000000000000000000000000000000000000005f52601260045260245ffd5b5f6103b482610374565b91506103bf83610374565b9250826103cf576103ce61037d565b5b828204905092915050565b5f82825260208201905092915050565b7f4e6f7420656e6f7567682045746865722073656e7400000000000000000000005f82015250565b5f61041e6015836103da565b9150610429826103ea565b602082019050919050565b5f6020820190508181035f83015261044b81610412565b9050919050565b7f4e487b71000000000000000000000000000000000000000000000000000000005f52603260045260245ffd5b5f81905092915050565b50565b5f6104975f8361047f565b91506104a282610489565b5f82019050919050565b5f6104b68261048c565b9150819050919050565b7f5472616e73666572206661696c656400000000000000000000000000000000005f82015250565b5f6104f4600f836103da565b91506104ff826104c0565b602082019050919050565b5f6020820190508181035f830152610521816104e8565b905091905056fea264697066735822122097b5bfb87854dffa9bfd94932dcd01fd14ab78e1b045bdd319ab689aab2fc94b64736f6c634300081e0033",
		"opcodes": "PUSH1 0x80 PUSH1 0x40 MSTORE PUSH1 0x4 CALLDATASIZE LT PUSH2 0x1D JUMPI PUSH0 CALLDATALOAD PUSH1 0xE0 SHR DUP1 PUSH4 0x99D136F5 EQ PUSH2 0x21 JUMPI JUMPDEST PUSH0 PUSH0 REVERT JUMPDEST PUSH2 0x3B PUSH1 0x4 DUP1 CALLDATASIZE SUB DUP2 ADD SWAP1 PUSH2 0x36 SWAP2 SWAP1 PUSH2 0x32D JUMP JUMPDEST PUSH2 0x3D JUMP JUMPDEST STOP JUMPDEST PUSH0 DUP2 MLOAD CALLVALUE PUSH2 0x4B SWAP2 SWAP1 PUSH2 0x3AA JUMP JUMPDEST SWAP1 POP PUSH0 DUP2 GT PUSH2 0x8F JUMPI PUSH1 0x40 MLOAD PUSH32 0x8C379A000000000000000000000000000000000000000000000000000000000 DUP2 MSTORE PUSH1 0x4 ADD PUSH2 0x86 SWAP1 PUSH2 0x434 JUMP JUMPDEST PUSH1 0x40 MLOAD DUP1 SWAP2 SUB SWAP1 REVERT JUMPDEST PUSH0 PUSH0 SWAP1 POP JUMPDEST DUP3 MLOAD DUP2 LT ISZERO PUSH2 0x16D JUMPI PUSH0 DUP4 DUP3 DUP2 MLOAD DUP2 LT PUSH2 0xB1 JUMPI PUSH2 0xB0 PUSH2 0x452 JUMP JUMPDEST JUMPDEST PUSH1 0x20 MUL PUSH1 0x20 ADD ADD MLOAD PUSH20 0xFFFFFFFFFFFFFFFFFFFFFFFFFFFFFFFFFFFFFFFF AND DUP4 PUSH1 0x40 MLOAD PUSH2 0xDC SWAP1 PUSH2 0x4AC JUMP JUMPDEST PUSH0 PUSH1 0x40 MLOAD DUP1 DUP4 SUB DUP2 DUP6 DUP8 GAS CALL SWAP3 POP POP POP RETURNDATASIZE DUP1 PUSH0 DUP2 EQ PUSH2 0x116 JUMPI PUSH1 0x40 MLOAD SWAP2 POP PUSH1 0x1F NOT PUSH1 0x3F RETURNDATASIZE ADD AND DUP3 ADD PUSH1 0x40 MSTORE RETURNDATASIZE DUP3 MSTORE RETURNDATASIZE PUSH0 PUSH1 0x20 DUP5 ADD RETURNDATACOPY PUSH2 0x11B JUMP JUMPDEST PUSH1 0x60 SWAP2 POP JUMPDEST POP POP SWAP1 POP DUP1 PUSH2 0x15F JUMPI PUSH1 0x40 MLOAD PUSH32 0x8C379A000000000000000000000000000000000000000000000000000000000 DUP2 MSTORE PUSH1 0x4 ADD PUSH2 0x156 SWAP1 PUSH2 0x50A JUMP JUMPDEST PUSH1 0x40 MLOAD DUP1 SWAP2 SUB SWAP1 REVERT JUMPDEST POP DUP1 DUP1 PUSH1 0x1 ADD SWAP2 POP POP PUSH2 0x94 JUMP JUMPDEST POP POP POP JUMP JUMPDEST PUSH0 PUSH1 0x40 MLOAD SWAP1 POP SWAP1 JUMP JUMPDEST PUSH0 PUSH0 REVERT JUMPDEST PUSH0 PUSH0 REVERT JUMPDEST PUSH0 PUSH0 REVERT JUMPDEST PUSH0 PUSH1 0x1F NOT PUSH1 0x1F DUP4 ADD AND SWAP1 POP SWAP2 SWAP1 POP JUMP JUMPDEST PUSH32 0x4E487B7100000000000000000000000000000000000000000000000000000000 PUSH0 MSTORE PUSH1 0x41 PUSH1 0x4 MSTORE PUSH1 0x24 PUSH0 REVERT JUMPDEST PUSH2 0x1CD DUP3 PUSH2 0x187 JUMP JUMPDEST DUP2 ADD DUP2 DUP2 LT PUSH8 0xFFFFFFFFFFFFFFFF DUP3 GT OR ISZERO PUSH2 0x1EC JUMPI PUSH2 0x1EB PUSH2 0x197 JUMP JUMPDEST JUMPDEST DUP1 PUSH1 0x40 MSTORE POP POP POP JUMP JUMPDEST PUSH0 PUSH2 0x1FE PUSH2 0x172 JUMP JUMPDEST SWAP1 POP PUSH2 0x20A DUP3 DUP3 PUSH2 0x1C4 JUMP JUMPDEST SWAP2 SWAP1 POP JUMP JUMPDEST PUSH0 PUSH8 0xFFFFFFFFFFFFFFFF DUP3 GT ISZERO PUSH2 0x229 JUMPI PUSH2 0x228 PUSH2 0x197 JUMP JUMPDEST JUMPDEST PUSH1 0x20 DUP3 MUL SWAP1 POP PUSH1 0x20 DUP2 ADD SWAP1 POP SWAP2 SWAP1 POP JUMP JUMPDEST PUSH0 PUSH0 REVERT JUMPDEST PUSH0 PUSH20 0xFFFFFFFFFFFFFFFFFFFFFFFFFFFFFFFFFFFFFFFF DUP3 AND SWAP1 POP SWAP2 SWAP1 POP JUMP JUMPDEST PUSH0 PUSH2 0x267 DUP3 PUSH2 0x23E JUMP JUMPDEST SWAP1 POP SWAP2 SWAP1 POP JUMP JUMPDEST PUSH2 0x277 DUP2 PUSH2 0x25D JUMP JUMPDEST DUP2 EQ PUSH2 0x281 JUMPI PUSH0 PUSH0 REVERT JUMPDEST POP JUMP JUMPDEST PUSH0 DUP2 CALLDATALOAD SWAP1 POP PUSH2 0x292 DUP2 PUSH2 0x26E JUMP JUMPDEST SWAP3 SWAP2 POP POP JUMP JUMPDEST PUSH0 PUSH2 0x2AA PUSH2 0x2A5 DUP5 PUSH2 0x20F JUMP JUMPDEST PUSH2 0x1F5 JUMP JUMPDEST SWAP1 POP DUP1 DUP4 DUP3 MSTORE PUSH1 0x20 DUP3 ADD SWAP1 POP PUSH1 0x20 DUP5 MUL DUP4 ADD DUP6 DUP2 GT ISZERO PUSH2 0x2CD JUMPI PUSH2 0x2CC PUSH2 0x23A JUMP JUMPDEST JUMPDEST DUP4 JUMPDEST DUP2 DUP2 LT ISZERO PUSH2 0x2F6 JUMPI DUP1 PUSH2 0x2E2 DUP9 DUP3 PUSH2 0x284 JUMP JUMPDEST DUP5 MSTORE PUSH1 0x20 DUP5 ADD SWAP4 POP POP PUSH1 0x20 DUP2 ADD SWAP1 POP PUSH2 0x2CF JUMP JUMPDEST POP POP POP SWAP4 SWAP3 POP POP POP JUMP JUMPDEST PUSH0 DUP3 PUSH1 0x1F DUP4 ADD SLT PUSH2 0x314 JUMPI PUSH2 0x313 PUSH2 0x183 JUMP JUMPDEST JUMPDEST DUP2 CALLDATALOAD PUSH2 0x324 DUP5 DUP3 PUSH1 0x20 DUP7 ADD PUSH2 0x298 JUMP JUMPDEST SWAP2 POP POP SWAP3 SWAP2 POP POP JUMP JUMPDEST PUSH0 PUSH1 0x20 DUP3 DUP5 SUB SLT ISZERO PUSH2 0x342 JUMPI PUSH2 0x341 PUSH2 0x17B JUMP JUMPDEST JUMPDEST PUSH0 DUP3 ADD CALLDATALOAD PUSH8 0xFFFFFFFFFFFFFFFF DUP2 GT ISZERO PUSH2 0x35F JUMPI PUSH2 0x35E PUSH2 0x17F JUMP JUMPDEST JUMPDEST PUSH2 0x36B DUP5 DUP3 DUP6 ADD PUSH2 0x300 JUMP JUMPDEST SWAP2 POP POP SWAP3 SWAP2 POP POP JUMP JUMPDEST PUSH0 DUP2 SWAP1 POP SWAP2 SWAP1 POP JUMP JUMPDEST PUSH32 0x4E487B7100000000000000000000000000000000000000000000000000000000 PUSH0 MSTORE PUSH1 0x12 PUSH1 0x4 MSTORE PUSH1 0x24 PUSH0 REVERT JUMPDEST PUSH0 PUSH2 0x3B4 DUP3 PUSH2 0x374 JUMP JUMPDEST SWAP2 POP PUSH2 0x3BF DUP4 PUSH2 0x374 JUMP JUMPDEST SWAP3 POP DUP3 PUSH2 0x3CF JUMPI PUSH2 0x3CE PUSH2 0x37D JUMP JUMPDEST JUMPDEST DUP3 DUP3 DIV SWAP1 POP SWAP3 SWAP2 POP POP JUMP JUMPDEST PUSH0 DUP3 DUP3 MSTORE PUSH1 0x20 DUP3 ADD SWAP1 POP SWAP3 SWAP2 POP POP JUMP JUMPDEST PUSH32 0x4E6F7420656E6F7567682045746865722073656E740000000000000000000000 PUSH0 DUP3 ADD MSTORE POP JUMP JUMPDEST PUSH0 PUSH2 0x41E PUSH1 0x15 DUP4 PUSH2 0x3DA JUMP JUMPDEST SWAP2 POP PUSH2 0x429 DUP3 PUSH2 0x3EA JUMP JUMPDEST PUSH1 0x20 DUP3 ADD SWAP1 POP SWAP2 SWAP1 POP JUMP JUMPDEST PUSH0 PUSH1 0x20 DUP3 ADD SWAP1 POP DUP2 DUP2 SUB PUSH0 DUP4 ADD MSTORE PUSH2 0x44B DUP2 PUSH2 0x412 JUMP JUMPDEST SWAP1 POP SWAP2 SWAP1 POP JUMP JUMPDEST PUSH32 0x4E487B7100000000000000000000000000000000000000000000000000000000 PUSH0 MSTORE PUSH1 0x32 PUSH1 0x4 MSTORE PUSH1 0x24 PUSH0 REVERT JUMPDEST PUSH0 DUP2 SWAP1 POP SWAP3 SWAP2 POP POP JUMP JUMPDEST POP JUMP JUMPDEST PUSH0 PUSH2 0x497 PUSH0 DUP4 PUSH2 0x47F JUMP JUMPDEST SWAP2 POP PUSH2 0x4A2 DUP3 PUSH2 0x489 JUMP JUMPDEST PUSH0 DUP3 ADD SWAP1 POP SWAP2 SWAP1 POP JUMP JUMPDEST PUSH0 PUSH2 0x4B6 DUP3 PUSH2 0x48C JUMP JUMPDEST SWAP2 POP DUP2 SWAP1 POP SWAP2 SWAP1 POP JUMP JUMPDEST PUSH32 0x5472616E73666572206661696C65640000000000000000000000000000000000 PUSH0 DUP3 ADD MSTORE POP JUMP JUMPDEST PUSH0 PUSH2 0x4F4 PUSH1 0xF DUP4 PUSH2 0x3DA JUMP JUMPDEST SWAP2 POP PUSH2 0x4FF DUP3 PUSH2 0x4C0 JUMP JUMPDEST PUSH1 0x20 DUP3 ADD SWAP1 POP SWAP2 SWAP1 POP JUMP JUMPDEST PUSH0 PUSH1 0x20 DUP3 ADD SWAP1 POP DUP2 DUP2 SUB PUSH0 DUP4 ADD MSTORE PUSH2 0x521 DUP2 PUSH2 0x4E8 JUMP JUMPDEST SWAP1 POP SWAP2 SWAP1 POP JUMP INVALID LOG2 PUSH5 0x6970667358 0x22 SLT KECCAK256 SWAP8 0xB5 0xBF 0xB8 PUSH25 0x54DFFA9BFD94932DCD01FD14AB78E1B045BDD319AB689AAB2F 0xC9 0x4B PUSH5 0x736F6C6343 STOP ADDMOD 0x1E STOP CALLER "
	},
	"Assembly": ".code\n  PUSH 80\t\t\tcontract MultiSend {\\r\\n    //...\n  PUSH 40\t\t\tcontract MultiSend {\\r\\n    //...\n  MSTORE \t\t\tcontract MultiSend {\\r\\n    //...\n  CALLVALUE \t\t\tcontract MultiSend {\\r\\n    //...\n  DUP1 \t\t\tcontract MultiSend {\\r\\n    //...\n  ISZERO \t\t\tcontract MultiSend {\\r\\n    //...\n  PUSH [tag] 1\t\t\tcontract MultiSend {\\r\\n    //...\n  JUMPI \t\t\tcontract MultiSend {\\r\\n    //...\n  PUSH 0\t\t\tcontract MultiSend {\\r\\n    //...\n  PUSH 0\t\t\tcontract MultiSend {\\r\\n    //...\n  REVERT \t\t\tcontract MultiSend {\\r\\n    //...\ntag 1\t\t\tcontract MultiSend {\\r\\n    //...\n  JUMPDEST \t\t\tcontract MultiSend {\\r\\n    //...\n  POP \t\t\tcontract MultiSend {\\r\\n    //...\n  PUSH #[$] 0000000000000000000000000000000000000000000000000000000000000000\t\t\tcontract MultiSend {\\r\\n    //...\n  DUP1 \t\t\tcontract MultiSend {\\r\\n    //...\n  PUSH [$] 0000000000000000000000000000000000000000000000000000000000000000\t\t\tcontract MultiSend {\\r\\n    //...\n  PUSH 0\t\t\tcontract MultiSend {\\r\\n    //...\n  CODECOPY \t\t\tcontract MultiSend {\\r\\n    //...\n  PUSH 0\t\t\tcontract MultiSend {\\r\\n    //...\n  RETURN \t\t\tcontract MultiSend {\\r\\n    //...\n.data\n  0:\n    .code\n      PUSH 80\t\t\tcontract MultiSend {\\r\\n    //...\n      PUSH 40\t\t\tcontract MultiSend {\\r\\n    //...\n      MSTORE \t\t\tcontract MultiSend {\\r\\n    //...\n      PUSH 4\t\t\tcontract MultiSend {\\r\\n    //...\n      CALLDATASIZE \t\t\tcontract MultiSend {\\r\\n    //...\n      LT \t\t\tcontract MultiSend {\\r\\n    //...\n      PUSH [tag] 1\t\t\tcontract MultiSend {\\r\\n    //...\n      JUMPI \t\t\tcontract MultiSend {\\r\\n    //...\n      PUSH 0\t\t\tcontract MultiSend {\\r\\n    //...\n      CALLDATALOAD \t\t\tcontract MultiSend {\\r\\n    //...\n      PUSH E0\t\t\tcontract MultiSend {\\r\\n    //...\n      SHR \t\t\tcontract MultiSend {\\r\\n    //...\n      DUP1 \t\t\tcontract MultiSend {\\r\\n    //...\n      PUSH 99D136F5\t\t\tcontract MultiSend {\\r\\n    //...\n      EQ \t\t\tcontract MultiSend {\\r\\n    //...\n      PUSH [tag] 2\t\t\tcontract MultiSend {\\r\\n    //...\n      JUMPI \t\t\tcontract MultiSend {\\r\\n    //...\n    tag 1\t\t\tcontract MultiSend {\\r\\n    //...\n      JUMPDEST \t\t\tcontract MultiSend {\\r\\n    //...\n      PUSH 0\t\t\tcontract MultiSend {\\r\\n    //...\n      PUSH 0\t\t\tcontract MultiSend {\\r\\n    //...\n      REVERT \t\t\tcontract MultiSend {\\r\\n    //...\n    tag 2\t\t\tfunction multiSend(address pay...\n      JUMPDEST \t\t\tfunction multiSend(address pay...\n      PUSH [tag] 3\t\t\tfunction multiSend(address pay...\n      PUSH 4\t\t\tfunction multiSend(address pay...\n      DUP1 \t\t\tfunction multiSend(address pay...\n      CALLDATASIZE \t\t\tfunction multiSend(address pay...\n      SUB \t\t\tfunction multiSend(address pay...\n      DUP2 \t\t\tfunction multiSend(address pay...\n      ADD \t\t\tfunction multiSend(address pay...\n      SWAP1 \t\t\tfunction multiSend(address pay...\n      PUSH [tag] 4\t\t\tfunction multiSend(address pay...\n      SWAP2 \t\t\tfunction multiSend(address pay...\n      SWAP1 \t\t\tfunction multiSend(address pay...\n      PUSH [tag] 5\t\t\tfunction multiSend(address pay...\n      JUMP \t\t\tfunction multiSend(address pay...\n    tag 4\t\t\tfunction multiSend(address pay...\n      JUMPDEST \t\t\tfunction multiSend(address pay...\n      PUSH [tag] 6\t\t\tfunction multiSend(address pay...\n      JUMP \t\t\tfunction multiSend(address pay...\n    tag 3\t\t\tfunction multiSend(address pay...\n      JUMPDEST \t\t\tfunction multiSend(address pay...\n      STOP \t\t\tfunction multiSend(address pay...\n    tag 6\t\t\tfunction multiSend(address pay...\n      JUMPDEST \t\t\tfunction multiSend(address pay...\n      PUSH 0\t\t\tuint256 amountPerRecipient\n      DUP2 \t\t\trecipients\n      MLOAD \t\t\trecipients.length\n      CALLVALUE \t\t\tmsg.value\n      PUSH [tag] 8\t\t\tmsg.value / recipients.length\n      SWAP2 \t\t\tmsg.value / recipients.length\n      SWAP1 \t\t\tmsg.value / recipients.length\n      PUSH [tag] 9\t\t\tmsg.value / recipients.length\n      JUMP \t\t\tmsg.value / recipients.length\n    tag 8\t\t\tmsg.value / recipients.length\n      JUMPDEST \t\t\tmsg.value / recipients.length\n      SWAP1 \t\t\tuint256 amountPerRecipient = m...\n      POP \t\t\tuint256 amountPerRecipient = m...\n      PUSH 0\t\t\t0\n      DUP2 \t\t\tamountPerRecipient\n      GT \t\t\tamountPerRecipient > 0\n      PUSH [tag] 10\t\t\trequire(amountPerRecipient > 0...\n      JUMPI \t\t\trequire(amountPerRecipient > 0...\n      PUSH 40\t\t\trequire(amountPerRecipient > 0...\n      MLOAD \t\t\trequire(amountPerRecipient > 0...\n      PUSH 8C379A000000000000000000000000000000000000000000000000000000000\t\t\trequire(amountPerRecipient > 0...\n      DUP2 \t\t\trequire(amountPerRecipient > 0...\n      MSTORE \t\t\trequire(amountPerRecipient > 0...\n      PUSH 4\t\t\trequire(amountPerRecipient > 0...\n      ADD \t\t\trequire(amountPerRecipient > 0...\n      PUSH [tag] 11\t\t\trequire(amountPerRecipient > 0...\n      SWAP1 \t\t\trequire(amountPerRecipient > 0...\n      PUSH [tag] 12\t\t\trequire(amountPerRecipient > 0...\n      JUMP \t\t\trequire(amountPerRecipient > 0...\n    tag 11\t\t\trequire(amountPerRecipient > 0...\n      JUMPDEST \t\t\trequire(amountPerRecipient > 0...\n      PUSH 40\t\t\trequire(amountPerRecipient > 0...\n      MLOAD \t\t\trequire(amountPerRecipient > 0...\n      DUP1 \t\t\trequire(amountPerRecipient > 0...\n      SWAP2 \t\t\trequire(amountPerRecipient > 0...\n      SUB \t\t\trequire(amountPerRecipient > 0...\n      SWAP1 \t\t\trequire(amountPerRecipient > 0...\n      REVERT \t\t\trequire(amountPerRecipient > 0...\n    tag 10\t\t\trequire(amountPerRecipient > 0...\n      JUMPDEST \t\t\trequire(amountPerRecipient > 0...\n      PUSH 0\t\t\tuint256 i\n      PUSH 0\t\t\t0\n      SWAP1 \t\t\tuint256 i = 0\n      POP \t\t\tuint256 i = 0\n    tag 13\t\t\tfor (uint256 i = 0; i < recipi...\n      JUMPDEST \t\t\tfor (uint256 i = 0; i < recipi...\n      DUP3 \t\t\trecipients\n      MLOAD \t\t\trecipients.length\n      DUP2 \t\t\ti\n      LT \t\t\ti < recipients.length\n      ISZERO \t\t\tfor (uint256 i = 0; i < recipi...\n      PUSH [tag] 14\t\t\tfor (uint256 i = 0; i < recipi...\n      JUMPI \t\t\tfor (uint256 i = 0; i < recipi...\n      PUSH 0\t\t\tbool success\n      DUP4 \t\t\trecipients\n      DUP3 \t\t\ti\n      DUP2 \t\t\trecipients[i]\n      MLOAD \t\t\trecipients[i]\n      DUP2 \t\t\trecipients[i]\n      LT \t\t\trecipients[i]\n      PUSH [tag] 16\t\t\trecipients[i]\n      JUMPI \t\t\trecipients[i]\n      PUSH [tag] 17\t\t\trecipients[i]\n      PUSH [tag] 18\t\t\trecipients[i]\n      JUMP \t\t\trecipients[i]\n    tag 17\t\t\trecipients[i]\n      JUMPDEST \t\t\trecipients[i]\n    tag 16\t\t\trecipients[i]\n      JUMPDEST \t\t\trecipients[i]\n      PUSH 20\t\t\trecipients[i]\n      MUL \t\t\trecipients[i]\n      PUSH 20\t\t\trecipients[i]\n      ADD \t\t\trecipients[i]\n      ADD \t\t\trecipients[i]\n      MLOAD \t\t\trecipients[i]\n      PUSH FFFFFFFFFFFFFFFFFFFFFFFFFFFFFFFFFFFFFFFF\t\t\trecipients[i].call\n      AND \t\t\trecipients[i].call\n      DUP4 \t\t\tamountPerRecipient\n      PUSH 40\t\t\trecipients[i].call{value: amou...\n      MLOAD \t\t\trecipients[i].call{value: amou...\n      PUSH [tag] 19\t\t\trecipients[i].call{value: amou...\n      SWAP1 \t\t\trecipients[i].call{value: amou...\n      PUSH [tag] 20\t\t\trecipients[i].call{value: amou...\n      JUMP \t\t\trecipients[i].call{value: amou...\n    tag 19\t\t\trecipients[i].call{value: amou...\n      JUMPDEST \t\t\trecipients[i].call{value: amou...\n      PUSH 0\t\t\trecipients[i].call{value: amou...\n      PUSH 40\t\t\trecipients[i].call{value: amou...\n      MLOAD \t\t\trecipients[i].call{value: amou...\n      DUP1 \t\t\trecipients[i].call{value: amou...\n      DUP4 \t\t\trecipients[i].call{value: amou...\n      SUB \t\t\trecipients[i].call{value: amou...\n      DUP2 \t\t\trecipients[i].call{value: amou...\n      DUP6 \t\t\trecipients[i].call{value: amou...\n      DUP8 \t\t\trecipients[i].call{value: amou...\n      GAS \t\t\trecipients[i].call{value: amou...\n      CALL \t\t\trecipients[i].call{value: amou...\n      SWAP3 \t\t\trecipients[i].call{value: amou...\n      POP \t\t\trecipients[i].call{value: amou...\n      POP \t\t\trecipients[i].call{value: amou...\n      POP \t\t\trecipients[i].call{value: amou...\n      RETURNDATASIZE \t\t\trecipients[i].call{value: amou...\n      DUP1 \t\t\trecipients[i].call{value: amou...\n      PUSH 0\t\t\trecipients[i].call{value: amou...\n      DUP2 \t\t\trecipients[i].call{value: amou...\n      EQ \t\t\trecipients[i].call{value: amou...\n      PUSH [tag] 23\t\t\trecipients[i].call{value: amou...\n      JUMPI \t\t\trecipients[i].call{value: amou...\n      PUSH 40\t\t\trecipients[i].call{value: amou...\n      MLOAD \t\t\trecipients[i].call{value: amou...\n      SWAP2 \t\t\trecipients[i].call{value: amou...\n      POP \t\t\trecipients[i].call{value: amou...\n      PUSH 1F\t\t\trecipients[i].call{value: amou...\n      NOT \t\t\trecipients[i].call{value: amou...\n      PUSH 3F\t\t\trecipients[i].call{value: amou...\n      RETURNDATASIZE \t\t\trecipients[i].call{value: amou...\n      ADD \t\t\trecipients[i].call{value: amou...\n      AND \t\t\trecipients[i].call{value: amou...\n      DUP3 \t\t\trecipients[i].call{value: amou...\n      ADD \t\t\trecipients[i].call{value: amou...\n      PUSH 40\t\t\trecipients[i].call{value: amou...\n      MSTORE \t\t\trecipients[i].call{value: amou...\n      RETURNDATASIZE \t\t\trecipients[i].call{value: amou...\n      DUP3 \t\t\trecipients[i].call{value: amou...\n      MSTORE \t\t\trecipients[i].call{value: amou...\n      RETURNDATASIZE \t\t\trecipients[i].call{value: amou...\n      PUSH 0\t\t\trecipients[i].call{value: amou...\n      PUSH 20\t\t\trecipients[i].call{value: amou...\n      DUP5 \t\t\trecipients[i].call{value: amou...\n      ADD \t\t\trecipients[i].call{value: amou...\n      RETURNDATACOPY \t\t\trecipients[i].call{value: amou...\n      PUSH [tag] 22\t\t\trecipients[i].call{value: amou...\n      JUMP \t\t\trecipients[i].call{value: amou...\n    tag 23\t\t\trecipients[i].call{value: amou...\n      JUMPDEST \t\t\trecipients[i].call{value: amou...\n      PUSH 60\t\t\trecipients[i].call{value: amou...\n      SWAP2 \t\t\trecipients[i].call{value: amou...\n      POP \t\t\trecipients[i].call{value: amou...\n    tag 22\t\t\trecipients[i].call{value: amou...\n      JUMPDEST \t\t\trecipients[i].call{value: amou...\n      POP \t\t\trecipients[i].call{value: amou...\n      POP \t\t\t(bool success, ) = recipients[...\n      SWAP1 \t\t\t(bool success, ) = recipients[...\n      POP \t\t\t(bool success, ) = recipients[...\n      DUP1 \t\t\tsuccess\n      PUSH [tag] 24\t\t\trequire(success, \"Transfer fai...\n      JUMPI \t\t\trequire(success, \"Transfer fai...\n      PUSH 40\t\t\trequire(success, \"Transfer fai...\n      MLOAD \t\t\trequire(success, \"Transfer fai...\n      PUSH 8C379A000000000000000000000000000000000000000000000000000000000\t\t\trequire(success, \"Transfer fai...\n      DUP2 \t\t\trequire(success, \"Transfer fai...\n      MSTORE \t\t\trequire(success, \"Transfer fai...\n      PUSH 4\t\t\trequire(success, \"Transfer fai...\n      ADD \t\t\trequire(success, \"Transfer fai...\n      PUSH [tag] 25\t\t\trequire(success, \"Transfer fai...\n      SWAP1 \t\t\trequire(success, \"Transfer fai...\n      PUSH [tag] 26\t\t\trequire(success, \"Transfer fai...\n      JUMP \t\t\trequire(success, \"Transfer fai...\n    tag 25\t\t\trequire(success, \"Transfer fai...\n      JUMPDEST \t\t\trequire(success, \"Transfer fai...\n      PUSH 40\t\t\trequire(success, \"Transfer fai...\n      MLOAD \t\t\trequire(success, \"Transfer fai...\n      DUP1 \t\t\trequire(success, \"Transfer fai...\n      SWAP2 \t\t\trequire(success, \"Transfer fai...\n      SUB \t\t\trequire(success, \"Transfer fai...\n      SWAP1 \t\t\trequire(success, \"Transfer fai...\n      REVERT \t\t\trequire(success, \"Transfer fai...\n    tag 24\t\t\trequire(success, \"Transfer fai...\n      JUMPDEST \t\t\trequire(success, \"Transfer fai...\n      POP \t\t\t{\\r\\n            // Transfer E...\n      DUP1 \t\t\ti++\n      DUP1 \t\t\ti++\n      PUSH 1\t\t\ti++\n      ADD \t\t\ti++\n      SWAP2 \t\t\ti++\n      POP \t\t\ti++\n      POP \t\t\ti++\n      PUSH [tag] 13\t\t\tfor (uint256 i = 0; i < recipi...\n      JUMP \t\t\tfor (uint256 i = 0; i < recipi...\n    tag 14\t\t\tfor (uint256 i = 0; i < recipi...\n      JUMPDEST \t\t\tfor (uint256 i = 0; i < recipi...\n      POP \t\t\tfor (uint256 i = 0; i < recipi...\n      POP \t\t\t{\\r\\n        uint256 amountPer...\n      POP \t\t\tfunction multiSend(address pay...\n      JUMP \t\t\tfunction multiSend(address pay...\n    tag 27\t\t\t-License-Identifier: MIT\\r\\npr...\n      JUMPDEST \t\t\t-License-Identifier: MIT\\r\\npr...\n      PUSH 0\t\t\tsolidi\n      PUSH 40\t\t\tiS\n      MLOAD \t\t\tt MultiSe\n      SWAP1 \t\t\t\\n\\r\\ncontract MultiSe\n      POP \t\t\t\\n\\r\\ncontract MultiSe\n      SWAP1 \t\t\t-License-Identifier: MIT\\r\\npr...\n      JUMP \t\t\t-License-Identifier: MIT\\r\\npr...\n    tag 28\t\t\t Function to send Ether to mul...\n      JUMPDEST \t\t\t Function to send Ether to mul...\n      PUSH 0\t\t\tb\n      PUSH 0\t\t\t \n      REVERT \t\t\tpients) publ\n    tag 29\t\t\t\\r\\n        uint256 amountPerR...\n      JUMPDEST \t\t\t\\r\\n        uint256 amountPerR...\n      PUSH 0\t\t\t \n      PUSH 0\t\t\tt\n      REVERT \t\t\tecipient > 0\n    tag 30\t\t\th Ether sent\");\\r\\n\\r\\n       ...\n      JUMPDEST \t\t\th Ether sent\");\\r\\n\\r\\n       ...\n      PUSH 0\t\t\to\n      PUSH 0\t\t\tr\n      REVERT \t\t\ter Ether to \n    tag 31\t\t\tnt\\r\\n            (bool succes...\n      JUMPDEST \t\t\tnt\\r\\n            (bool succes...\n      PUSH 0\t\t\tents[i\n      PUSH 1F\t\t\t  \n      NOT \t\t\t       \n      PUSH 1F\t\t\t);\n      DUP4 \t\t\tent}(\n      ADD \t\t\tcipient}(\"\");\\r\n      AND \t\t\terRecipient}(\"\");\\r\\n         \n      SWAP1 \t\t\te: amountPerRecipient}(\"\");\\r\\...\n      POP \t\t\te: amountPerRecipient}(\"\");\\r\\...\n      SWAP2 \t\t\tnt\\r\\n            (bool succes...\n      SWAP1 \t\t\tnt\\r\\n            (bool succes...\n      POP \t\t\tnt\\r\\n            (bool succes...\n      JUMP \t\t\tnt\\r\\n            (bool succes...\n    tag 32\t\t\tuccess, \"Transfer failed\");\\r\\...\n      JUMPDEST \t\t\tuccess, \"Transfer failed\");\\r\\...\n      PUSH 4E487B7100000000000000000000000000000000000000000000000000000000\t\t\t\\r\\n\n      PUSH 0\t\t\t\\r\n      MSTORE \t\t\t\\r\\n    }\\r\\n}\\r\\n\n      PUSH 41\t\t\t\n      PUSH 4\t\t\t\n      MSTORE \t\t\t\n      PUSH 24\t\t\t\n      PUSH 0\t\t\t\n      REVERT \t\t\t\n    tag 33\t\t\t\n      JUMPDEST \t\t\t\n      PUSH [tag] 62\t\t\t\n      DUP3 \t\t\t\n      PUSH [tag] 31\t\t\t\n      JUMP \t\t\t\n    tag 62\t\t\t\n      JUMPDEST \t\t\t\n      DUP2 \t\t\t\n      ADD \t\t\t\n      DUP2 \t\t\t\n      DUP2 \t\t\t\n      LT \t\t\t\n      PUSH FFFFFFFFFFFFFFFF\t\t\t\n      DUP3 \t\t\t\n      GT \t\t\t\n      OR \t\t\t\n      ISZERO \t\t\t\n      PUSH [tag] 63\t\t\t\n      JUMPI \t\t\t\n      PUSH [tag] 64\t\t\t\n      PUSH [tag] 32\t\t\t\n      JUMP \t\t\t\n    tag 64\t\t\t\n      JUMPDEST \t\t\t\n    tag 63\t\t\t\n      JUMPDEST \t\t\t\n      DUP1 \t\t\t\n      PUSH 40\t\t\t\n      MSTORE \t\t\t\n      POP \t\t\t\n      POP \t\t\t\n      POP \t\t\t\n      JUMP \t\t\t\n    tag 34\t\t\t\n      JUMPDEST \t\t\t\n      PUSH 0\t\t\t\n      PUSH [tag] 66\t\t\t\n      PUSH [tag] 27\t\t\t\n      JUMP \t\t\t\n    tag 66\t\t\t\n      JUMPDEST \t\t\t\n      SWAP1 \t\t\t\n      POP \t\t\t\n      PUSH [tag] 67\t\t\t\n      DUP3 \t\t\t\n      DUP3 \t\t\t\n      PUSH [tag] 33\t\t\t\n      JUMP \t\t\t\n    tag 67\t\t\t\n      JUMPDEST \t\t\t\n      SWAP2 \t\t\t\n      SWAP1 \t\t\t\n      POP \t\t\t\n      JUMP \t\t\t\n    tag 35\t\t\t\n      JUMPDEST \t\t\t\n      PUSH 0\t\t\t\n      PUSH FFFFFFFFFFFFFFFF\t\t\t\n      DUP3 \t\t\t\n      GT \t\t\t\n      ISZERO \t\t\t\n      PUSH [tag] 69\t\t\t\n      JUMPI \t\t\t\n      PUSH [tag] 70\t\t\t\n      PUSH [tag] 32\t\t\t\n      JUMP \t\t\t\n    tag 70\t\t\t\n      JUMPDEST \t\t\t\n    tag 69\t\t\t\n      JUMPDEST \t\t\t\n      PUSH 20\t\t\t\n      DUP3 \t\t\t\n      MUL \t\t\t\n      SWAP1 \t\t\t\n      POP \t\t\t\n      PUSH 20\t\t\t\n      DUP2 \t\t\t\n      ADD \t\t\t\n      SWAP1 \t\t\t\n      POP \t\t\t\n      SWAP2 \t\t\t\n      SWAP1 \t\t\t\n      POP \t\t\t\n      JUMP \t\t\t\n    tag 36\t\t\t\n      JUMPDEST \t\t\t\n      PUSH 0\t\t\t\n      PUSH 0\t\t\t\n      REVERT \t\t\t\n    tag 37\t\t\t\n      JUMPDEST \t\t\t\n      PUSH 0\t\t\t\n      PUSH FFFFFFFFFFFFFFFFFFFFFFFFFFFFFFFFFFFFFFFF\t\t\t\n      DUP3 \t\t\t\n      AND \t\t\t\n      SWAP1 \t\t\t\n      POP \t\t\t\n      SWAP2 \t\t\t\n      SWAP1 \t\t\t\n      POP \t\t\t\n      JUMP \t\t\t\n    tag 38\t\t\t\n      JUMPDEST \t\t\t\n      PUSH 0\t\t\t\n      PUSH [tag] 74\t\t\t\n      DUP3 \t\t\t\n      PUSH [tag] 37\t\t\t\n      JUMP \t\t\t\n    tag 74\t\t\t\n      JUMPDEST \t\t\t\n      SWAP1 \t\t\t\n      POP \t\t\t\n      SWAP2 \t\t\t\n      SWAP1 \t\t\t\n      POP \t\t\t\n      JUMP \t\t\t\n    tag 39\t\t\t\n      JUMPDEST \t\t\t\n      PUSH [tag] 76\t\t\t\n      DUP2 \t\t\t\n      PUSH [tag] 38\t\t\t\n      JUMP \t\t\t\n    tag 76\t\t\t\n      JUMPDEST \t\t\t\n      DUP2 \t\t\t\n      EQ \t\t\t\n      PUSH [tag] 77\t\t\t\n      JUMPI \t\t\t\n      PUSH 0\t\t\t\n      PUSH 0\t\t\t\n      REVERT \t\t\t\n    tag 77\t\t\t\n      JUMPDEST \t\t\t\n      POP \t\t\t\n      JUMP \t\t\t\n    tag 40\t\t\t\n      JUMPDEST \t\t\t\n      PUSH 0\t\t\t\n      DUP2 \t\t\t\n      CALLDATALOAD \t\t\t\n      SWAP1 \t\t\t\n      POP \t\t\t\n      PUSH [tag] 79\t\t\t\n      DUP2 \t\t\t\n      PUSH [tag] 39\t\t\t\n      JUMP \t\t\t\n    tag 79\t\t\t\n      JUMPDEST \t\t\t\n      SWAP3 \t\t\t\n      SWAP2 \t\t\t\n      POP \t\t\t\n      POP \t\t\t\n      JUMP \t\t\t\n    tag 41\t\t\t\n      JUMPDEST \t\t\t\n      PUSH 0\t\t\t\n      PUSH [tag] 81\t\t\t\n      PUSH [tag] 82\t\t\t\n      DUP5 \t\t\t\n      PUSH [tag] 35\t\t\t\n      JUMP \t\t\t\n    tag 82\t\t\t\n      JUMPDEST \t\t\t\n      PUSH [tag] 34\t\t\t\n      JUMP \t\t\t\n    tag 81\t\t\t\n      JUMPDEST \t\t\t\n      SWAP1 \t\t\t\n      POP \t\t\t\n      DUP1 \t\t\t\n      DUP4 \t\t\t\n      DUP3 \t\t\t\n      MSTORE \t\t\t\n      PUSH 20\t\t\t\n      DUP3 \t\t\t\n      ADD \t\t\t\n      SWAP1 \t\t\t\n      POP \t\t\t\n      PUSH 20\t\t\t\n      DUP5 \t\t\t\n      MUL \t\t\t\n      DUP4 \t\t\t\n      ADD \t\t\t\n      DUP6 \t\t\t\n      DUP2 \t\t\t\n      GT \t\t\t\n      ISZERO \t\t\t\n      PUSH [tag] 83\t\t\t\n      JUMPI \t\t\t\n      PUSH [tag] 84\t\t\t\n      PUSH [tag] 36\t\t\t\n      JUMP \t\t\t\n    tag 84\t\t\t\n      JUMPDEST \t\t\t\n    tag 83\t\t\t\n      JUMPDEST \t\t\t\n      DUP4 \t\t\t\n    tag 85\t\t\t\n      JUMPDEST \t\t\t\n      DUP2 \t\t\t\n      DUP2 \t\t\t\n      LT \t\t\t\n      ISZERO \t\t\t\n      PUSH [tag] 87\t\t\t\n      JUMPI \t\t\t\n      DUP1 \t\t\t\n      PUSH [tag] 88\t\t\t\n      DUP9 \t\t\t\n      DUP3 \t\t\t\n      PUSH [tag] 40\t\t\t\n      JUMP \t\t\t\n    tag 88\t\t\t\n      JUMPDEST \t\t\t\n      DUP5 \t\t\t\n      MSTORE \t\t\t\n      PUSH 20\t\t\t\n      DUP5 \t\t\t\n      ADD \t\t\t\n      SWAP4 \t\t\t\n      POP \t\t\t\n      POP \t\t\t\n      PUSH 20\t\t\t\n      DUP2 \t\t\t\n      ADD \t\t\t\n      SWAP1 \t\t\t\n      POP \t\t\t\n      PUSH [tag] 85\t\t\t\n      JUMP \t\t\t\n    tag 87\t\t\t\n      JUMPDEST \t\t\t\n      POP \t\t\t\n      POP \t\t\t\n      POP \t\t\t\n      SWAP4 \t\t\t\n      SWAP3 \t\t\t\n      POP \t\t\t\n      POP \t\t\t\n      POP \t\t\t\n      JUMP \t\t\t\n    tag 42\t\t\t\n      JUMPDEST \t\t\t\n      PUSH 0\t\t\t\n      DUP3 \t\t\t\n      PUSH 1F\t\t\t\n      DUP4 \t\t\t\n      ADD \t\t\t\n      SLT \t\t\t\n      PUSH [tag] 90\t\t\t\n      JUMPI \t\t\t\n      PUSH [tag] 91\t\t\t\n      PUSH [tag] 30\t\t\t\n      JUMP \t\t\t\n    tag 91\t\t\t\n      JUMPDEST \t\t\t\n    tag 90\t\t\t\n      JUMPDEST \t\t\t\n      DUP2 \t\t\t\n      CALLDATALOAD \t\t\t\n      PUSH [tag] 92\t\t\t\n      DUP5 \t\t\t\n      DUP3 \t\t\t\n      PUSH 20\t\t\t\n      DUP7 \t\t\t\n      ADD \t\t\t\n      PUSH [tag] 41\t\t\t\n      JUMP \t\t\t\n    tag 92\t\t\t\n      JUMPDEST \t\t\t\n      SWAP2 \t\t\t\n      POP \t\t\t\n      POP \t\t\t\n      SWAP3 \t\t\t\n      SWAP2 \t\t\t\n      POP \t\t\t\n      POP \t\t\t\n      JUMP \t\t\t\n    tag 5\t\t\t\n      JUMPDEST \t\t\t\n      PUSH 0\t\t\t\n      PUSH 20\t\t\t\n      DUP3 \t\t\t\n      DUP5 \t\t\t\n      SUB \t\t\t\n      SLT \t\t\t\n      ISZERO \t\t\t\n      PUSH [tag] 94\t\t\t\n      JUMPI \t\t\t\n      PUSH [tag] 95\t\t\t\n      PUSH [tag] 28\t\t\t\n      JUMP \t\t\t\n    tag 95\t\t\t\n      JUMPDEST \t\t\t\n    tag 94\t\t\t\n      JUMPDEST \t\t\t\n      PUSH 0\t\t\t\n      DUP3 \t\t\t\n      ADD \t\t\t\n      CALLDATALOAD \t\t\t\n      PUSH FFFFFFFFFFFFFFFF\t\t\t\n      DUP2 \t\t\t\n      GT \t\t\t\n      ISZERO \t\t\t\n      PUSH [tag] 96\t\t\t\n      JUMPI \t\t\t\n      PUSH [tag] 97\t\t\t\n      PUSH [tag] 29\t\t\t\n      JUMP \t\t\t\n    tag 97\t\t\t\n      JUMPDEST \t\t\t\n    tag 96\t\t\t\n      JUMPDEST \t\t\t\n      PUSH [tag] 98\t\t\t\n      DUP5 \t\t\t\n      DUP3 \t\t\t\n      DUP6 \t\t\t\n      ADD \t\t\t\n      PUSH [tag] 42\t\t\t\n      JUMP \t\t\t\n    tag 98\t\t\t\n      JUMPDEST \t\t\t\n      SWAP2 \t\t\t\n      POP \t\t\t\n      POP \t\t\t\n      SWAP3 \t\t\t\n      SWAP2 \t\t\t\n      POP \t\t\t\n      POP \t\t\t\n      JUMP \t\t\t\n    tag 43\t\t\t\n      JUMPDEST \t\t\t\n      PUSH 0\t\t\t\n      DUP2 \t\t\t\n      SWAP1 \t\t\t\n      POP \t\t\t\n      SWAP2 \t\t\t\n      SWAP1 \t\t\t\n      POP \t\t\t\n      JUMP \t\t\t\n    tag 44\t\t\t\n      JUMPDEST \t\t\t\n      PUSH 4E487B7100000000000000000000000000000000000000000000000000000000\t\t\t\n      PUSH 0\t\t\t\n      MSTORE \t\t\t\n      PUSH 12\t\t\t\n      PUSH 4\t\t\t\n      MSTORE \t\t\t\n      PUSH 24\t\t\t\n      PUSH 0\t\t\t\n      REVERT \t\t\t\n    tag 9\t\t\t\n      JUMPDEST \t\t\t\n      PUSH 0\t\t\t\n      PUSH [tag] 103\t\t\t\n      DUP3 \t\t\t\n      PUSH [tag] 43\t\t\t\n      JUMP \t\t\t\n    tag 103\t\t\t\n      JUMPDEST \t\t\t\n      SWAP2 \t\t\t\n      POP \t\t\t\n      PUSH [tag] 104\t\t\t\n      DUP4 \t\t\t\n      PUSH [tag] 43\t\t\t\n      JUMP \t\t\t\n    tag 104\t\t\t\n      JUMPDEST \t\t\t\n      SWAP3 \t\t\t\n      POP \t\t\t\n      DUP3 \t\t\t\n      PUSH [tag] 105\t\t\t\n      JUMPI \t\t\t\n      PUSH [tag] 106\t\t\t\n      PUSH [tag] 44\t\t\t\n      JUMP \t\t\t\n    tag 106\t\t\t\n      JUMPDEST \t\t\t\n    tag 105\t\t\t\n      JUMPDEST \t\t\t\n      DUP3 \t\t\t\n      DUP3 \t\t\t\n      DIV \t\t\t\n      SWAP1 \t\t\t\n      POP \t\t\t\n      SWAP3 \t\t\t\n      SWAP2 \t\t\t\n      POP \t\t\t\n      POP \t\t\t\n      JUMP \t\t\t\n    tag 46\t\t\t\n      JUMPDEST \t\t\t\n      PUSH 0\t\t\t\n      DUP3 \t\t\t\n      DUP3 \t\t\t\n      MSTORE \t\t\t\n      PUSH 20\t\t\t\n      DUP3 \t\t\t\n      ADD \t\t\t\n      SWAP1 \t\t\t\n      POP \t\t\t\n      SWAP3 \t\t\t\n      SWAP2 \t\t\t\n      POP \t\t\t\n      POP \t\t\t\n      JUMP \t\t\t\n    tag 47\t\t\t\n      JUMPDEST \t\t\t\n      PUSH 4E6F7420656E6F7567682045746865722073656E740000000000000000000000\t\t\t\n      PUSH 0\t\t\t\n      DUP3 \t\t\t\n      ADD \t\t\t\n      MSTORE \t\t\t\n      POP \t\t\t\n      JUMP \t\t\t\n    tag 48\t\t\t\n      JUMPDEST \t\t\t\n      PUSH 0\t\t\t\n      PUSH [tag] 110\t\t\t\n      PUSH 15\t\t\t\n      DUP4 \t\t\t\n      PUSH [tag] 46\t\t\t\n      JUMP \t\t\t\n    tag 110\t\t\t\n      JUMPDEST \t\t\t\n      SWAP2 \t\t\t\n      POP \t\t\t\n      PUSH [tag] 111\t\t\t\n      DUP3 \t\t\t\n      PUSH [tag] 47\t\t\t\n      JUMP \t\t\t\n    tag 111\t\t\t\n      JUMPDEST \t\t\t\n      PUSH 20\t\t\t\n      DUP3 \t\t\t\n      ADD \t\t\t\n      SWAP1 \t\t\t\n      POP \t\t\t\n      SWAP2 \t\t\t\n      SWAP1 \t\t\t\n      POP \t\t\t\n      JUMP \t\t\t\n    tag 12\t\t\t\n      JUMPDEST \t\t\t\n      PUSH 0\t\t\t\n      PUSH 20\t\t\t\n      DUP3 \t\t\t\n      ADD \t\t\t\n      SWAP1 \t\t\t\n      POP \t\t\t\n      DUP2 \t\t\t\n      DUP2 \t\t\t\n      SUB \t\t\t\n      PUSH 0\t\t\t\n      DUP4 \t\t\t\n      ADD \t\t\t\n      MSTORE \t\t\t\n      PUSH [tag] 113\t\t\t\n      DUP2 \t\t\t\n      PUSH [tag] 48\t\t\t\n      JUMP \t\t\t\n    tag 113\t\t\t\n      JUMPDEST \t\t\t\n      SWAP1 \t\t\t\n      POP \t\t\t\n      SWAP2 \t\t\t\n      SWAP1 \t\t\t\n      POP \t\t\t\n      JUMP \t\t\t\n    tag 18\t\t\t\n      JUMPDEST \t\t\t\n      PUSH 4E487B7100000000000000000000000000000000000000000000000000000000\t\t\t\n      PUSH 0\t\t\t\n      MSTORE \t\t\t\n      PUSH 32\t\t\t\n      PUSH 4\t\t\t\n      MSTORE \t\t\t\n      PUSH 24\t\t\t\n      PUSH 0\t\t\t\n      REVERT \t\t\t\n    tag 49\t\t\t\n      JUMPDEST \t\t\t\n      PUSH 0\t\t\t\n      DUP2 \t\t\t\n      SWAP1 \t\t\t\n      POP \t\t\t\n      SWAP3 \t\t\t\n      SWAP2 \t\t\t\n      POP \t\t\t\n      POP \t\t\t\n      JUMP \t\t\t\n    tag 50\t\t\t\n      JUMPDEST \t\t\t\n      POP \t\t\t\n      JUMP \t\t\t\n    tag 51\t\t\t\n      JUMPDEST \t\t\t\n      PUSH 0\t\t\t\n      PUSH [tag] 118\t\t\t\n      PUSH 0\t\t\t\n      DUP4 \t\t\t\n      PUSH [tag] 49\t\t\t\n      JUMP \t\t\t\n    tag 118\t\t\t\n      JUMPDEST \t\t\t\n      SWAP2 \t\t\t\n      POP \t\t\t\n      PUSH [tag] 119\t\t\t\n      DUP3 \t\t\t\n      PUSH [tag] 50\t\t\t\n      JUMP \t\t\t\n    tag 119\t\t\t\n      JUMPDEST \t\t\t\n      PUSH 0\t\t\t\n      DUP3 \t\t\t\n      ADD \t\t\t\n      SWAP1 \t\t\t\n      POP \t\t\t\n      SWAP2 \t\t\t\n      SWAP1 \t\t\t\n      POP \t\t\t\n      JUMP \t\t\t\n    tag 20\t\t\t\n      JUMPDEST \t\t\t\n      PUSH 0\t\t\t\n      PUSH [tag] 121\t\t\t\n      DUP3 \t\t\t\n      PUSH [tag] 51\t\t\t\n      JUMP \t\t\t\n    tag 121\t\t\t\n      JUMPDEST \t\t\t\n      SWAP2 \t\t\t\n      POP \t\t\t\n      DUP2 \t\t\t\n      SWAP1 \t\t\t\n      POP \t\t\t\n      SWAP2 \t\t\t\n      SWAP1 \t\t\t\n      POP \t\t\t\n      JUMP \t\t\t\n    tag 52\t\t\t\n      JUMPDEST \t\t\t\n      PUSH 5472616E73666572206661696C65640000000000000000000000000000000000\t\t\t\n      PUSH 0\t\t\t\n      DUP3 \t\t\t\n      ADD \t\t\t\n      MSTORE \t\t\t\n      POP \t\t\t\n      JUMP \t\t\t\n    tag 53\t\t\t\n      JUMPDEST \t\t\t\n      PUSH 0\t\t\t\n      PUSH [tag] 124\t\t\t\n      PUSH F\t\t\t\n      DUP4 \t\t\t\n      PUSH [tag] 46\t\t\t\n      JUMP \t\t\t\n    tag 124\t\t\t\n      JUMPDEST \t\t\t\n      SWAP2 \t\t\t\n      POP \t\t\t\n      PUSH [tag] 125\t\t\t\n      DUP3 \t\t\t\n      PUSH [tag] 52\t\t\t\n      JUMP \t\t\t\n    tag 125\t\t\t\n      JUMPDEST \t\t\t\n      PUSH 20\t\t\t\n      DUP3 \t\t\t\n      ADD \t\t\t\n      SWAP1 \t\t\t\n      POP \t\t\t\n      SWAP2 \t\t\t\n      SWAP1 \t\t\t\n      POP \t\t\t\n      JUMP \t\t\t\n    tag 26\t\t\t\n      JUMPDEST \t\t\t\n      PUSH 0\t\t\t\n      PUSH 20\t\t\t\n      DUP3 \t\t\t\n      ADD \t\t\t\n      SWAP1 \t\t\t\n      POP \t\t\t\n      DUP2 \t\t\t\n      DUP2 \t\t\t\n      SUB \t\t\t\n      PUSH 0\t\t\t\n      DUP4 \t\t\t\n      ADD \t\t\t\n      MSTORE \t\t\t\n      PUSH [tag] 127\t\t\t\n      DUP2 \t\t\t\n      PUSH [tag] 53\t\t\t\n      JUMP \t\t\t\n    tag 127\t\t\t\n      JUMPDEST \t\t\t\n      SWAP1 \t\t\t\n      POP \t\t\t\n      SWAP2 \t\t\t\n      SWAP1 \t\t\t\n      POP \t\t\t\n      JUMP \t\t\t\n    .data\n"
}