{
	"compilerInput": "{\"language\":\"Solidity\",\"sources\":{\"Simple Storage Smart Contract.sol\":{\"content\":\"// SPDX-License-Identifier: MIT\\r\\npragma solidity ^0.8.0;\\r\\n\\r\\ncontract SimpleStorage {\\r\\n    // Integer variable to store value\\r\\n    uint public value;\\r\\n\\r\\n    // Constructor (optional) to initialize value\\r\\n    constructor(uint _initialValue) {\\r\\n        value = _initialValue;\\r\\n    }\\r\\n\\r\\n    // Function to increment value\\r\\n    function increment() public {\\r\\n        value += 1;\\r\\n    }\\r\\n\\r\\n    // Function to decrement value\\r\\n    function decrement() public {\\r\\n        require(value > 0, \\\"Value cannot be negative\\\"); // safe check\\r\\n        value -= 1;\\r\\n    }\\r\\n\\r\\n    // Getter function (optional, already public variable works)\\r\\n    function getValue() public view returns (uint) {\\r\\n        return value;\\r\\n    }\\r\\n}\\r\\n\"}},\"settings\":{\"optimizer\":{\"enabled\":false,\"runs\":200},\"outputSelection\":{\"*\":{\"\":[\"ast\"],\"*\":[\"abi\",\"metadata\",\"devdoc\",\"userdoc\",\"storageLayout\",\"evm.legacyAssembly\",\"evm.bytecode\",\"evm.deployedBytecode\",\"evm.methodIdentifiers\",\"evm.gasEstimates\",\"evm.assembly\"]}},\"remappings\":[]}}",
	"name": "SimpleStorage",
	"bytecode": {
		"linkReferences": {},
		"object": "6080604052348015600e575f5ffd5b506040516103323803806103328339818101604052810190602e9190606b565b805f81905550506091565b5f5ffd5b5f819050919050565b604d81603d565b81146056575f5ffd5b50565b5f815190506065816046565b92915050565b5f60208284031215607d57607c6039565b5b5f6088848285016059565b91505092915050565b6102948061009e5f395ff3fe608060405234801561000f575f5ffd5b506004361061004a575f3560e01c8063209652551461004e5780632baeceb71461006c5780633fa4f24514610076578063d09de08a14610094575b5f5ffd5b61005661009e565b604051610063919061013a565b60405180910390f35b6100746100a6565b005b61007e610103565b60405161008b919061013a565b60405180910390f35b61009c610108565b005b5f5f54905090565b5f5f54116100e9576040517f08c379a00000000000000000000000000000000000000000000000000000000081526004016100e0906101ad565b60405180910390fd5b60015f5f8282546100fa91906101f8565b92505081905550565b5f5481565b60015f5f828254610119919061022b565b92505081905550565b5f819050919050565b61013481610122565b82525050565b5f60208201905061014d5f83018461012b565b92915050565b5f82825260208201905092915050565b7f56616c75652063616e6e6f74206265206e6567617469766500000000000000005f82015250565b5f610197601883610153565b91506101a282610163565b602082019050919050565b5f6020820190508181035f8301526101c48161018b565b9050919050565b7f4e487b71000000000000000000000000000000000000000000000000000000005f52601160045260245ffd5b5f61020282610122565b915061020d83610122565b9250828203905081811115610225576102246101cb565b5b92915050565b5f61023582610122565b915061024083610122565b9250828201905080821115610258576102576101cb565b5b9291505056fea264697066735822122041d7b012f7a36594150c771fa03aaa0f3d175e3de332543338edc506a389204764736f6c634300081e0033",
		"opcodes": "PUSH1 0x80 PUSH1 0x40 MSTORE CALLVALUE DUP1 ISZERO PUSH1 0xE JUMPI PUSH0 PUSH0 REVERT JUMPDEST POP PUSH1 0x40 MLOAD PUSH2 0x332 CODESIZE SUB DUP1 PUSH2 0x332 DUP4 CODECOPY DUP2 DUP2 ADD PUSH1 0x40 MSTORE DUP2 ADD SWAP1 PUSH1 0x2E SWAP2 SWAP1 PUSH1 0x6B JUMP JUMPDEST DUP1 PUSH0 DUP2 SWAP1 SSTORE POP POP PUSH1 0x91 JUMP JUMPDEST PUSH0 PUSH0 REVERT JUMPDEST PUSH0 DUP2 SWAP1 POP SWAP2 SWAP1 POP JUMP JUMPDEST PUSH1 0x4D DUP2 PUSH1 0x3D JUMP JUMPDEST DUP2 EQ PUSH1 0x56 JUMPI PUSH0 PUSH0 REVERT JUMPDEST POP JUMP JUMPDEST PUSH0 DUP2 MLOAD SWAP1 POP PUSH1 0x65 DUP2 PUSH1 0x46 JUMP JUMPDEST SWAP3 SWAP2 POP POP JUMP JUMPDEST PUSH0 PUSH1 0x20 DUP3 DUP5 SUB SLT ISZERO PUSH1 0x7D JUMPI PUSH1 0x7C PUSH1 0x39 JUMP JUMPDEST JUMPDEST PUSH0 PUSH1 0x88 DUP5 DUP3 DUP6 ADD PUSH1 0x59 JUMP JUMPDEST SWAP2 POP POP SWAP3 SWAP2 POP POP JUMP JUMPDEST PUSH2 0x294 DUP1 PUSH2 0x9E PUSH0 CODECOPY PUSH0 RETURN INVALID PUSH1 0x80 PUSH1 0x40 MSTORE CALLVALUE DUP1 ISZERO PUSH2 0xF JUMPI PUSH0 PUSH0 REVERT JUMPDEST POP PUSH1 0x4 CALLDATASIZE LT PUSH2 0x4A JUMPI PUSH0 CALLDATALOAD PUSH1 0xE0 SHR DUP1 PUSH4 0x20965255 EQ PUSH2 0x4E JUMPI DUP1 PUSH4 0x2BAECEB7 EQ PUSH2 0x6C JUMPI DUP1 PUSH4 0x3FA4F245 EQ PUSH2 0x76 JUMPI DUP1 PUSH4 0xD09DE08A EQ PUSH2 0x94 JUMPI JUMPDEST PUSH0 PUSH0 REVERT JUMPDEST PUSH2 0x56 PUSH2 0x9E JUMP JUMPDEST PUSH1 0x40 MLOAD PUSH2 0x63 SWAP2 SWAP1 PUSH2 0x13A JUMP JUMPDEST PUSH1 0x40 MLOAD DUP1 SWAP2 SUB SWAP1 RETURN JUMPDEST PUSH2 0x74 PUSH2 0xA6 JUMP JUMPDEST STOP JUMPDEST PUSH2 0x7E PUSH2 0x103 JUMP JUMPDEST PUSH1 0x40 MLOAD PUSH2 0x8B SWAP2 SWAP1 PUSH2 0x13A JUMP JUMPDEST PUSH1 0x40 MLOAD DUP1 SWAP2 SUB SWAP1 RETURN JUMPDEST PUSH2 0x9C PUSH2 0x108 JUMP JUMPDEST STOP JUMPDEST PUSH0 PUSH0 SLOAD SWAP1 POP SWAP1 JUMP JUMPDEST PUSH0 PUSH0 SLOAD GT PUSH2 0xE9 JUMPI PUSH1 0x40 MLOAD PUSH32 0x8C379A000000000000000000000000000000000000000000000000000000000 DUP2 MSTORE PUSH1 0x4 ADD PUSH2 0xE0 SWAP1 PUSH2 0x1AD JUMP JUMPDEST PUSH1 0x40 MLOAD DUP1 SWAP2 SUB SWAP1 REVERT JUMPDEST PUSH1 0x1 PUSH0 PUSH0 DUP3 DUP3 SLOAD PUSH2 0xFA SWAP2 SWAP1 PUSH2 0x1F8 JUMP JUMPDEST SWAP3 POP POP DUP2 SWAP1 SSTORE POP JUMP JUMPDEST PUSH0 SLOAD DUP2 JUMP JUMPDEST PUSH1 0x1 PUSH0 PUSH0 DUP3 DUP3 SLOAD PUSH2 0x119 SWAP2 SWAP1 PUSH2 0x22B JUMP JUMPDEST SWAP3 POP POP DUP2 SWAP1 SSTORE POP JUMP JUMPDEST PUSH0 DUP2 SWAP1 POP SWAP2 SWAP1 POP JUMP JUMPDEST PUSH2 0x134 DUP2 PUSH2 0x122 JUMP JUMPDEST DUP3 MSTORE POP POP JUMP JUMPDEST PUSH0 PUSH1 0x20 DUP3 ADD SWAP1 POP PUSH2 0x14D PUSH0 DUP4 ADD DUP5 PUSH2 0x12B JUMP JUMPDEST SWAP3 SWAP2 POP POP JUMP JUMPDEST PUSH0 DUP3 DUP3 MSTORE PUSH1 0x20 DUP3 ADD SWAP1 POP SWAP3 SWAP2 POP POP JUMP JUMPDEST PUSH32 0x56616C75652063616E6E6F74206265206E656761746976650000000000000000 PUSH0 DUP3 ADD MSTORE POP JUMP JUMPDEST PUSH0 PUSH2 0x197 PUSH1 0x18 DUP4 PUSH2 0x153 JUMP JUMPDEST SWAP2 POP PUSH2 0x1A2 DUP3 PUSH2 0x163 JUMP JUMPDEST PUSH1 0x20 DUP3 ADD SWAP1 POP SWAP2 SWAP1 POP JUMP JUMPDEST PUSH0 PUSH1 0x20 DUP3 ADD SWAP1 POP DUP2 DUP2 SUB PUSH0 DUP4 ADD MSTORE PUSH2 0x1C4 DUP2 PUSH2 0x18B JUMP JUMPDEST SWAP1 POP SWAP2 SWAP1 POP JUMP JUMPDEST PUSH32 0x4E487B7100000000000000000000000000000000000000000000000000000000 PUSH0 MSTORE PUSH1 0x11 PUSH1 0x4 MSTORE PUSH1 0x24 PUSH0 REVERT JUMPDEST PUSH0 PUSH2 0x202 DUP3 PUSH2 0x122 JUMP JUMPDEST SWAP2 POP PUSH2 0x20D DUP4 PUSH2 0x122 JUMP JUMPDEST SWAP3 POP DUP3 DUP3 SUB SWAP1 POP DUP2 DUP2 GT ISZERO PUSH2 0x225 JUMPI PUSH2 0x224 PUSH2 0x1CB JUMP JUMPDEST JUMPDEST SWAP3 SWAP2 POP POP JUMP JUMPDEST PUSH0 PUSH2 0x235 DUP3 PUSH2 0x122 JUMP JUMPDEST SWAP2 POP PUSH2 0x240 DUP4 PUSH2 0x122 JUMP JUMPDEST SWAP3 POP DUP3 DUP3 ADD SWAP1 POP DUP1 DUP3 GT ISZERO PUSH2 0x258 JUMPI PUSH2 0x257 PUSH2 0x1CB JUMP JUMPDEST JUMPDEST SWAP3 SWAP2 POP POP JUMP INVALID LOG2 PUSH5 0x6970667358 0x22 SLT KECCAK256 COINBASE 0xD7 0xB0 SLT 0xF7 LOG3 PUSH6 0x94150C771FA0 GASPRICE 0xAA 0xF RETURNDATASIZE OR MCOPY RETURNDATASIZE CALLF 0x3254 CALLER CODESIZE 0xED 0xC5 MOD LOG3 DUP10 KECCAK256 SELFBALANCE PUSH5 0x736F6C6343 STOP ADDMOD 0x1E STOP CALLER "
	},
	"abi": [
		{
			"inputs": [
				{
					"internalType": "uint256",
					"name": "_initialValue",
					"type": "uint256"
				}
			],
			"stateMutability": "nonpayable",
			"type": "constructor"
		},
		{
			"inputs": [],
			"name": "decrement",
			"outputs": [],
			"stateMutability": "nonpayable",
			"type": "function"
		},
		{
			"inputs": [],
			"name": "getValue",
			"outputs": [
				{
					"internalType": "uint256",
					"name": "",
					"type": "uint256"
				}
			],
			"stateMutability": "view",
			"type": "function"
		},
		{
			"inputs": [],
			"name": "increment",
			"outputs": [],
			"stateMutability": "nonpayable",
			"type": "function"
		},
		{
			"inputs": [],
			"name": "value",
			"outputs": [
				{
					"internalType": "uint256",
					"name": "",
					"type": "uint256"
				}
			],
			"stateMutability": "view",
			"type": "function"
		}
	],
	"storageLayout": {
		"storage": [
			{
				"astId": 3,
				"contract": "Simple Storage Smart Contract.sol:SimpleStorage",
				"label": "value",
				"offset": 0,
				"slot": "0",
				"type": "t_uint256"
			}
		],
		"types": {
			"t_uint256": {
				"encoding": "inplace",
				"label": "uint256",
				"numberOfBytes": "32"
			}
		}
	},
	"web3Deploy": "var _initialValue = /* var of type uint256 here */ ;\nvar simplestorageContract = new web3.eth.Contract([{\"inputs\":[{\"internalType\":\"uint256\",\"name\":\"_initialValue\",\"type\":\"uint256\"}],\"stateMutability\":\"nonpayable\",\"type\":\"constructor\"},{\"inputs\":[],\"name\":\"decrement\",\"outputs\":[],\"stateMutability\":\"nonpayable\",\"type\":\"function\"},{\"inputs\":[],\"name\":\"getValue\",\"outputs\":[{\"internalType\":\"uint256\",\"name\":\"\",\"type\":\"uint256\"}],\"stateMutability\":\"view\",\"type\":\"function\"},{\"inputs\":[],\"name\":\"increment\",\"outputs\":[],\"stateMutability\":\"nonpayable\",\"type\":\"function\"},{\"inputs\":[],\"name\":\"value\",\"outputs\":[{\"internalType\":\"uint256\",\"name\":\"\",\"type\":\"uint256\"}],\"stateMutability\":\"view\",\"type\":\"function\"}]);\nvar simplestorage = simplestorageContract.deploy({\n     data: '0x6080604052348015600e575f5ffd5b506040516103323803806103328339818101604052810190602e9190606b565b805f81905550506091565b5f5ffd5b5f819050919050565b604d81603d565b81146056575f5ffd5b50565b5f815190506065816046565b92915050565b5f60208284031215607d57607c6039565b5b5f6088848285016059565b91505092915050565b6102948061009e5f395ff3fe608060405234801561000f575f5ffd5b506004361061004a575f3560e01c8063209652551461004e5780632baeceb71461006c5780633fa4f24514610076578063d09de08a14610094575b5f5ffd5b61005661009e565b604051610063919061013a565b60405180910390f35b6100746100a6565b005b61007e610103565b60405161008b919061013a565b60405180910390f35b61009c610108565b005b5f5f54905090565b5f5f54116100e9576040517f08c379a00000000000000000000000000000000000000000000000000000000081526004016100e0906101ad565b60405180910390fd5b60015f5f8282546100fa91906101f8565b92505081905550565b5f5481565b60015f5f828254610119919061022b565b92505081905550565b5f819050919050565b61013481610122565b82525050565b5f60208201905061014d5f83018461012b565b92915050565b5f82825260208201905092915050565b7f56616c75652063616e6e6f74206265206e6567617469766500000000000000005f82015250565b5f610197601883610153565b91506101a282610163565b602082019050919050565b5f6020820190508181035f8301526101c48161018b565b9050919050565b7f4e487b71000000000000000000000000000000000000000000000000000000005f52601160045260245ffd5b5f61020282610122565b915061020d83610122565b9250828203905081811115610225576102246101cb565b5b92915050565b5f61023582610122565b915061024083610122565b9250828201905080821115610258576102576101cb565b5b9291505056fea264697066735822122041d7b012f7a36594150c771fa03aaa0f3d175e3de332543338edc506a389204764736f6c634300081e0033', \n     arguments: [\n          _initialValue,\n     ]\n}).send({\n     from: web3.eth.accounts[0], \n     gas: '4700000'\n   }, function (e, contract){\n    console.log(e, contract);\n    if (typeof contract.address !== 'undefined') {\n         console.log('Contract mined! address: ' + contract.address + ' transactionHash: ' + contract.transactionHash);\n    }\n })",
	"functionHashes": {
		"20965255": "getValue()",
		"2baeceb7": "decrement()",
		"d09de08a": "increment()",
		"3fa4f245": "value()"
	},
	"gasEstimates": {
		"Creation": {
			"codeDepositCost": "132000",
			"executionCost": "infinite",
			"totalCost": "infinite"
		},
		"External": {
			"decrement()": "infinite",
			"getValue()": "2409",
			"increment()": "infinite",
			"value()": "2446"
		}
	},
	"devdoc": {
		"kind": "dev",
		"methods": {},
		"version": 1
	},
	"userdoc": {
		"kind": "user",
		"methods": {},
		"version": 1
	},
	"Runtime Bytecode": {
		"immutableReferences": {},
		"linkReferences": {},
		"object": "608060405234801561000f575f5ffd5b506004361061004a575f3560e01c8063209652551461004e5780632baeceb71461006c5780633fa4f24514610076578063d09de08a14610094575b5f5ffd5b61005661009e565b604051610063919061013a565b60405180910390f35b6100746100a6565b005b61007e610103565b60405161008b919061013a565b60405180910390f35b61009c610108565b005b5f5f54905090565b5f5f54116100e9576040517f08c379a00000000000000000000000000000000000000000000000000000000081526004016100e0906101ad565b60405180910390fd5b60015f5f8282546100fa91906101f8565b92505081905550565b5f5481565b60015f5f828254610119919061022b565b92505081905550565b5f819050919050565b61013481610122565b82525050565b5f60208201905061014d5f83018461012b565b92915050565b5f82825260208201905092915050565b7f56616c75652063616e6e6f74206265206e6567617469766500000000000000005f82015250565b5f610197601883610153565b91506101a282610163565b602082019050919050565b5f6020820190508181035f8301526101c48161018b565b9050919050565b7f4e487b71000000000000000000000000000000000000000000000000000000005f52601160045260245ffd5b5f61020282610122565b915061020d83610122565b9250828203905081811115610225576102246101cb565b5b92915050565b5f61023582610122565b915061024083610122565b9250828201905080821115610258576102576101cb565b5b9291505056fea264697066735822122041d7b012f7a36594150c771fa03aaa0f3d175e3de332543338edc506a389204764736f6c634300081e0033",
		"opcodes": "PUSH1 0x80 PUSH1 0x40 MSTORE CALLVALUE DUP1 ISZERO PUSH2 0xF JUMPI PUSH0 PUSH0 REVERT JUMPDEST POP PUSH1 0x4 CALLDATASIZE LT PUSH2 0x4A JUMPI PUSH0 CALLDATALOAD PUSH1 0xE0 SHR DUP1 PUSH4 0x20965255 EQ PUSH2 0x4E JUMPI DUP1 PUSH4 0x2BAECEB7 EQ PUSH2 0x6C JUMPI DUP1 PUSH4 0x3FA4F245 EQ PUSH2 0x76 JUMPI DUP1 PUSH4 0xD09DE08A EQ PUSH2 0x94 JUMPI JUMPDEST PUSH0 PUSH0 REVERT JUMPDEST PUSH2 0x56 PUSH2 0x9E JUMP JUMPDEST PUSH1 0x40 MLOAD PUSH2 0x63 SWAP2 SWAP1 PUSH2 0x13A JUMP JUMPDEST PUSH1 0x40 MLOAD DUP1 SWAP2 SUB SWAP1 RETURN JUMPDEST PUSH2 0x74 PUSH2 0xA6 JUMP JUMPDEST STOP JUMPDEST PUSH2 0x7E PUSH2 0x103 JUMP JUMPDEST PUSH1 0x40 MLOAD PUSH2 0x8B SWAP2 SWAP1 PUSH2 0x13A JUMP JUMPDEST PUSH1 0x40 MLOAD DUP1 SWAP2 SUB SWAP1 RETURN JUMPDEST PUSH2 0x9C PUSH2 0x108 JUMP JUMPDEST STOP JUMPDEST PUSH0 PUSH0 SLOAD SWAP1 POP SWAP1 JUMP JUMPDEST PUSH0 PUSH0 SLOAD GT PUSH2 0xE9 JUMPI PUSH1 0x40 MLOAD PUSH32 0x8C379A000000000000000000000000000000000000000000000000000000000 DUP2 MSTORE PUSH1 0x4 ADD PUSH2 0xE0 SWAP1 PUSH2 0x1AD JUMP JUMPDEST PUSH1 0x40 MLOAD DUP1 SWAP2 SUB SWAP1 REVERT JUMPDEST PUSH1 0x1 PUSH0 PUSH0 DUP3 DUP3 SLOAD PUSH2 0xFA SWAP2 SWAP1 PUSH2 0x1F8 JUMP JUMPDEST SWAP3 POP POP DUP2 SWAP1 SSTORE POP JUMP JUMPDEST PUSH0 SLOAD DUP2 JUMP JUMPDEST PUSH1 0x1 PUSH0 PUSH0 DUP3 DUP3 SLOAD PUSH2 0x119 SWAP2 SWAP1 PUSH2 0x22B JUMP JUMPDEST SWAP3 POP POP DUP2 SWAP1 SSTORE POP JUMP JUMPDEST PUSH0 DUP2 SWAP1 POP SWAP2 SWAP1 POP JUMP JUMPDEST PUSH2 0x134 DUP2 PUSH2 0x122 JUMP JUMPDEST DUP3 MSTORE POP POP JUMP JUMPDEST PUSH0 PUSH1 0x20 DUP3 ADD SWAP1 POP PUSH2 0x14D PUSH0 DUP4 ADD DUP5 PUSH2 0x12B JUMP JUMPDEST SWAP3 SWAP2 POP POP JUMP JUMPDEST PUSH0 DUP3 DUP3 MSTORE PUSH1 0x20 DUP3 ADD SWAP1 POP SWAP3 SWAP2 POP POP JUMP JUMPDEST PUSH32 0x56616C75652063616E6E6F74206265206E656761746976650000000000000000 PUSH0 DUP3 ADD MSTORE POP JUMP JUMPDEST PUSH0 PUSH2 0x197 PUSH1 0x18 DUP4 PUSH2 0x153 JUMP JUMPDEST SWAP2 POP PUSH2 0x1A2 DUP3 PUSH2 0x163 JUMP JUMPDEST PUSH1 0x20 DUP3 ADD SWAP1 POP SWAP2 SWAP1 POP JUMP JUMPDEST PUSH0 PUSH1 0x20 DUP3 ADD SWAP1 POP DUP2 DUP2 SUB PUSH0 DUP4 ADD MSTORE PUSH2 0x1C4 DUP2 PUSH2 0x18B JUMP JUMPDEST SWAP1 POP SWAP2 SWAP1 POP JUMP JUMPDEST PUSH32 0x4E487B7100000000000000000000000000000000000000000000000000000000 PUSH0 MSTORE PUSH1 0x11 PUSH1 0x4 MSTORE PUSH1 0x24 PUSH0 REVERT JUMPDEST PUSH0 PUSH2 0x202 DUP3 PUSH2 0x122 JUMP JUMPDEST SWAP2 POP PUSH2 0x20D DUP4 PUSH2 0x122 JUMP JUMPDEST SWAP3 POP DUP3 DUP3 SUB SWAP1 POP DUP2 DUP2 GT ISZERO PUSH2 0x225 JUMPI PUSH2 0x224 PUSH2 0x1CB JUMP JUMPDEST JUMPDEST SWAP3 SWAP2 POP POP JUMP JUMPDEST PUSH0 PUSH2 0x235 DUP3 PUSH2 0x122 JUMP JUMPDEST SWAP2 POP PUSH2 0x240 DUP4 PUSH2 0x122 JUMP JUMPDEST SWAP3 POP DUP3 DUP3 ADD SWAP1 POP DUP1 DUP3 GT ISZERO PUSH2 0x258 JUMPI PUSH2 0x257 PUSH2 0x1CB JUMP JUMPDEST JUMPDEST SWAP3 SWAP2 POP POP JUMP INVALID LOG2 PUSH5 0x6970667358 0x22 SLT KECCAK256 COINBASE 0xD7 0xB0 SLT 0xF7 LOG3 PUSH6 0x94150C771FA0 GASPRICE 0xAA 0xF RETURNDATASIZE OR MCOPY RETURNDATASIZE CALLF 0x3254 CALLER CODESIZE 0xED 0xC5 MOD LOG3 DUP10 KECCAK256 SELFBALANCE PUSH5 0x736F6C6343 STOP ADDMOD 0x1E STOP CALLER "
	},
	"Assembly": ".code\n  PUSH 80\t\t\tcontract SimpleStorage {\\r\\n  ...\n  PUSH 40\t\t\tcontract SimpleStorage {\\r\\n  ...\n  MSTORE \t\t\tcontract SimpleStorage {\\r\\n  ...\n  CALLVALUE \t\t\tconstructor(uint _initialValue...\n  DUP1 \t\t\tconstructor(uint _initialValue...\n  ISZERO \t\t\tconstructor(uint _initialValue...\n  PUSH [tag] 1\t\t\tconstructor(uint _initialValue...\n  JUMPI \t\t\tconstructor(uint _initialValue...\n  PUSH 0\t\t\tconstructor(uint _initialValue...\n  PUSH 0\t\t\tconstructor(uint _initialValue...\n  REVERT \t\t\tconstructor(uint _initialValue...\ntag 1\t\t\tconstructor(uint _initialValue...\n  JUMPDEST \t\t\tconstructor(uint _initialValue...\n  POP \t\t\tconstructor(uint _initialValue...\n  PUSH 40\t\t\tconstructor(uint _initialValue...\n  MLOAD \t\t\tconstructor(uint _initialValue...\n  PUSHSIZE \t\t\tconstructor(uint _initialValue...\n  CODESIZE \t\t\tconstructor(uint _initialValue...\n  SUB \t\t\tconstructor(uint _initialValue...\n  DUP1 \t\t\tconstructor(uint _initialValue...\n  PUSHSIZE \t\t\tconstructor(uint _initialValue...\n  DUP4 \t\t\tconstructor(uint _initialValue...\n  CODECOPY \t\t\tconstructor(uint _initialValue...\n  DUP2 \t\t\tconstructor(uint _initialValue...\n  DUP2 \t\t\tconstructor(uint _initialValue...\n  ADD \t\t\tconstructor(uint _initialValue...\n  PUSH 40\t\t\tconstructor(uint _initialValue...\n  MSTORE \t\t\tconstructor(uint _initialValue...\n  DUP2 \t\t\tconstructor(uint _initialValue...\n  ADD \t\t\tconstructor(uint _initialValue...\n  SWAP1 \t\t\tconstructor(uint _initialValue...\n  PUSH [tag] 2\t\t\tconstructor(uint _initialValue...\n  SWAP2 \t\t\tconstructor(uint _initialValue...\n  SWAP1 \t\t\tconstructor(uint _initialValue...\n  PUSH [tag] 3\t\t\tconstructor(uint _initialValue...\n  JUMP \t\t\tconstructor(uint _initialValue...\ntag 2\t\t\tconstructor(uint _initialValue...\n  JUMPDEST \t\t\tconstructor(uint _initialValue...\n  DUP1 \t\t\t_initialValue\n  PUSH 0\t\t\tvalue\n  DUP2 \t\t\tvalue = _initialValue\n  SWAP1 \t\t\tvalue = _initialValue\n  SSTORE \t\t\tvalue = _initialValue\n  POP \t\t\tvalue = _initialValue\n  POP \t\t\tconstructor(uint _initialValue...\n  PUSH [tag] 6\t\t\tcontract SimpleStorage {\\r\\n  ...\n  JUMP \t\t\tcontract SimpleStorage {\\r\\n  ...\ntag 8\t\t\t  // Integer variable to store...\n  JUMPDEST \t\t\t  // Integer variable to store...\n  PUSH 0\t\t\ta\n  PUSH 0\t\t\te\n  REVERT \t\t\titialize val\ntag 10\t\t\tcrement() public {\\r\\n        ...\n  JUMPDEST \t\t\tcrement() public {\\r\\n        ...\n  PUSH 0\t\t\t1;\\r\\n   \n  DUP2 \t\t\tto de\n  SWAP1 \t\t\t/ Function to de\n  POP \t\t\t/ Function to de\n  SWAP2 \t\t\tcrement() public {\\r\\n        ...\n  SWAP1 \t\t\tcrement() public {\\r\\n        ...\n  POP \t\t\tcrement() public {\\r\\n        ...\n  JUMP \t\t\tcrement() public {\\r\\n        ...\ntag 11\t\t\te\\r\\n    function decrement() ...\n  JUMPDEST \t\t\te\\r\\n    function decrement() ...\n  PUSH [tag] 19\t\t\tannot be negative\"); // \n  DUP2 \t\t\t); //\n  PUSH [tag] 10\t\t\tannot be negative\"); // \n  JUMP \t\t\tannot be negative\"); // \ntag 19\t\t\tannot be negative\"); // \n  JUMPDEST \t\t\tannot be negative\"); // \n  DUP2 \t\t\tValue\n  EQ \t\t\t, \"Value cannot be negative\");...\n  PUSH [tag] 20\t\t\t(value > 0, \"Value cannot be n...\n  JUMPI \t\t\t(value > 0, \"Value cannot be n...\n  PUSH 0\t\t\t \n  PUSH 0\t\t\t \n  REVERT \t\t\tcheck\\r\\n     \ntag 20\t\t\t(value > 0, \"Value cannot be n...\n  JUMPDEST \t\t\t(value > 0, \"Value cannot be n...\n  POP \t\t\te\\r\\n    function decrement() ...\n  JUMP \t\t\te\\r\\n    function decrement() ...\ntag 12\t\t\t\\r\\n    }\\r\\n\\r\\n    // Getter...\n  JUMPDEST \t\t\t\\r\\n    }\\r\\n\\r\\n    // Getter...\n  PUSH 0\t\t\tic va\n  DUP2 \t\t\tn getV\n  MLOAD \t\t\tunction getVa\n  SWAP1 \t\t\ts)\\r\\n    function getVa\n  POP \t\t\ts)\\r\\n    function getVa\n  PUSH [tag] 22\t\t\tlic view returns (uint) {\\r\\n ...\n  DUP2 \t\t\t     \n  PUSH [tag] 11\t\t\tlic view returns (uint) {\\r\\n ...\n  JUMP \t\t\tlic view returns (uint) {\\r\\n ...\ntag 22\t\t\tlic view returns (uint) {\\r\\n ...\n  JUMPDEST \t\t\tlic view returns (uint) {\\r\\n ...\n  SWAP3 \t\t\t\\r\\n    }\\r\\n\\r\\n    // Getter...\n  SWAP2 \t\t\t\\r\\n    }\\r\\n\\r\\n    // Getter...\n  POP \t\t\t\\r\\n    }\\r\\n\\r\\n    // Getter...\n  POP \t\t\t\\r\\n    }\\r\\n\\r\\n    // Getter...\n  JUMP \t\t\t\\r\\n    }\\r\\n\\r\\n    // Getter...\ntag 3\t\t\tue;\\r\\n    }\\r\\n}\\r\\n\n  JUMPDEST \t\t\tue;\\r\\n    }\\r\\n}\\r\\n\n  PUSH 0\t\t\t\n  PUSH 20\t\t\t\n  DUP3 \t\t\t\n  DUP5 \t\t\t\n  SUB \t\t\t\n  SLT \t\t\t\n  ISZERO \t\t\t\n  PUSH [tag] 24\t\t\t\n  JUMPI \t\t\t\n  PUSH [tag] 25\t\t\t\n  PUSH [tag] 8\t\t\t\n  JUMP \t\t\t\ntag 25\t\t\t\n  JUMPDEST \t\t\t\ntag 24\t\t\t\n  JUMPDEST \t\t\t\n  PUSH 0\t\t\t\n  PUSH [tag] 26\t\t\t\n  DUP5 \t\t\t\n  DUP3 \t\t\t\n  DUP6 \t\t\t\n  ADD \t\t\t\n  PUSH [tag] 12\t\t\t\n  JUMP \t\t\t\ntag 26\t\t\t\n  JUMPDEST \t\t\t\n  SWAP2 \t\t\t\n  POP \t\t\t\n  POP \t\t\t\n  SWAP3 \t\t\tue;\\r\\n    }\\r\\n}\\r\\n\n  SWAP2 \t\t\tue;\\r\\n    }\\r\\n}\\r\\n\n  POP \t\t\tue;\\r\\n    }\\r\\n}\\r\\n\n  POP \t\t\tue;\\r\\n    }\\r\\n}\\r\\n\n  JUMP \t\t\tue;\\r\\n    }\\r\\n}\\r\\n\ntag 6\t\t\tcontract SimpleStorage {\\r\\n  ...\n  JUMPDEST \t\t\tcontract SimpleStorage {\\r\\n  ...\n  PUSH #[$] 0000000000000000000000000000000000000000000000000000000000000000\t\t\tcontract SimpleStorage {\\r\\n  ...\n  DUP1 \t\t\tcontract SimpleStorage {\\r\\n  ...\n  PUSH [$] 0000000000000000000000000000000000000000000000000000000000000000\t\t\tcontract SimpleStorage {\\r\\n  ...\n  PUSH 0\t\t\tcontract SimpleStorage {\\r\\n  ...\n  CODECOPY \t\t\tcontract SimpleStorage {\\r\\n  ...\n  PUSH 0\t\t\tcontract SimpleStorage {\\r\\n  ...\n  RETURN \t\t\tcontract SimpleStorage {\\r\\n  ...\n.data\n  0:\n    .code\n      PUSH 80\t\t\tcontract SimpleStorage {\\r\\n  ...\n      PUSH 40\t\t\tcontract SimpleStorage {\\r\\n  ...\n      MSTORE \t\t\tcontract SimpleStorage {\\r\\n  ...\n      CALLVALUE \t\t\tcontract SimpleStorage {\\r\\n  ...\n      DUP1 \t\t\tcontract SimpleStorage {\\r\\n  ...\n      ISZERO \t\t\tcontract SimpleStorage {\\r\\n  ...\n      PUSH [tag] 1\t\t\tcontract SimpleStorage {\\r\\n  ...\n      JUMPI \t\t\tcontract SimpleStorage {\\r\\n  ...\n      PUSH 0\t\t\tcontract SimpleStorage {\\r\\n  ...\n      PUSH 0\t\t\tcontract SimpleStorage {\\r\\n  ...\n      REVERT \t\t\tcontract SimpleStorage {\\r\\n  ...\n    tag 1\t\t\tcontract SimpleStorage {\\r\\n  ...\n      JUMPDEST \t\t\tcontract SimpleStorage {\\r\\n  ...\n      POP \t\t\tcontract SimpleStorage {\\r\\n  ...\n      PUSH 4\t\t\tcontract SimpleStorage {\\r\\n  ...\n      CALLDATASIZE \t\t\tcontract SimpleStorage {\\r\\n  ...\n      LT \t\t\tcontract SimpleStorage {\\r\\n  ...\n      PUSH [tag] 2\t\t\tcontract SimpleStorage {\\r\\n  ...\n      JUMPI \t\t\tcontract SimpleStorage {\\r\\n  ...\n      PUSH 0\t\t\tcontract SimpleStorage {\\r\\n  ...\n      CALLDATALOAD \t\t\tcontract SimpleStorage {\\r\\n  ...\n      PUSH E0\t\t\tcontract SimpleStorage {\\r\\n  ...\n      SHR \t\t\tcontract SimpleStorage {\\r\\n  ...\n      DUP1 \t\t\tcontract SimpleStorage {\\r\\n  ...\n      PUSH 20965255\t\t\tcontract SimpleStorage {\\r\\n  ...\n      EQ \t\t\tcontract SimpleStorage {\\r\\n  ...\n      PUSH [tag] 3\t\t\tcontract SimpleStorage {\\r\\n  ...\n      JUMPI \t\t\tcontract SimpleStorage {\\r\\n  ...\n      DUP1 \t\t\tcontract SimpleStorage {\\r\\n  ...\n      PUSH 2BAECEB7\t\t\tcontract SimpleStorage {\\r\\n  ...\n      EQ \t\t\tcontract SimpleStorage {\\r\\n  ...\n      PUSH [tag] 4\t\t\tcontract SimpleStorage {\\r\\n  ...\n      JUMPI \t\t\tcontract SimpleStorage {\\r\\n  ...\n      DUP1 \t\t\tcontract SimpleStorage {\\r\\n  ...\n      PUSH 3FA4F245\t\t\tcontract SimpleStorage {\\r\\n  ...\n      EQ \t\t\tcontract SimpleStorage {\\r\\n  ...\n      PUSH [tag] 5\t\t\tcontract SimpleStorage {\\r\\n  ...\n      JUMPI \t\t\tcontract SimpleStorage {\\r\\n  ...\n      DUP1 \t\t\tcontract SimpleStorage {\\r\\n  ...\n      PUSH D09DE08A\t\t\tcontract SimpleStorage {\\r\\n  ...\n      EQ \t\t\tcontract SimpleStorage {\\r\\n  ...\n      PUSH [tag] 6\t\t\tcontract SimpleStorage {\\r\\n  ...\n      JUMPI \t\t\tcontract SimpleStorage {\\r\\n  ...\n    tag 2\t\t\tcontract SimpleStorage {\\r\\n  ...\n      JUMPDEST \t\t\tcontract SimpleStorage {\\r\\n  ...\n      PUSH 0\t\t\tcontract SimpleStorage {\\r\\n  ...\n      PUSH 0\t\t\tcontract SimpleStorage {\\r\\n  ...\n      REVERT \t\t\tcontract SimpleStorage {\\r\\n  ...\n    tag 3\t\t\tfunction getValue() public vie...\n      JUMPDEST \t\t\tfunction getValue() public vie...\n      PUSH [tag] 7\t\t\tfunction getValue() public vie...\n      PUSH [tag] 8\t\t\tfunction getValue() public vie...\n      JUMP \t\t\tfunction getValue() public vie...\n    tag 7\t\t\tfunction getValue() public vie...\n      JUMPDEST \t\t\tfunction getValue() public vie...\n      PUSH 40\t\t\tfunction getValue() public vie...\n      MLOAD \t\t\tfunction getValue() public vie...\n      PUSH [tag] 9\t\t\tfunction getValue() public vie...\n      SWAP2 \t\t\tfunction getValue() public vie...\n      SWAP1 \t\t\tfunction getValue() public vie...\n      PUSH [tag] 10\t\t\tfunction getValue() public vie...\n      JUMP \t\t\tfunction getValue() public vie...\n    tag 9\t\t\tfunction getValue() public vie...\n      JUMPDEST \t\t\tfunction getValue() public vie...\n      PUSH 40\t\t\tfunction getValue() public vie...\n      MLOAD \t\t\tfunction getValue() public vie...\n      DUP1 \t\t\tfunction getValue() public vie...\n      SWAP2 \t\t\tfunction getValue() public vie...\n      SUB \t\t\tfunction getValue() public vie...\n      SWAP1 \t\t\tfunction getValue() public vie...\n      RETURN \t\t\tfunction getValue() public vie...\n    tag 4\t\t\tfunction decrement() public {\\...\n      JUMPDEST \t\t\tfunction decrement() public {\\...\n      PUSH [tag] 11\t\t\tfunction decrement() public {\\...\n      PUSH [tag] 12\t\t\tfunction decrement() public {\\...\n      JUMP \t\t\tfunction decrement() public {\\...\n    tag 11\t\t\tfunction decrement() public {\\...\n      JUMPDEST \t\t\tfunction decrement() public {\\...\n      STOP \t\t\tfunction decrement() public {\\...\n    tag 5\t\t\tuint public value\n      JUMPDEST \t\t\tuint public value\n      PUSH [tag] 13\t\t\tuint public value\n      PUSH [tag] 14\t\t\tuint public value\n      JUMP \t\t\tuint public value\n    tag 13\t\t\tuint public value\n      JUMPDEST \t\t\tuint public value\n      PUSH 40\t\t\tuint public value\n      MLOAD \t\t\tuint public value\n      PUSH [tag] 15\t\t\tuint public value\n      SWAP2 \t\t\tuint public value\n      SWAP1 \t\t\tuint public value\n      PUSH [tag] 10\t\t\tuint public value\n      JUMP \t\t\tuint public value\n    tag 15\t\t\tuint public value\n      JUMPDEST \t\t\tuint public value\n      PUSH 40\t\t\tuint public value\n      MLOAD \t\t\tuint public value\n      DUP1 \t\t\tuint public value\n      SWAP2 \t\t\tuint public value\n      SUB \t\t\tuint public value\n      SWAP1 \t\t\tuint public value\n      RETURN \t\t\tuint public value\n    tag 6\t\t\tfunction increment() public {\\...\n      JUMPDEST \t\t\tfunction increment() public {\\...\n      PUSH [tag] 16\t\t\tfunction increment() public {\\...\n      PUSH [tag] 17\t\t\tfunction increment() public {\\...\n      JUMP \t\t\tfunction increment() public {\\...\n    tag 16\t\t\tfunction increment() public {\\...\n      JUMPDEST \t\t\tfunction increment() public {\\...\n      STOP \t\t\tfunction increment() public {\\...\n    tag 8\t\t\tfunction getValue() public vie...\n      JUMPDEST \t\t\tfunction getValue() public vie...\n      PUSH 0\t\t\tuint\n      PUSH 0\t\t\tvalue\n      SLOAD \t\t\tvalue\n      SWAP1 \t\t\treturn value\n      POP \t\t\treturn value\n      SWAP1 \t\t\tfunction getValue() public vie...\n      JUMP \t\t\tfunction getValue() public vie...\n    tag 12\t\t\tfunction decrement() public {\\...\n      JUMPDEST \t\t\tfunction decrement() public {\\...\n      PUSH 0\t\t\t0\n      PUSH 0\t\t\tvalue\n      SLOAD \t\t\tvalue\n      GT \t\t\tvalue > 0\n      PUSH [tag] 20\t\t\trequire(value > 0, \"Value cann...\n      JUMPI \t\t\trequire(value > 0, \"Value cann...\n      PUSH 40\t\t\trequire(value > 0, \"Value cann...\n      MLOAD \t\t\trequire(value > 0, \"Value cann...\n      PUSH 8C379A000000000000000000000000000000000000000000000000000000000\t\t\trequire(value > 0, \"Value cann...\n      DUP2 \t\t\trequire(value > 0, \"Value cann...\n      MSTORE \t\t\trequire(value > 0, \"Value cann...\n      PUSH 4\t\t\trequire(value > 0, \"Value cann...\n      ADD \t\t\trequire(value > 0, \"Value cann...\n      PUSH [tag] 21\t\t\trequire(value > 0, \"Value cann...\n      SWAP1 \t\t\trequire(value > 0, \"Value cann...\n      PUSH [tag] 22\t\t\trequire(value > 0, \"Value cann...\n      JUMP \t\t\trequire(value > 0, \"Value cann...\n    tag 21\t\t\trequire(value > 0, \"Value cann...\n      JUMPDEST \t\t\trequire(value > 0, \"Value cann...\n      PUSH 40\t\t\trequire(value > 0, \"Value cann...\n      MLOAD \t\t\trequire(value > 0, \"Value cann...\n      DUP1 \t\t\trequire(value > 0, \"Value cann...\n      SWAP2 \t\t\trequire(value > 0, \"Value cann...\n      SUB \t\t\trequire(value > 0, \"Value cann...\n      SWAP1 \t\t\trequire(value > 0, \"Value cann...\n      REVERT \t\t\trequire(value > 0, \"Value cann...\n    tag 20\t\t\trequire(value > 0, \"Value cann...\n      JUMPDEST \t\t\trequire(value > 0, \"Value cann...\n      PUSH 1\t\t\t1\n      PUSH 0\t\t\tvalue\n      PUSH 0\t\t\tvalue\n      DUP3 \t\t\tvalue -= 1\n      DUP3 \t\t\tvalue -= 1\n      SLOAD \t\t\tvalue -= 1\n      PUSH [tag] 23\t\t\tvalue -= 1\n      SWAP2 \t\t\tvalue -= 1\n      SWAP1 \t\t\tvalue -= 1\n      PUSH [tag] 24\t\t\tvalue -= 1\n      JUMP \t\t\tvalue -= 1\n    tag 23\t\t\tvalue -= 1\n      JUMPDEST \t\t\tvalue -= 1\n      SWAP3 \t\t\tvalue -= 1\n      POP \t\t\tvalue -= 1\n      POP \t\t\tvalue -= 1\n      DUP2 \t\t\tvalue -= 1\n      SWAP1 \t\t\tvalue -= 1\n      SSTORE \t\t\tvalue -= 1\n      POP \t\t\tvalue -= 1\n      JUMP \t\t\tfunction decrement() public {\\...\n    tag 14\t\t\tuint public value\n      JUMPDEST \t\t\tuint public value\n      PUSH 0\t\t\tuint public value\n      SLOAD \t\t\tuint public value\n      DUP2 \t\t\tuint public value\n      JUMP \t\t\tuint public value\n    tag 17\t\t\tfunction increment() public {\\...\n      JUMPDEST \t\t\tfunction increment() public {\\...\n      PUSH 1\t\t\t1\n      PUSH 0\t\t\tvalue\n      PUSH 0\t\t\tvalue\n      DUP3 \t\t\tvalue += 1\n      DUP3 \t\t\tvalue += 1\n      SLOAD \t\t\tvalue += 1\n      PUSH [tag] 26\t\t\tvalue += 1\n      SWAP2 \t\t\tvalue += 1\n      SWAP1 \t\t\tvalue += 1\n      PUSH [tag] 27\t\t\tvalue += 1\n      JUMP \t\t\tvalue += 1\n    tag 26\t\t\tvalue += 1\n      JUMPDEST \t\t\tvalue += 1\n      SWAP3 \t\t\tvalue += 1\n      POP \t\t\tvalue += 1\n      POP \t\t\tvalue += 1\n      DUP2 \t\t\tvalue += 1\n      SWAP1 \t\t\tvalue += 1\n      SSTORE \t\t\tvalue += 1\n      POP \t\t\tvalue += 1\n      JUMP \t\t\tfunction increment() public {\\...\n    tag 28\t\t\t-License-Identifier: MIT\\r\\npr...\n      JUMPDEST \t\t\t-License-Identifier: MIT\\r\\npr...\n      PUSH 0\t\t\tdity ^0\n      DUP2 \t\t\tleSto\n      SWAP1 \t\t\tntract SimpleSto\n      POP \t\t\tntract SimpleSto\n      SWAP2 \t\t\t-License-Identifier: MIT\\r\\npr...\n      SWAP1 \t\t\t-License-Identifier: MIT\\r\\npr...\n      POP \t\t\t-License-Identifier: MIT\\r\\npr...\n      JUMP \t\t\t-License-Identifier: MIT\\r\\npr...\n    tag 29\t\t\t// Integer variable to store v...\n      JUMPDEST \t\t\t// Integer variable to store v...\n      PUSH [tag] 37\t\t\tnal) to initialize value\n      DUP2 \t\t\t valu\n      PUSH [tag] 28\t\t\tnal) to initialize value\n      JUMP \t\t\tnal) to initialize value\n    tag 37\t\t\tnal) to initialize value\n      JUMPDEST \t\t\tnal) to initialize value\n      DUP3 \t\t\topt\n      MSTORE \t\t\tuctor (optional) to initialize...\n      POP \t\t\t// Integer variable to store v...\n      POP \t\t\t// Integer variable to store v...\n      JUMP \t\t\t// Integer variable to store v...\n    tag 10\t\t\tctor(uint _initialValue) {\\r\\n...\n      JUMPDEST \t\t\tctor(uint _initialValue) {\\r\\n...\n      PUSH 0\t\t\tment\n      PUSH 20\t\t\tub\n      DUP3 \t\t\tcrement()\n      ADD \t\t\tn increment() publ\n      SWAP1 \t\t\t function increment() publ\n      POP \t\t\t function increment() publ\n      PUSH [tag] 39\t\t\t    value += 1;\\r\\n    }\\r\\n\\r...\n      PUSH 0\t\t\tn\n      DUP4 \t\t\tlue\\r\\n    \n      ADD \t\t\tt value\\r\\n    func\n      DUP5 \t\t\t decre\n      PUSH [tag] 29\t\t\t    value += 1;\\r\\n    }\\r\\n\\r...\n      JUMP \t\t\t    value += 1;\\r\\n    }\\r\\n\\r...\n    tag 39\t\t\t    value += 1;\\r\\n    }\\r\\n\\r...\n      JUMPDEST \t\t\t    value += 1;\\r\\n    }\\r\\n\\r...\n      SWAP3 \t\t\tctor(uint _initialValue) {\\r\\n...\n      SWAP2 \t\t\tctor(uint _initialValue) {\\r\\n...\n      POP \t\t\tctor(uint _initialValue) {\\r\\n...\n      POP \t\t\tctor(uint _initialValue) {\\r\\n...\n      JUMP \t\t\tctor(uint _initialValue) {\\r\\n...\n    tag 30\t\t\t() public {\\r\\n        require...\n      JUMPDEST \t\t\t() public {\\r\\n        require...\n      PUSH 0\t\t\t        val\n      DUP3 \t\t\t// Get\n      DUP3 \t\t\t\\n  \n      MSTORE \t\t\t   }\\r\\n\\r\\n    // Gett\n      PUSH 20\t\t\tblic\n      DUP3 \t\t\tdy \n      ADD \t\t\tlready public \n      SWAP1 \t\t\ton (optional, already public \n      POP \t\t\ton (optional, already public \n      SWAP3 \t\t\t() public {\\r\\n        require...\n      SWAP2 \t\t\t() public {\\r\\n        require...\n      POP \t\t\t() public {\\r\\n        require...\n      POP \t\t\t() public {\\r\\n        require...\n      JUMP \t\t\t() public {\\r\\n        require...\n    tag 31\t\t\tks)\\r\\n    function getValue()...\n      JUMPDEST \t\t\tks)\\r\\n    function getValue()...\n      PUSH 56616C75652063616E6E6F74206265206E656761746976650000000000000000\t\t\t\n      PUSH 0\t\t\t\n      DUP3 \t\t\t\n      ADD \t\t\t\n      MSTORE \t\t\t\n      POP \t\t\tks)\\r\\n    function getValue()...\n      JUMP \t\t\tks)\\r\\n    function getValue()...\n    tag 32\t\t\t\n      JUMPDEST \t\t\t\n      PUSH 0\t\t\t\n      PUSH [tag] 43\t\t\t\n      PUSH 18\t\t\t\n      DUP4 \t\t\t\n      PUSH [tag] 30\t\t\t\n      JUMP \t\t\t\n    tag 43\t\t\t\n      JUMPDEST \t\t\t\n      SWAP2 \t\t\t\n      POP \t\t\t\n      PUSH [tag] 44\t\t\t\n      DUP3 \t\t\t\n      PUSH [tag] 31\t\t\t\n      JUMP \t\t\t\n    tag 44\t\t\t\n      JUMPDEST \t\t\t\n      PUSH 20\t\t\t\n      DUP3 \t\t\t\n      ADD \t\t\t\n      SWAP1 \t\t\t\n      POP \t\t\t\n      SWAP2 \t\t\t\n      SWAP1 \t\t\t\n      POP \t\t\t\n      JUMP \t\t\t\n    tag 22\t\t\t\n      JUMPDEST \t\t\t\n      PUSH 0\t\t\t\n      PUSH 20\t\t\t\n      DUP3 \t\t\t\n      ADD \t\t\t\n      SWAP1 \t\t\t\n      POP \t\t\t\n      DUP2 \t\t\t\n      DUP2 \t\t\t\n      SUB \t\t\t\n      PUSH 0\t\t\t\n      DUP4 \t\t\t\n      ADD \t\t\t\n      MSTORE \t\t\t\n      PUSH [tag] 46\t\t\t\n      DUP2 \t\t\t\n      PUSH [tag] 32\t\t\t\n      JUMP \t\t\t\n    tag 46\t\t\t\n      JUMPDEST \t\t\t\n      SWAP1 \t\t\t\n      POP \t\t\t\n      SWAP2 \t\t\t\n      SWAP1 \t\t\t\n      POP \t\t\t\n      JUMP \t\t\t\n    tag 33\t\t\t\n      JUMPDEST \t\t\t\n      PUSH 4E487B7100000000000000000000000000000000000000000000000000000000\t\t\t\n      PUSH 0\t\t\t\n      MSTORE \t\t\t\n      PUSH 11\t\t\t\n      PUSH 4\t\t\t\n      MSTORE \t\t\t\n      PUSH 24\t\t\t\n      PUSH 0\t\t\t\n      REVERT \t\t\t\n    tag 24\t\t\t\n      JUMPDEST \t\t\t\n      PUSH 0\t\t\t\n      PUSH [tag] 49\t\t\t\n      DUP3 \t\t\t\n      PUSH [tag] 28\t\t\t\n      JUMP \t\t\t\n    tag 49\t\t\t\n      JUMPDEST \t\t\t\n      SWAP2 \t\t\t\n      POP \t\t\t\n      PUSH [tag] 50\t\t\t\n      DUP4 \t\t\t\n      PUSH [tag] 28\t\t\t\n      JUMP \t\t\t\n    tag 50\t\t\t\n      JUMPDEST \t\t\t\n      SWAP3 \t\t\t\n      POP \t\t\t\n      DUP3 \t\t\t\n      DUP3 \t\t\t\n      SUB \t\t\t\n      SWAP1 \t\t\t\n      POP \t\t\t\n      DUP2 \t\t\t\n      DUP2 \t\t\t\n      GT \t\t\t\n      ISZERO \t\t\t\n      PUSH [tag] 51\t\t\t\n      JUMPI \t\t\t\n      PUSH [tag] 52\t\t\t\n      PUSH [tag] 33\t\t\t\n      JUMP \t\t\t\n    tag 52\t\t\t\n      JUMPDEST \t\t\t\n    tag 51\t\t\t\n      JUMPDEST \t\t\t\n      SWAP3 \t\t\t\n      SWAP2 \t\t\t\n      POP \t\t\t\n      POP \t\t\t\n      JUMP \t\t\t\n    tag 27\t\t\t\n      JUMPDEST \t\t\t\n      PUSH 0\t\t\t\n      PUSH [tag] 54\t\t\t\n      DUP3 \t\t\t\n      PUSH [tag] 28\t\t\t\n      JUMP \t\t\t\n    tag 54\t\t\t\n      JUMPDEST \t\t\t\n      SWAP2 \t\t\t\n      POP \t\t\t\n      PUSH [tag] 55\t\t\t\n      DUP4 \t\t\t\n      PUSH [tag] 28\t\t\t\n      JUMP \t\t\t\n    tag 55\t\t\t\n      JUMPDEST \t\t\t\n      SWAP3 \t\t\t\n      POP \t\t\t\n      DUP3 \t\t\t\n      DUP3 \t\t\t\n      ADD \t\t\t\n      SWAP1 \t\t\t\n      POP \t\t\t\n      DUP1 \t\t\t\n      DUP3 \t\t\t\n      GT \t\t\t\n      ISZERO \t\t\t\n      PUSH [tag] 56\t\t\t\n      JUMPI \t\t\t\n      PUSH [tag] 57\t\t\t\n      PUSH [tag] 33\t\t\t\n      JUMP \t\t\t\n    tag 57\t\t\t\n      JUMPDEST \t\t\t\n    tag 56\t\t\t\n      JUMPDEST \t\t\t\n      SWAP3 \t\t\t\n      SWAP2 \t\t\t\n      POP \t\t\t\n      POP \t\t\t\n      JUMP \t\t\t\n    .data\n"
}